:020000040800F2
:1000000000000220CD320008953000089D30000825
:10001000A5300008AD300008B53000080000000031
:1000200000000000000000000000000031A60008F1
:10003000BD3000080000000081A80008CB30000897
:100040001D3300081D3300081D3300081D33000850
:100050001D330008E53000081D3300081D3300087B
:100060001D3300081D3300081D3300081D33000830
:100070001D3300081D3300081D3300081D33000820
:100080001D3300081D3300081D3300081D33000810
:100090001D3300081D3300081D3300081D33000800
:1000A0001D3300081D3300081D3300081D330008F0
:1000B0001D3300081D330008F53000081D3300080B
:1000C0001D3300081D3300081D3300081D330008D0
:1000D0001D3300081D3300081D33000809310008D6
:1000E0001D3300081D3300081D3300081D330008B0
:1000F0001D3300081D3300081D3300081D330008A0
:100100001D3300081D3300081D3300081D3300088F
:100110001D3300081D3300081D3300081D3300087F
:100120001D3300081D3300081D3300081D3300086F
:100130001D3300081D3300081D3300081D3300085F
:100140001D3300081D3300081D3300081D3300084F
:100150001D3300081D3300081D3300081D3300083F
:100160001D3300081D3300081D3300081D3300082F
:100170001D3300081D3300081D3300080000000077
:080180001D3300081D330008C7
:1001900010B5054C237833B9044B13B10448AFF3C1
:1001A00000800123237010BDE0010020000000004A
:1001B000DCDE000808B5034B1BB103490348AFF36D
:1001C000008008BD00000000E4010020DCDE000823
:1001D00001F0FF01102A2BDB10F0070F08D010F8F8
:1001E000013B013A8B422DD010F0070F42B3F6D1FC
:1001F000F0B441EA012141EA014122F007047FF015
:1002000000070023F0E80256083C85EA010586EA6B
:10021000010685FA47F5A3FA87F586FA47F6A5FAA7
:1002200087F68EB9EED1F0BC01F0FF0102F00702B3
:1002300032B110F8013B013A83EA010313B1F8D15E
:100240000020704701387047002D06BF354603383F
:10025000073815F0010F07D1013015F4807F02BF78
:10026000013015F4C03F0130F0BC0138704700BFC9
:10027000034613F8012B002AFBD1181A01387047E6
:1002800081F0004102E000BF83F0004330B54FEA47
:1002900041044FEA430594EA050F08BF90EA020FB4
:1002A0001FBF54EA000C55EA020C7FEA645C7FEA47
:1002B000655C00F0E2804FEA5454D4EB5555B8BF6A
:1002C0006D420CDD2C4480EA020281EA030382EADB
:1002D000000083EA010180EA020281EA0303362D6D
:1002E00088BF30BD11F0004F4FEA01314FF4801C40
:1002F0004CEA113102D0404261EB410113F0004F52
:100300004FEA03334CEA133302D0524263EB430308
:1003100094EA050F00F0A780A4F10104D5F1200EA6
:100320000DDB02FA0EFC22FA05F2801841F1000101
:1003300003FA0EF2801843FA05F359410EE0A5F1D5
:1003400020050EF1200E012A03FA0EFC28BF4CF006
:10035000020C43FA05F3C01851EBE37101F00045BC
:1003600007D54FF0000EDCF1000C7EEB00006EEBC9
:100370000101B1F5801F1BD3B1F5001F0CD3490853
:100380005FEA30004FEA3C0C04F101044FEA4452AA
:1003900012F5800F80F09A80BCF1004F08BF5FEA31
:1003A000500C50F1000041EB045141EA050130BD11
:1003B0005FEA4C0C404141EB0101013C28BFB1F523
:1003C000801FE9D291F0000F04BF01460020B1FA6E
:1003D00081F308BF2033A3F10B03B3F120020CDA41
:1003E0000C3208DD02F1140CC2F10C0201FA0CF01F
:1003F00021FA02F10CE002F11402D8BFC2F1200C84
:1004000001FA02F120FA0CFCDCBF41EA0C01904039
:10041000E41AA2BF01EB0451294330BD6FEA040482
:100420001F3C1CDA0C340EDC04F11404C4F120026D
:1004300020FA04F001FA02F340EA030021FA04F37F
:1004400045EA030130BDC4F10C04C4F1200220FAD6
:1004500002F001FA04F340EA0300294630BD21FA14
:1004600004F0294630BD94F0000F83F4801306BFDA
:1004700081F480110134013D4EE77FEA645C18BFCE
:100480007FEA655C29D094EA050F08BF90EA020F65
:1004900005D054EA000C04BF1946104630BD91EA5D
:1004A000030F1EBF0021002030BD5FEA545C05D160
:1004B0004000494128BF41F0004130BD14F580049F
:1004C0003CBF01F5801130BD01F0004545F0FE4113
:1004D00041F470014FF0000030BD7FEA645C1ABF48
:1004E000194610467FEA655C1CBF0B46024650EA7F
:1004F000013406BF52EA033591EA030F41F40021AB
:1005000030BD00BF90F0000F04BF0021704730B530
:100510004FF4806404F132044FF000054FF0000105
:1005200050E700BF90F0000F04BF0021704730B5C6
:100530004FF4806404F1320410F0004548BF40429B
:100540004FF000013EE700BF42004FEAE2014FEAF0
:1005500031014FEA02701FBF12F07F4393F07F4FCB
:1005600081F06051704732F07F4208BF704793F0CE
:100570007F4F04BF41F40021704730B54FF46074E1
:1005800001F0004521F000411CE700BF50EA0102E4
:1005900008BF704730B54FF000050AE050EA01028D
:1005A00008BF704730B511F0004502D5404261EBFD
:1005B00041014FF4806404F132045FEA915C3FF43E
:1005C000D8AE4FF003025FEADC0C18BF03325FEADB
:1005D000DC0C18BF033202EBDC02C2F1200300FA8C
:1005E00003FC20FA02F001FA03FE40EA0E0021FAB1
:1005F00002F11444BDE600BF70B54FF0FF0C4CF49F
:10060000E06C1CEA11541DBF1CEA135594EA0C0F50
:1006100095EA0C0F00F0DEF82C4481EA030621EA8B
:100620004C5123EA4C5350EA013518BF52EA0335C6
:1006300041F4801143F4801338D0A0FB02CE4FF078
:100640000005E1FB02E506F00042E0FB03E54FF0A8
:100650000006E1FB03569CF0000F18BF4EF0010EA0
:10066000A4F1FF04B6F5007F64F5407404D25FEA9C
:100670004E0E6D4146EB060642EAC62141EA55514F
:100680004FEAC52040EA5E504FEACE2EB4F1FD0C91
:1006900088BFBCF5E06F1ED8BEF1004F08BF5FEA0F
:1006A000500E50F1000041EB045170BD06F00046C1
:1006B00046EA010140EA020081EA0301B4EB5C046E
:1006C000C2BFD4EB0C0541EA045170BD41F4801166
:1006D0004FF0000E013C00F3AB8014F1360FDEBF8B
:1006E000002001F0004170BDC4F10004203C35DA67
:1006F0000C341BDC04F11404C4F1200500FA05F3EA
:1007000020FA04F001FA05F240EA020001F000428A
:1007100021F0004110EBD37021FA04F642EB060100
:100720005EEA430E08BF20EAD37070BDC4F10C042A
:10073000C4F1200500FA04F320FA05F001FA04F2EE
:1007400040EA020001F0004110EBD37041F10001DA
:100750005EEA430E08BF20EAD37070BDC4F12005E5
:1007600000FA05F24EEA020E20FA04F301FA05F24D
:1007700043EA020321FA04F001F0004121FA04F2F5
:1007800020EA020000EBD3705EEA430E08BF20EAC5
:10079000D37070BD94F0000F0FD101F000464000FF
:1007A00041EB010111F4801F08BF013CF7D041EA81
:1007B000060195F0000F18BF704703F00046520085
:1007C00043EB030313F4801F08BF013DF7D043EA56
:1007D0000603704794EA0C0F0CEA135518BF95EA0C
:1007E0000C0F0CD050EA410618BF52EA4306D1D193
:1007F00081EA030101F000414FF0000070BD50EAB2
:10080000410606BF1046194652EA430619D094EA3B
:100810000C0F02D150EA013613D195EA0C0F05D125
:1008200052EA03361CBF104619460AD181EA030179
:1008300001F0004141F0FE4141F470014FF0000031
:1008400070BD41F0FE4141F4780170BD70B54FF0CC
:10085000FF0C4CF4E06C1CEA11541DBF1CEA13554C
:1008600094EA0C0F95EA0C0F00F0A7F8A4EB05042E
:1008700081EA030E52EA03354FEA013100F0888025
:100880004FEA03334FF0805545EA131343EA1263EE
:100890004FEA022245EA111545EA10654FEA0026A3
:1008A0000EF000419D4208BF964244F1FD0404F55C
:1008B000407402D25B084FEA3202B61A65EB0305B8
:1008C0005B084FEA32024FF480104FF4002CB6EB75
:1008D000020E75EB030E22BFB61A754640EA0C00F5
:1008E0005B084FEA3202B6EB020E75EB030E22BF35
:1008F000B61A754640EA5C005B084FEA3202B6EB76
:10090000020E75EB030E22BFB61A754640EA9C0034
:100910005B084FEA3202B6EB020E75EB030E22BF04
:10092000B61A754640EADC0055EA060E18D04FEAC2
:10093000051545EA16754FEA06164FEAC30343EA62
:1009400052734FEAC2025FEA1C1CC0D111F4801F2F
:100950000BD141EA00014FF000004FF0004CB6E728
:1009600011F4801F04BF01430020B4F1FD0C88BFC7
:10097000BCF5E06F3FF6AFAEB5EB030C04BFB6EBD2
:10098000020C5FEA500C50F1000041EB045170BDC5
:100990000EF0004E4EEA113114EB5C04C2BFD4EBF2
:1009A0000C0541EA045170BD41F480114FF0000E76
:1009B000013C90E645EA060E8DE60CEA135594EAF2
:1009C0000C0F08BF95EA0C0F3FF43BAF94EA0C0FF5
:1009D0000AD150EA01347FF434AF95EA0C0F7FF46A
:1009E00025AF104619462CE795EA0C0F06D152EABE
:1009F00003353FF4FDAE1046194622E750EA4106A2
:100A000018BF52EA43067FF4C5AE50EA41047FF4B2
:100A10000DAF52EA43057FF4EBAE12E74FF0FF3C17
:100A200006E000BF4FF0010C02E000BF4FF0010CE8
:100A30004DF804CD4FEA410C7FEA6C5C4FEA430C61
:100A400018BF7FEA6C5C1BD001B050EA410C0CBFB0
:100A500052EA430C91EA030F02BF90EA020F002012
:100A6000704710F1000F91EA030F58BF994208BF79
:100A700090422CBFD8176FEAE37040F00100704736
:100A80004FEA410C7FEA6C5C02D150EA013C07D18D
:100A90004FEA430C7FEA6C5CD6D152EA033CD3D0D8
:100AA0005DF8040B704700BF8446104662468C46D2
:100AB0001946634600E000BF01B5FFF7B7FF002805
:100AC00048BF10F1000F01BD4DF808EDFFF7F4FF2E
:100AD0000CBF012000205DF808FB00BF4DF808EDB9
:100AE000FFF7EAFF34BF012000205DF808FB00BFDC
:100AF0004DF808EDFFF7E0FF94BF012000205DF8FE
:100B000008FB00BF4DF808EDFFF7CEFF94BF0120B2
:100B100000205DF808FB00BF4DF808EDFFF7C4FFAB
:100B200034BF012000205DF808FB00BF4FEA410CF4
:100B30007FEA6C5C02D150EA013C0AD14FEA430CD7
:100B40007FEA6C5C02D152EA033C02D14FF0000014
:100B500070474FF0010070474FEA410212F5001252
:100B600015D211D56FF47873B3EB625212D94FEAF4
:100B7000C12343F0004343EA505311F0004F23FADE
:100B800002F018BF404270474FF00000704750EA33
:100B9000013005D111F0004008BF6FF000407047F0
:100BA0004FF00000704700BF4A0011D212F500124A
:100BB00011D20DD56FF47873B3EB62520ED44FEAB5
:100BC000C12343F0004343EA505323FA02F0704735
:100BD0004FF00000704750EA013002D14FF0FF3073
:100BE00070474FF00000704753B94AB9002908BF59
:100BF00000281CBF4FF0FF314FF0FF3000F06AB902
:100C0000ADF1080C6DE904CE00F006F8DDF804E063
:100C1000DDE9022304B070472DE9F047089D0C463A
:100C2000002B4ED194468C458646B2FA82F262D9A8
:100C30004AB1C2F12003914020FA03F30CFA02FCFE
:100C4000194300FA02FE4FEA1C471FFA8CF6B1FB6B
:100C5000F7F44FEA1E4307FB141143EA014304FB78
:100C600006F199420AD91CEB030304F1FF3080F02E
:100C70001281994240F20F81023C6344591A1FFAD3
:100C80008EF3B1FBF7F007FB101143EA014300FBC1
:100C900006F69E420AD91CEB030300F1FF3180F0F7
:100CA000FC809E4240F2F980634402389B1B40EA7C
:100CB000044000211DB1D3400022C5E90032BDE847
:100CC000F0878B4205D90DB1C5E900010021084626
:100CD000F5E7B3FA83F1002946D1A34202D390424B
:100CE000C0F0F080861A64EB03030120002DE6D0EB
:100CF000C5E90063E3E7002A40F09080A1EB0C0413
:100D00004FEA1C481FFA8CF70121B4FBF8F64FEAB2
:100D10001E4308FB164443EA044307FB06F09842CF
:100D200008D91CEB030306F1FF3402D2984200F20B
:100D3000CD8026461C1A1FFA8EF3B4FBF8F008FB90
:100D4000104443EA044300FB07F79F4208D91CEB19
:100D5000030300F1FF3402D29F4200F2B08020462C
:100D6000DB1B40EA0640A5E7C1F120068B4022FAD2
:100D700006F71F4320FA06FC04FA01F343EA0C03CA
:100D8000F44000FA01F8380C4FEA1349B4FBF0FEC6
:100D90001FFA87FC00FB1E4449EA04440EFB0CF9D1
:100DA000A14502FA01F20AD93C190EF1FF3A80F08E
:100DB0008480A14540F28180AEF1020E3C44A4EB58
:100DC00009041FFA83F9B4FBF0F300FB134449EA6A
:100DD000044403FB0CFCA44507D93C1903F1FF3084
:100DE00067D2A44565D9023B3C4443EA0E40A0FBD0
:100DF0000293A4EB0C049C42CE469C4651D34ED0A9
:100E000055B1B8EB0E0364EB0C0404FA06F6CB40C4
:100E10001E43CC40C5E90064002150E7C2F1200325
:100E200020FA03F10CFA02FC24FA03F394400C4379
:100E30004FEA1C4800FA02FE1FFA8CF7B3FBF8F0E9
:100E400008FB1031230C43EA014300FB07F19942F0
:100E500008D91CEB030300F1FF362CD299422AD9A2
:100E6000023863445B1AA4B2B3FBF8F108FB1133F8
:100E700044EA034401FB07F3A34208D91CEB040432
:100E800001F1FF3613D2A34211D902396444E41AA6
:100E900041EA004139E70446F0E6084606E7C8455E
:100EA000AED2B9EB020E63EB070C0138A8E731466E
:100EB000EDE7034699E73046D4E7D6467FE763443B
:100EC00002384DE70646234608460FE7023E6344D4
:100ED00030E700BF704700BF80B400AFBFF34F8F53
:100EE00000BF064BDB6803F4E0620449044B134384
:100EF000CB60BFF34F8F00BF00BFFDE700ED00E008
:100F00000400FA0580B500AF02F00AFA00F07EF89E
:100F100000F01AFC00F044FB00F046FA00F0A6F9DD
:100F200000F0E8FB00F094FA00F072F900F0E4FA47
:100F300000F0CAF800F01AF90AF0FCF807F0D2F94C
:100F40001D4A00211D4807F017FA03461C4A13608A
:100F50001C4A00211C4807F00FFA03461B4A136085
:100F60001B4A00211B4807F007FA03461A4A136080
:100F70001A4A00211A4807F0FFF90346194A13607C
:100F8000194A0021194807F0F7F90346184A136077
:100F9000184A0021184807F0EFF90346174A136072
:100FA000174A0021174807F0E7F90346164A13606D
:100FB00007F0BCF900BFFDE7B4DF0008851F00089B
:100FC00090040020D8DF0008A91F00089404002026
:100FD000FCDF0008392000089804002020E0000809
:100FE000C92000089C04002044E00008BD2300083C
:100FF000A004002068E00008E9240008A404002000
:101000008CE0000869290008A804002080B594B08D
:1010100000AF07F120033022002118460AF093FEAA
:1010200007F10C0300221A605A609A60DA601A61B4
:101030000023BB60224B1B6C214A43F08053136496
:101040001F4B1B6C03F08053BB60BB6800237B60AD
:101050001C4B1B681B4A43F480431360194B1B68ED
:1010600003F480437B607B6802233B620123FB62C5
:1010700010233B630023BB6307F12003184603F0F2
:10108000DDFF0346002B01D001F03CFD0F23FB6088
:1010900000233B6100237B610023BB610023FB61D4
:1010A00007F10C030021184604F040FA0346002B18
:1010B00001D001F027FD00BF5037BD4680BD00BF05
:1010C000003802400070004080B584B000AF3B465D
:1010D00000221A605A609A60DA60214B214A1A6035
:1010E0001F4B00225A601E4B00229A601C4B0022AC
:1010F0001A611B4B00221A76194B002283F820201C
:10110000174B0022DA62164B174A9A62144B0022E0
:10111000DA60134B0122DA61114B002283F8302090
:101120000F4B01225A610E4802F090F90346002B42
:1011300001D001F0E7FC0B233B6001237B6000231F
:10114000BB603B461946064802F0C4F90346002B33
:1011500001D001F0D7FC00BF1037BD4680BD00BFF5
:10116000FC010020002001400100000F80B584B088
:1011700000AF3B4600221A605A609A60DA60214B49
:10118000214A1A601F4B00225A601E4B00229A60AF
:101190001C4B00221A611B4B00221A76194B0022AD
:1011A00083F82020174B0022DA62164B174A9A6206
:1011B000144B0022DA60134B0122DA61114B00223A
:1011C00083F830200F4B01225A610E4802F03EF99D
:1011D0000346002B01D001F095FC0C233B6001235A
:1011E0007B600023BB603B461946064802F072F95B
:1011F0000346002B01D001F085FC00BF1037BD462F
:1012000080BD00BF44020020002101400100000F0A
:1012100080B500AF124B134A1A60114B124A5A6044
:101220000F4B00229A600E4B0022DA600C4B4FF4F9
:1012300080421A610A4B00225A61094B00229A61CE
:10124000074B0022DA61064B00221A62044802F0C2
:10125000D3FE0346002B01D001F054FC00BF80BD3B
:101260008C02002000540040A086010080B596B09A
:1012700000AF07F1480300221A605A609A60DA60F2
:1012800007F1400300221A605A6007F1240300228C
:101290001A605A609A60DA601A615A619A613B1D5D
:1012A0002022002118460AF04EFD3D4B3D4A1A60AF
:1012B0003B4BA0225A603A4B00229A60384B4FF4C5
:1012C0007A72DA60364B00221A61354B00225A617D
:1012D000334B80229A61324804F008FB0346002B0E
:1012E00001D001F00FFC4FF48053BB6407F14803B9
:1012F00019462B4805F03CF80346002B01D001F0BD
:1013000001FC274804F041FB0346002B01D001F00B
:10131000F9FB00233B6400237B6407F1400319467B
:101320001F4805F09FFD0346002B01D001F0EAFBAA
:1013300060237B620023BB620023FB6200237B638C
:101340000023BB630023FB6307F124030C2219462F
:10135000134804F04BFF0346002B01D001F0D2FBF1
:1013600000237B600023BB600023FB6000233B6104
:1013700000237B614FF40053BB6100233B623B1DA4
:101380001946074805F0EAFD0346002B01D001F09D
:10139000B9FB034801F0F4FD00BF5837BD4680BDDE
:1013A000E00200200000014080B58CB000AF07F1E2
:1013B0000C032422002118460AF0C5FC3B1D002224
:1013C0001A605A60214B4FF080421A601F4B002276
:1013D0005A601E4B00229A601C4B4FF6FF72DA6077
:1013E0001A4B00221A61194B00229A610323FB60F9
:1013F00000233B6101237B610023BB610A23FB6166
:1014000000233B6201237B620023BB620A23FB6251
:1014100007F10C0319460D4804F027FC0346002B86
:1014200001D001F06FFB00237B600023BB603B1DFC
:101430001946064805F016FD0346002B01D001F0C1
:1014400061FB00BF3037BD4680BD00BF28030020D0
:1014500080B58CB000AF07F10C03242200211846A0
:101460000AF071FC3B1D00221A605A60204B214A91
:101470001A601F4B00225A601D4B00229A601C4BC1
:101480004FF6FF72DA601A4B00221A61184B0022E5
:101490009A610323FB6000233B6101237B610023EE
:1014A000BB610A23FB6100233B6201237B620023B3
:1014B000BB620A23FB6207F10C0319460C4804F0D7
:1014C000D4FB0346002B01D001F01CFB00237B6002
:1014D0000023BB603B1D1946054805F0C3FC0346CD
:1014E000002B01D001F00EFB00BF3037BD4680BDA0
:1014F000700300200004004080B586B000AF07F103
:10150000100300221A605A603B4600221A605A609B
:101510009A60DA60204B214A1A601F4B0F225A60F2
:101520001D4B00229A601C4B4FF6FF72DA601A4B7B
:1015300000221A61184B00229A61174804F046FBFA
:101540000346002B01D001F0DDFA00233B610023AC
:101550007B6107F1100319460F4805F083FC034631
:10156000002B01D001F0CEFA00233B6001237B6009
:101570000023BB600023FB603B460022194606485F
:1015800004F097FD0346002B01D001F0BBFA00BF29
:101590001837BD4680BD00BFB803002000080040DA
:1015A00080B596B000AF07F1480300221A605A6078
:1015B0009A60DA6007F1400300221A605A6007F16E
:1015C000240300221A605A609A60DA601A615A6134
:1015D0009A613B1D2022002118460AF0B4FB434BC0
:1015E000434A1A60414B00225A60404B00229A60E5
:1015F0003E4B41F61F42DA603C4B00221A613B4BE6
:1016000000225A61394B00229A61384804F06EF981
:101610000346002B01D001F075FA4FF48053BB64F0
:1016200007F148031946314804F0A2FE0346002B97
:1016300001D001F067FA2D4804F0A7F90346002B0A
:1016400001D001F05FFA00233B6400237B6407F1C3
:1016500040031946254805F005FC0346002B01D040
:1016600001F050FA60237B620023BB620023FB621F
:1016700000233B6300237B630023BB630023FB63E6
:1016800007F1240300221946184804F0AFFD034671
:10169000002B01D001F036FA07F124030422194689
:1016A000124804F0A3FD0346002B01D001F02AFAF2
:1016B00000237B600023BB600023FB6000233B61B1
:1016C00000237B614FF40053BB6100233B623B1D51
:1016D0001946064805F042FC0346002B01D001F0F4
:1016E00011FA00BF5837BD4680BD00BF000400207E
:1016F0000004014080B500AF114B124A1A60104B34
:101700004FF4E1325A600E4B00229A600C4B0022DB
:10171000DA600B4B00221A61094B0C225A61084B0C
:1017200000229A61064B0022DA61054805F07CFC34
:101730000346002B01D001F0E5F900BF80BD00BFDA
:10174000480400200048004080B58CB000AF07F18D
:101750001C0300221A605A609A60DA601A61002342
:10176000BB61494B1B6B484A43F010031363464B64
:101770001B6B03F01003BB61BB6900237B61424B11
:101780001B6B414A43F0800313633F4B1B6B03F019
:1017900080037B617B6900233B613B4B1B6B3A4AB7
:1017A00043F004031363384B1B6B03F004033B61EA
:1017B0003B690023FB60344B1B6B334A43F001034E
:1017C0001363314B1B6B03F00103FB60FB680023C9
:1017D000BB602D4B1B6B2C4A43F0080313632A4B51
:1017E0001B6B03F00803BB60BB6800237B60264BC8
:1017F0001B6B254A43F002031363234B1B6B03F05F
:1018000002037B607B6800224FF4BC611F4802F03A
:10181000BFFB00223C211E4802F0BAFB00224FF41D
:1018200000511C4802F0B4FB4FF4BC63FB61012380
:101830003B6200237B620023BB6207F11C03194655
:10184000124802F009FA3C23FB6101233B620023AA
:101850007B620223BB6207F11C0319460C4802F0AD
:10186000FBF94FF40053FB6101233B6200237B62D1
:101870000023BB6207F11C031946064802F0ECF98D
:1018800000BF3037BD4680BD003802400010024026
:1018900000000240000C024080B483B000AF7860CA
:1018A000044B01221A6000BF0C37BD465DF8047B73
:1018B000704700BFAC04002080B582B000AF87ED58
:1018C000000B44A3D3E90023D7E90001FEF794FEFF
:1018D00002460B46C7E90023334B92221A804FF48D
:1018E000E17006F0DBFD314B00221A60304B002224
:1018F0001A60304B304A1A60304B2F4A1A60304B16
:101900002D4A1A602F4B2C4A1A602D4B1B68184623
:10191000FEF708FED7E90023FEF7B8FC02460B46A7
:1019200010461946FFF718F90346254A1360254B60
:101930001B681846FEF7F6FDD7E90023FEF7A6FC64
:1019400002460B4610461946FFF706F903461D4AA4
:1019500013601CE04FF000024FF00003D7E90001D4
:10196000FFF7DAF80346002B11D0174B1B68002B4A
:101970000DD00E4B01221A600B4B92221A804FF6AB
:10198000FF7302221149124805F09EFB05E000F0AA
:101990008DF90346002BDDD100BF00BF0837BD46DF
:1019A00080BD00BFAFF3008000000020C80400200D
:1019B000C4040020CC040020F8240100D00400203E
:1019C000D4040020D8040020200500204CDF0008AB
:1019D000480400200000000000C0524080B582B0E2
:1019E00000AF87ED000B124BFA221A804FF4E17022
:1019F00006F054FD0F4B00221A600F4B00221A60B4
:101A00000E4BD3E90001D7E90023FEF73DFC024667
:101A10000B460A49C1E9002300BF00F047F903461D
:101A2000002BFAD100BF00BF0837BD4680BD00BF04
:101A300000000020C8040020C4040020E0040020AE
:101A400080B582B000AF87ED000B124B54221A8094
:101A50004FF4E17006F022FD0F4B00221A600F4B8D
:101A600000221A600E4BD3E90001D7E90023FEF7EC
:101A70000DFC02460B460A49C1E9002300BF00F0F5
:101A800015F90346002BFAD100BF00BF0837BD4649
:101A900080BD00BF00000020C8040020C404002056
:101AA000E004002080B582B000AF786039603B6808
:101AB000002B18D07B68002B0ADD0122102135484D
:101AC00002F066FA00222021324802F061FA22E098
:101AD000002210212F4802F05BFA012220212D481C
:101AE00002F056FA17E07B68002B0ADD012208217C
:101AF000284802F04DFA00220421264802F048FA54
:101B000009E000220821234802F042FA01220421C0
:101B1000204802F03DFA7B68002BB8BF5B427B6037
:101B20007B68B3F5FA6F02DD40F6B8332DE07B68D1
:101B3000B3F5FA7F02DD4FF4FA6326E07B68C82B29
:101B400002DD4FF4AF6320E07B68642B02DD4FF4CD
:101B50007A731AE07B68022B07DD0F4B1B68013399
:101B60000D4A13604FF4FA730FE07B68002B06DD1B
:101B7000094B1B680133084A1360002305E0064B3C
:101B80001B680133044A1360002318460837BD461A
:101B900080BD00BF00000240C404002080B586B0B4
:101BA00000AF87ED020B78604FF000023C4BD7E9A5
:101BB0000201FEF721FD02460B4610461946FEF7CC
:101BC000CBFF03467B617B68002B18D07B69002B21
:101BD0000ADD01221021334802F0DAF90022202127
:101BE000304802F0D5F922E0002210212D4802F001
:101BF000CFF9012220212B4802F0CAF917E07B69B6
:101C0000002B0ADA01220821264802F0C1F900223D
:101C10000421244802F0BCF909E0002208212148EF
:101C200002F0B6F9012204211E4802F0B1F97B69E5
:101C3000002BB8BF5B427B617B69B3F5967F02DD09
:101C400040F6B83328E07B69C82B02DD4FF4FA6315
:101C500022E07B69962B02DD4FF4C8631CE07B69B0
:101C6000642B02DD4FF4AF6316E07B690A2B02DDC3
:101C70004FF47A7310E07B69012B07DD0A4B1B6878
:101C80000133094A13604FF4167305E0064B1B68D5
:101C90000133054A1360002318461837BD4680BD3E
:101CA0000000244000000240C404002080B500AFC2
:101CB000104B1B68142B1ADD0F4B01221A600F4BBF
:101CC00000221A800D4B1A880D4B1A800D4B1B6891
:101CD0000D4A13600D4B1B680D4A1360054B002223
:101CE0001A604FF4967006F0D9FB002300E0012340
:101CF000184680BDC4040020C8040020C004002091
:101D0000C2040020D0040020D8040020CC0400200D
:101D1000D40400200000000080B582B000AF7860DD
:101D20007B681B7F012B40F08480474B1B68002B96
:101D30001BD10021786804F0E3FB03461A46434BAD
:101D40001A60414B01221A607B681B681A6A7B6823
:101D50001B6822F00A021A627B681B681A6A7B6899
:101D60001B6842F002021A6263E0374B1B68012BCA
:101D70005FD10021786804F0C3FB03461A46344B58
:101D80001A607B681B6800225A62314B1A682F4B1D
:101D90001B689A420DDD2E4B1A682C4B1B68D31A18
:101DA0001846FEF7BFFB02460B462A49C1E900234D
:101DB0000FE0264B1B68C3F57F43FF33244A1268AC
:101DC00013441846FEF7AEFB02460B462149C1E913
:101DD0000023204BD3E9000119A3D3E90023FEF728
:101DE0000BFC02460B46104619464FF000024FF01E
:101DF0008043FEF72BFD02460B461749C1E900233D
:101E0000114B00221A607B681B681A6A7B681B688A
:101E100022F00A021A627B681A687B681B68126AE1
:101E20001A620E4B1B68DA680C4B1B6822F0020228
:101E3000DA6000BF0837BD4680BD00BFAFF3008049
:101E4000006F8104C58FA13F040500201805002004
:101E50001C0500201005002008050020B803002004
:101E600080B584B002AF03463960FB710E4AFB793E
:101E700013700E4B1B785B0099B20A230093012369
:101E8000094A0B4802F0FCF9084B1B785B0099B239
:101E90001423009302233A68054802F0EFFA00BFCA
:101EA0000837BD4680BD00BFF004002002000020BE
:101EB0008C02002080B584B002AF03460A46FB7155
:101EC0001346BB710A4AFB791370094ABB795370F8
:101ED000084B1B785B0099B2142300930223044A39
:101EE000054802F0CDF900BF0837BD4680BD00BFF0
:101EF000F0040020020000208C02002080B500AF1A
:101F000000210620FFF7D6FF0A2006F0C7FA80213D
:101F10000320FFF7CFFF0A2006F0C0FA07210720B1
:101F2000FFF7C8FF0A2006F0B9FA01210620FFF7E3
:101F3000C1FF0A2006F0B2FA20217F20FFF7BAFF86
:101F40000A2006F0ABFA2F210120FFF7B3FF0A2089
:101F500006F0A4FA00210020FFF7ACFF0A2006F0EB
:101F60009DFA00217F20FFF7A5FF0A2006F096FAD0
:101F700000210720FFF79EFF0A2006F08FFA00BF1E
:101F800080BD000080B582B000AF78604FF4806102
:101F9000044802F016F84FF47A7006F07FFA00BF9A
:101FA000F4E700BF0010024080B586B000AF786053
:101FB0003C211F4803F0FFFE01237B6101F016FA6C
:101FC000F86001F013FA0246FB68D31A0A2B2AD9EB
:101FD000174B1B685B6ABB60BB68B3F5FA4F06DD45
:101FE00001237B61BB68C3F580333B6104E04FF0A4
:101FF000FF337B61BB683B617B69012B06D10D4BD5
:102000001A683B69D31A0B4A136005E0094B1A683A
:102010003B691344074A1360054B1B6800225A6250
:1020200001F0E4F9F860322006F038FAC9E700BFA1
:1020300070030020CC04002080B586B000AF78602B
:102040003C211F4803F0B7FE01237B6101F0CEF96C
:10205000F86001F0CBF90246FB68D31A0A2B2AD9A3
:10206000174B1B685B6ABB60BB68B3F5FA4F06DDB4
:1020700001237B61BB68C3F580333B6104E04FF013
:10208000FF337B61BB683B617B69012B06D10D4B44
:102090001A683B6913440B4A136005E0094B1A6840
:1020A0003B69D31A074A1360054B1B6800225A622A
:1020B00001F09CF9F860322006F0F0F9C9E700BFA2
:1020C00028030020D004002080B586B000AF7860DF
:1020D00041237B614923FB6000233B614F233B810C
:1020E000AA4BAB4A92E8030018600433198005221A
:1020F000A649A84805F073F8A74B1B68012B40F0D0
:102100002C81A64B00221A60A04B1B78522B0FD1BA
:102110009E4B5B78452B0BD19C4B9B78532B07D167
:102120009A4BDB78452B03D1984B1B79542B33D03A
:10213000964B1B78462B04D0944B1B78422B40F0D7
:10214000F580924B5B78532B08D0904B5B78522BE9
:1021500004D08E4B5B784C2B40F0E8808B4B9B7807
:102160002F2B40F2E380894B9B78392B00F2DE80E5
:10217000864BDB782F2B40F2D980844BDB78392BD0
:1021800000F2D480814B1B792F2B40F2CF807F4B04
:102190001B79392B00F2CA807C4B1B78462B1AD155
:1021A0007A4B5B78532B16D17D4B1B68002B12D0DA
:1021B000764B7C4A92E8030018600433198007F1DB
:1021C00008014FF6FF730222724804F07DFF724B44
:1021D00000221A60A9E06F4805F026F86B4B9B7847
:1021E000303B642202FB03F1684BDB78A3F1300241
:1021F00013469B0013445B00CA18644B1B79303BA9
:102200001344664A1360614B1B78422B04D1634B25
:102210001B685B42614A13600A2006F03FF95B4B82
:102220005B78453B0E2B00F2978001A252F823F019
:1022300003230008592300085923000859230008E4
:10224000592300085923000859230008D122000807
:10225000592300085923000859230008592300086E
:10226000592300089F2200086D2200084B4B1B6871
:102270001846FEF757F902460B4643EC102BFFF7C2
:102280001BFB424B484A92E8030018600433198054
:10229000464B01221A600A2006F000F945E03F4B48
:1022A0001B681846FEF73EF902460B4643EC102B1E
:1022B000FFF794FB354B3C4A92E803001860043367
:1022C00019803A4B01221A600A2006F0E7F82CE048
:1022D000324B1B681846FEF725F902460B4643ECC5
:1022E000102BFFF7ADFB294B2F4A92E80300186033
:1022F000043319802D4B01221A600A2006F0CEF813
:1023000013E0224B2A4A92E8030018600433198034
:102310004FF6FF73022227491E4804F0D5FE4FF402
:10232000FA7006F0BBF8FEF7D7FD15E0174B224A0E
:1023300092E803001860043319800A2006F0AEF812
:1023400007F10C014FF6FF730822124804F0BCFE9F
:10235000114B00221A6000E000BF144B1B68012BD8
:1023600010D10D4B00221A600A2006F097F807F1F1
:1023700014014FF6FF730422064804F0A5FE0B4B30
:1023800000221A600A2006F089F8B0E6B0040020A6
:1023900050DF000848040020AC040020BC040020EA
:1023A0002005002058DF000860DF0008B804002086
:1023B00068DF000870DF000874DF0008B0B596B071
:1023C00004AF786000233B6307F1340300221A60F6
:1023D0005A609A60DA600023FB6107F12003002253
:1023E0001A605A609A60DA600023BB6007F10C0340
:1023F00000221A605A609A60DA60354BD3E90045D2
:10240000334BD3E9002310461946FEF7A5FB0346DC
:102410001846FEF787F802460B4620462946FDF788
:1024200033FF02460B46104619464FF00002294B77
:10243000FEF7E2F802460B4610461946FEF78CFB03
:102440000346002BB8BF5B427B64214BD3E90023DA
:1024500010461946FEF780FB024607F130007B6C00
:102460001D4909F00DFC07F130031A460A2100202E
:1024700008F02EFE194B1B781C46184B5B781D4646
:10248000164B9B781A46154BDB781946134B1B7974
:1024900007F11C000293019100922B46224610493D
:1024A00009F0EEFB07F11C031A461421002008F086
:1024B0000FFE07F108031A461E21002008F008FE4F
:1024C00008F092FC642005F0E9FF00BF95E700BF2B
:1024D000E804002000408F407CDF0008B0040020AA
:1024E0008CDF00080000000080B586B000AF786087
:1024F000AF4B00221A80AF4B00221A8000237B6171
:102500000021AD4803F09AFA0421AB4803F096FA93
:102510000C21AA4803F092FAA84B1B6892221A6475
:1025200001221021A64801F033FD00222021A448F9
:1025300001F02EFD01220821A14801F029FD002211
:1025400004219F4801F024FD4FF47A7005F0A6FFA6
:102550009C4B1A88994B1B681A649B4BD3E900016A
:102560009A4BD3E90023FDF78FFE02460B46C7E9DD
:102570000223974B1B68002B11D0964B1B78462BE0
:102580000DD1944B5B78532B09D18A4B00221A80D2
:10259000874B00221A80904B01221A609AE1894BE6
:1025A0001B887E2B4CD8012097ED020BFFF7F6FA23
:1025B00003461846FDF7B6FF79A3D3E90023FEF7DB
:1025C0001BF802460B4610461946FEF7EDFA034685
:1025D0009AB2774B1A80764B1B881846FDF7A2FFFC
:1025E00071A3D3E90023FEF707F802460B46104615
:1025F0001946FEF7D9FA03469AB26E4B1A804FF08D
:1026000000024FF00003D7E90201FEF785FA034606
:10261000002B0AD001220821694801F0B9FC0022F0
:102620000421674801F0B4FC54E100220821644809
:1026300001F0AEFC01220421614801F0A9FC49E14E
:10264000604B1B88BD2B3DD9002097ED020BFFF797
:10265000A5FA03469AB2574B1A80564B1B88184668
:10266000FDF760FF50A3D3E90023FDF7C5FF024645
:102670000B4610461946FEF797FA03469AB24C4BA2
:102680001A804FF000024FF00003D7E90201FEF775
:1026900025FA0346002B0AD001221021484801F0F8
:1026A00077FC00222021464801F072FC12E1002252
:1026B0001021434801F06CFC01222021404801F028
:1026C00067FC07E1454B1A68454B1B68D31A00218C
:1026D0001846FFF7E7F903461846FDF723FF30A336
:1026E000D3E90023FDF788FF02460B461046194642
:1026F000FEF75AFA03469AB22D4B1A80374B1A68E6
:10270000374B1B68D31A83EAE372A2EBE372354BB3
:102710001968354B1B68CB1A002BB8BF5B429A4235
:1027200003DD7B6901337B6102E07B69013B7B61F7
:102730002A4B1A682A4B1B68D31A13F1630F08DB64
:10274000264B1A68264B1B68D31A632B01DC002327
:102750007B61244B1A68244B1B68D31A012118464D
:10276000FFF7A0F903469AB27B699BB213449AB271
:10277000104B1A80194B1A68194B1B68D31A002B7F
:1027800067DA4FF000024FF08043D7E90201FEF70D
:10279000C3F90346002B29D00A4BA5221A8099E0E1
:1027A000F4FDD478E926F13FE17A14AE47E1E23F47
:1027B000C0040020C204002000040020E002002029
:1027C0000000024000000020E0040020E804002097
:1027D00020050020B0040020C8040020D8040020F8
:1027E000D0040020D4040020CC0400204FF00002CC
:1027F0004FF04043D7E90201FEF770F90346002B82
:1028000003D04A4B7F221A8064E04FF00002484B0D
:10281000D7E90201FDF7F0FE02460B4610461946C5
:102820004FF00002434BFEF711F802460B461046EC
:1028300019464FF00002404BFDF728FD02460B46BB
:1028400010461946FEF7B0F903469AB2374B1A8084
:1028500040E04FF000024FF08043D7E90201FEF75D
:102860005BF90346002B03D0304B7F221A8031E006
:102870004FF000024FF04043D7E90201FEF72EF976
:102880000346002B03D0294BA5221A8022E04FF0EB
:1028900000022A4BD7E90201FDF7AEFE02460B46C5
:1028A000104619464FF00002224BFDF7CFFF0246BB
:1028B0000B46104619464FF000021F4BFDF7E6FC91
:1028C00002460B4610461946FEF76EF903469AB2C9
:1028D000164B1A801A4B1B68002B0ED0194B002286
:1028E0001A80184B1A88184B1A80184B1B68184A04
:1028F0001360184B1B68184A1360134B1A88174B48
:102900001B685A630F4B1A88144B1B689A630A2082
:1029100005F0C4FD124B1B68B3F57A7F7FF718AE44
:102920000F4B40F2E9321A6012E600BF00000020AF
:10293000000033400000144000406240000033C0FB
:10294000C8040020C0040020C2040020D0040020DD
:10295000D8040020CC040020D4040020000400206F
:10296000C404002000000000B0B58AB000AF786059
:10297000FFF7C4FA00233B8100237B8100237B62A5
:102980004FF000024FF00003C7E906234FF00002AA
:102990004FF00003C7E904230023FB60322005F059
:1029A0007DFD48E0012005F079FD07F10803194697
:1029B0003720FFF755FA7B7A1AB23B7A1B021BB21B
:1029C00013437B81B7F90A301846FDF7ABFD044687
:1029D0000D4600F00BFD02467B6AD31A1846FDF740
:1029E00091FD46A3D3E90023FDF730FF02460B46D5
:1029F00020462946FDF700FE02460B46D7E90401B2
:102A0000FDF744FC02460B46C7E90423B7F90A3038
:102A10001846FDF787FD02460B46D7E90601FDF78C
:102A200035FC02460B46C7E9062300F0DFFC78625E
:102A3000FB680133FB60FB68B3F57A7FB2DBF868B3
:102A4000FDF770FD02460B46D7E90601FDF7FEFED5
:102A500002460B46C7E9062300F0C8FC78626420F2
:102A600005F01CFD07F1080319463720FFF7F8F9B8
:102A70007B7A1AB23B7A1B021BB213437B81B7F9F4
:102A80000A301846FDF74EFDD7E90623FDF7FCFB9B
:102A900002460B4614461D4600F0A8FC02467B6A1F
:102AA000D31A1846FDF72EFD14A3D3E90023FDF732
:102AB000CDFE02460B4620462946FDF79DFD024607
:102AC0000B46104619460C4BD3E90023FDF7DEFBFD
:102AD00002460B460849C1E90023B7F90A30FA68F3
:102AE000D31AFB60FB680133FB6000F07FFC786267
:102AF00000BFB4E7AFF30080E8040020000000004E
:102B00000004D04080B400AF72B600BF00BFFDE744
:102B100080B582B000AF00237B60164B5B6C154A1A
:102B200043F480435364134B5B6C03F480437B603A
:102B30007B6800233B600F4B1B6C0E4A43F08053B5
:102B400013640C4B1B6C03F080533B603B6800220A
:102B50000F216FF0010000F0B6FF002205210520D3
:102B600000F0B1FF052000F0CAFF00BF0837BD46E6
:102B700080BD00BF0038024080B58CB000AF7860E7
:102B800007F11C0300221A605A609A60DA601A6129
:102B90007B681B682E4A934228D10023BB612D4BD2
:102BA0005B6C2C4A43F4807353642A4B5B6C03F4D4
:102BB0008073BB61BB6900237B61264B1B6B254A7D
:102BC00043F004031363234B1B6B03F004037B618B
:102BD0007B690223FB6103233B6200237B6207F1D5
:102BE0001C0319461C4801F037F82CE07B681B6871
:102BF0001A4A934227D100233B61164B5B6C154A5E
:102C000043F400735364134B5B6C03F400733B6138
:102C10003B690023FB600F4B1B6B0E4A43F0040320
:102C200013630C4B1B6B03F00403FB60FB68042372
:102C3000FB6103233B6200237B6207F11C031946FF
:102C4000054801F009F800BF3037BD4680BD00BF20
:102C500000200140003802400008024000210140ED
:102C600080B58AB000AF786007F1140300221A60C3
:102C70005A609A60DA601A617B681B68194A93424D
:102C80002CD100233B61184B1B6B174A43F0020306
:102C90001363154B1B6B03F002033B613B694FF45D
:102CA00040737B611223BB610023FB6103233B6202
:102CB00004237B6207F1140319460C4800F0CCFF93
:102CC0000023FB60084B1B6C074A43F4001313649A
:102CD000054B1B6C03F40013FB60FB6800BF283737
:102CE000BD4680BD00540040003802400004024050
:102CF00080B58AB000AF786007F1140300221A6033
:102D00005A609A60DA601A617B681B68234A9342B2
:102D10000ED100233B61224B5B6C214A43F001033F
:102D200053641F4B5B6C03F001033B613B6930E074
:102D30007B681B681B4A93422BD10023FB60184B16
:102D40005B6C174A43F002035364154B5B6C03F052
:102D50000203FB60FB680023BB60114B1B6B104A36
:102D600043F0040313630E4B1B6B03F00403BB60BF
:102D7000BB68C0237B610223BB610023FB6100238E
:102D80003B6203237B6207F114031946064800F0F7
:102D900063FF00BF2837BD4680BD00BF0000014073
:102DA00000380240000401400008024080B58CB0A9
:102DB00000AF786007F11C0300221A605A609A6025
:102DC000DA601A617B681B68B3F1804F4BD1002336
:102DD000BB613F4B1B6C3E4A43F0010313643C4B09
:102DE0001B6C03F00103BB61BB6900237B61384BA3
:102DF0001B6B374A43F001031363354B1B6B03F026
:102E000001037B617B6900233B61314B1B6B304AC3
:102E100043F0020313632E4B1B6B03F002033B6171
:102E20003B694FF40043FB6102233B6200237B625A
:102E30000023BB620123FB6207F11C0319462548EE
:102E400000F00AFF0823FB6102233B6200237B6240
:102E50000023BB620123FB6207F11C0319461E48D5
:102E600000F0FAFE30E07B681B681C4A93422BD1CD
:102E70000023FB60164B1B6C154A43F002031364DE
:102E8000134B1B6C03F00203FB60FB680023BB6069
:102E90000F4B1B6B0E4A43F0010313630C4B1B6B70
:102EA00003F00103BB60BB68C023FB6102233B62EC
:102EB00000237B620023BB620223FB6207F11C0339
:102EC0001946044800F0C8FE00BF3037BD4680BD3B
:102ED00000380240000002400004024000040040AC
:102EE00080B58AB000AF786007F1140300221A6041
:102EF0005A609A60DA601A617B681B681D4A9342C7
:102F000034D100233B611C4B1B6C1B4A43F0040370
:102F10001364194B1B6C03F004033B613B690023F2
:102F2000FB60154B1B6B144A43F008031363124BF1
:102F30001B6B03F00803FB60FB684FF480537B615D
:102F40000223BB610023FB6100233B6202237B62FF
:102F500007F114031946094800F07EFE00220521FE
:102F60001E2000F0B0FD1E2000F0C9FD00BF283774
:102F7000BD4680BD0008004000380240000C024001
:102F800080B588B000AF786007F10C0300221A60AA
:102F90005A609A60DA601A617B681B68124A934231
:102FA0001ED10023BB60114B1B6B104A43F0100372
:102FB00013630E4B1B6B03F01003BB60BB684FF435
:102FC0008043FB6002233B6100237B610023BB61E4
:102FD0000123FB6107F10C031946054800F03CFE94
:102FE00000BF2037BD4680BD0000014000380240D0
:102FF0000010024080B58AB000AF786007F114037A
:1030000000221A605A609A60DA601A617B681B6855
:103010001D4A934234D100233B611C4B1B6C1B4A5D
:1030200043F480231364194B1B6C03F480233B612E
:103030003B690023FB60154B1B6B144A43F00403F0
:103040001363124B1B6B03F00403FB60FB684FF42C
:1030500040637B610223BB610023FB6103233B626E
:1030600007237B6207F114031946094800F0F4FDB9
:1030700000220521272000F026FD272000F03FFD3B
:1030800000BF2837BD4680BD0048004000380240E0
:103090000008024080B400AF00BFFDE780B400AF7D
:1030A00000BFFDE780B400AF00BFFDE780B400AF14
:1030B00000BFFDE780B400AF00BFFDE780B400AF04
:1030C00000BFBD465DF8047B704780B500AF00F0DF
:1030D00079F906F00BFE0346012B01D007F004FC42
:1030E00000BF80BD80B400AF00BFBD465DF8047B6B
:1030F0007047000080B500AF024802F0EAFE00BF52
:1031000080BD00BFB803002080B500AF024804F0C6
:103110003DF900BF80BD00BF4804002080B400AF6F
:1031200001231846BD465DF8047B704780B582B028
:1031300000AF7860396008F059FE034616221A6025
:103140004FF0FF3318460837BD4680BD80B582B0CA
:1031500000AF78604FF0FF317868FFF7E7FF00BFFE
:10316000FDE780B586B000AFF860B9607A600023F3
:103170007B610AE0AFF300800146BB685A1CBA606D
:10318000CAB21A707B6901337B617A697B689A42A3
:10319000F0DB7B6818461837BD4680BD80B586B029
:1031A00000AFF860B9607A6000237B6109E0BB681A
:1031B0005A1CBA601B781846AFF300807B69013354
:1031C0007B617A697B689A42F1DB7B681846183725
:1031D000BD4680BD80B483B000AF78604FF0FF3350
:1031E00018460C37BD465DF8047B704780B483B049
:1031F00000AF786039603B684FF400525A6000239A
:1032000018460C37BD465DF8047B704780B483B028
:1032100000AF7860012318460C37BD465DF8047B8B
:10322000704780B485B000AFF860B9607A60002361
:1032300018461437BD465DF8047B704780B586B0EC
:1032400000AF7860144A154BD31A7B617B693B61F0
:10325000134B1B68002B02D1114B124A1A60104B02
:103260001A687B6813443A699A4207D208F0BEFD97
:1032700003460C221A604FF0FF3309E0084B1B682D
:10328000FB60074B1A687B681344054A1360FB68B0
:1032900018461837BD4680BD00000220000400001B
:1032A00024050020C853002080B400AF064BD3F89B
:1032B0008830054A43F47003C2F8883000BFBD4629
:1032C0005DF8047B704700BF00ED00E0DFF834D00C
:1032D000FFF7EAFF0C480D490D4A002302E0D458DD
:1032E000C4500433C4188C42F9D30A4A0A4C002350
:1032F00001E013600432A242FBD308F07DFDFDF72C
:1033000001FE70470000022000000020DC010020C8
:10331000B0EE0008E0010020C8530020FEE70000E6
:1033200080B500AF0E4B1B680D4A43F40073136069
:103330000B4B1B680A4A43F480631360084B1B68FD
:10334000074A43F480731360032000F0B1FB0F20A1
:1033500000F008F8FFF7DCFB0023184680BD00BF33
:10336000003C024080B582B000AF7860124B1A6812
:10337000124B1B7819464FF47A73B3FBF1F3B2FB8F
:10338000F3F3184600F0C9FB0346002B01D00123DC
:103390000EE07B680F2B0AD8002279684FF0FF30CF
:1033A00000F091FB064A7B681360002300E00123D4
:1033B00018460837BD4680BD040000200C000020E0
:1033C0000800002080B400AF064B1B781A46064B5D
:1033D0001B681344044A136000BFBD465DF8047BBC
:1033E000704700BF0C0000202805002080B400AF0B
:1033F000034B1B681846BD465DF8047B704700BF51
:103400002805002080B584B000AF7860FFF7EEFF9C
:10341000B8607B68FB60FB68B3F1FF3F05D00A4BE7
:103420001B781A46FB681344FB6000BFFFF7DEFF02
:103430000246BB68D31AFA689A42F7D800BF00BFA9
:103440001037BD4680BD00BF0C00002080B584B0A1
:1034500000AF78600023FB737B68002B01D1012350
:1034600033E07B681B6C002B09D17868FFF784FB85
:103470007B6800225A647B68002283F83C207B68CA
:103480001B6C03F01003002B18D17B681B6C23F41A
:10349000885323F0020343F002027B681A647868C1
:1034A00000F03AF97B6800225A647B681B6C23F0B9
:1034B000030343F001027B681A6401E00123FB73FC
:1034C0007B68002283F83C20FB7B18461037BD4602
:1034D00080BD000080B485B000AF78603960002303
:1034E000BB607B6893F83C30012B01D1022305E1DE
:1034F0007B68012283F83C203B681B68092B25D997
:103500007B681B68D9683B681B689BB21A461346E8
:103510005B0013441E3B072202FA03F3DA437B6885
:103520001B680A40DA607B681B68D9683B689A6848
:103530003B681B689BB2184603465B0003441E3B76
:103540009A407B681B680A43DA6022E07B681B684C
:1035500019693B681B689BB21A4613465B0013440B
:10356000072202FA03F3DA437B681B680A401A61F8
:103570007B681B6819693B689A683B681B689BB24B
:10358000184603465B0003449A407B681B680A4365
:103590001A613B685B68062B24D87B681B68596BF3
:1035A0003B685A6813469B001344053B1F2202FAEE
:1035B00003F3DA437B681B680A405A637B681B6825
:1035C000596B3B681B689BB218463B685A681346A8
:1035D0009B001344053B00FA03F27B681B680A4317
:1035E0005A634CE03B685B680C2B24D87B681B68F3
:1035F000196B3B685A6813469B001344233B1F22F8
:1036000002FA03F3DA437B681B680A401A637B689B
:103610001B68196B3B681B689BB218463B685A686D
:1036200013469B001344233B00FA03F27B681B689C
:103630000A431A6323E07B681B68D96A3B685A68AF
:1036400013469B001344413B1F2202FA03F3DA4363
:103650007B681B680A40DA627B681B68D96A3B6832
:103660001B689BB218463B685A6813469B0013447C
:10367000413B00FA03F27B681B680A43DA62224B83
:10368000FB607B681B68214A934209D13B681B6839
:10369000122B05D1FB685B6843F48002FB685A601B
:1036A0007B681B68194A934223D13B681B68102B27
:1036B00003D03B681B68112B1BD1FB685B6843F48C
:1036C0000002FB685A603B681B68102B11D1104B3D
:1036D0001B68104AA2FB03239A0C13469B00134459
:1036E0005B00BB6002E0BB68013BBB60BB68002BBA
:1036F000F9D17B68002283F83C2000231846143758
:10370000BD465DF8047B7047002301400020014066
:103710000400002083DE1B4380B485B000AF7860D6
:10372000794BFB60FB685B6823F44032FB685A60AE
:10373000FB685A687B685B681A43FB685A607B6861
:103740001B685A687B681B6822F480725A607B6829
:103750001B6859687B681B691A027B681B680A43EF
:103760005A607B681B685A687B681B6822F040724D
:103770005A607B681B6859687B689A687B681B681D
:103780000A435A607B681B689A687B681B6822F44E
:1037900000629A607B681B6899687B68DA687B685E
:1037A0001B680A439A607B689B6A584A934222D0FE
:1037B0007B681B689A687B681B6822F070629A605D
:1037C0007B681B6899687B689A6A7B681B680A43F8
:1037D0009A607B681B689A687B681B6822F040527D
:1037E0009A607B681B6899687B68DA6A7B681B68EB
:1037F0000A439A600FE07B681B689A687B681B68C5
:1038000022F070629A607B681B689A687B681B680C
:1038100022F040529A607B681B689A687B681B683C
:1038200022F002029A607B681B6899687B681B7EA5
:103830005A007B681B680A439A607B6893F82030C3
:10384000002B1BD07B681B685A687B681B6842F49E
:1038500000625A607B681B685A687B681B6822F4A8
:1038600060425A607B681B6859687B685B6A013BF1
:103870005A037B681B680A435A6007E07B681B6831
:103880005A687B681B6822F400625A607B681B6878
:10389000DA6A7B681B6822F47002DA627B681B6854
:1038A000D96A7B68DB69013B1A057B681B680A43A0
:1038B000DA627B681B689A687B681B6822F4007276
:1038C0009A607B681B6899687B6893F830305A026D
:1038D0007B681B680A439A607B681B689A687B68F0
:1038E0001B6822F480629A607B681B6899687B6819
:1038F0005B699A027B681B680A439A6000BF1437B1
:10390000BD465DF8047B7047002301400100000FB5
:1039100080B485B000AF78607B6803F00703FB607C
:103920000C4BDB68BB60BA684FF6FF031340BB600B
:10393000FB681A02BB68134343F0BF6343F40033D0
:10394000BB60044ABB68D36000BF1437BD465DF856
:10395000047B704700ED00E080B400AF044BDB68EF
:103960001B0A03F007031846BD465DF8047B704749
:1039700000ED00E080B483B000AF0346FB7197F91F
:103980000730002B0BDBFB7903F01F02074997F987
:1039900007305B09012000FA02F241F8232000BF42
:1039A0000C37BD465DF8047B704700BF00E100E0C6
:1039B00080B483B000AF03463960FB7197F90730DC
:1039C000002B0ADB3B68DAB20C4997F90730120189
:1039D000D2B20B4483F800230AE03B68DAB208490C
:1039E000FB7903F00F03043B1201D2B20B441A76A9
:1039F00000BF0C37BD465DF8047B704700E100E076
:103A000000ED00E080B489B000AFF860B9607A6082
:103A1000FB6803F00703FB61FB69C3F10703042B99
:103A200028BF0423BB61FB690433062B02D9FB6961
:103A3000033B00E000237B614FF0FF32BB6902FAD9
:103A400003F3DA43BB681A407B699A404FF0FF31B9
:103A50007B6901FA03F3D9437B680B401343184693
:103A60002437BD465DF8047B7047000080B582B006
:103A700000AF78607B68013BB3F1807F01D3012305
:103A80000FE00A4A7B68013B53600F214FF0FF3083
:103A9000FFF78EFF054B00229A60044B07221A6045
:103AA000002318460837BD4680BD00BF10E000E087
:103AB00080B582B000AF78607868FFF729FF00BF5B
:103AC0000837BD4680BD80B586B000AF0346B960FB
:103AD0007A60FB7300237B61FFF73EFF78617A68B1
:103AE000B9687869FFF78EFF024697F90F301146E3
:103AF0001846FFF75DFF00BF1837BD4680BD80B593
:103B000082B000AF0346FB7197F907301846FFF704
:103B100031FF00BF0837BD4680BD80B582B000AF21
:103B200078607868FFF7A2FF034618460837BD465D
:103B300080BD80B584B000AF78607B689B6DFB6012
:103B4000FFF754FCB8607B6893F83530DBB2022B8A
:103B500008D07B6880225A657B68002283F8342075
:103B6000012352E07B681B681A687B681B6822F09F
:103B700016021A607B681B685A697B681B6822F012
:103B800080025A617B681B6C002B03D17B689B6CA5
:103B9000002B07D07B681B681A687B681B6822F0C3
:103BA00008021A607B681B681A687B681B6822F031
:103BB00001021A6013E0FFF719FC0246BB68D31A32
:103BC000052B0CD97B6820225A657B68032283F879
:103BD00035207B68002283F83420032315E07B68BE
:103BE0001B681B6803F00103002BE4D17B68DB6DCD
:103BF0003F229A40FB689A607B68012283F8352057
:103C00007B68002283F83420002318461037BD4615
:103C100080BD80B483B000AF78607B6893F83530A6
:103C2000DBB2022B04D07B6880225A6501230CE0B2
:103C30007B68052283F835207B681B681A687B68DF
:103C40001B6822F001021A60002318460C37BD469B
:103C50005DF8047B7047000080B489B000AF7860E5
:103C6000396000237B6100233B610023BB6100239B
:103C7000FB616BE10122FB6902FA03F37B613B68A4
:103C80001B687A6913403B613A697B699A4240F04C
:103C90005A813B685B6803F00303012B05D03B6846
:103CA0005B6803F00303022B30D17B689B68BB6128
:103CB000FB695B00032202FA03F3DB43BA6913409A
:103CC000BB613B68DA68FB695B0002FA03F3BA691F
:103CD0001343BB617B68BA699A607B685B68BB61B0
:103CE0000122FB6902FA03F3DB43BA691340BB61AB
:103CF0003B685B681B0903F00102FB6902FA03F3EE
:103D0000BA691343BB617B68BA695A603B685B68F8
:103D100003F00303032B17D07B68DB68BB61FB69EF
:103D20005B00032202FA03F3DB43BA691340BB6171
:103D30003B689A68FB695B0002FA03F3BA691343B4
:103D4000BB617B68BA69DA603B685B6803F00303B8
:103D5000022B23D1FB69DA087B68083253F8223042
:103D6000BB61FB6903F007039B000F2202FA03F318
:103D7000DB43BA691340BB613B681A69FB6903F016
:103D800007039B0002FA03F3BA691343BB61FB69A3
:103D9000DA087B680832B96943F822107B681B682F
:103DA000BB61FB695B00032202FA03F3DB43BA69E0
:103DB0001340BB613B685B6803F00302FB695B0077
:103DC00002FA03F3BA691343BB617B68BA691A60EC
:103DD0003B685B6803F44033002B00F0B4800023A1
:103DE000FB60604B5B6C5F4A43F4804353645D4B04
:103DF0005B6C03F48043FB60FB685B4AFB699B08D8
:103E0000023352F82330BB61FB6903F003039B00CC
:103E10000F2202FA03F3DB43BA691340BB617B68EC
:103E2000524A93422BD07B68514A934225D07B68FB
:103E3000504A93421FD07B684F4A934219D07B6807
:103E40004E4A934213D07B684D4A93420DD07B6813
:103E50004C4A934207D07B684B4A934201D10723D7
:103E60000EE008230CE006230AE0052308E0042303
:103E700006E0032304E0022302E0012300E0002324
:103E8000FA6902F0030292009340BA691343BB61DE
:103E90003549FB699B080233BA6941F823203B4B43
:103EA0009B68BB613B69DB43BA691340BB613B68FC
:103EB0005B6803F48013002B03D0BA693B6913439A
:103EC000BB61324ABB699360304BDB68BB613B69C5
:103ED000DB43BA691340BB613B685B6803F40013C2
:103EE000002B03D0BA693B691343BB61274ABB6906
:103EF000D360264B5B68BB613B69DB43BA69134007
:103F0000BB613B685B6803F40033002B03D0BA69E4
:103F10003B691343BB611D4ABB6953601B4B1B6864
:103F2000BB613B69DB43BA691340BB613B685B68BB
:103F300003F48033002B03D0BA693B691343BB61A0
:103F4000124ABB691360FB690133FB61FB690F2BEC
:103F50007FF690AE00BF00BF2437BD465DF8047BFE
:103F6000704700BF003802400038014000000240A6
:103F70000004024000080240000C02400010024011
:103F80000014024000180240001C0240003C0140A6
:103F900080B483B000AF78600B467B8013467B70A3
:103FA0007B78002B03D07A887B689A6103E07B885A
:103FB0001A047B689A6100BF0C37BD465DF8047B2C
:103FC000704780B485B000AF78600B467B807B681B
:103FD0005B69FB607A88FB6813401A04FB68D9436D
:103FE0007B880B401A437B689A6100BF1437BD463B
:103FF0005DF8047B7047000080B584B000AF786046
:104000007B68002B01D101232BE17B6893F83D30C5
:10401000DBB2002B06D17B68002283F83C20786855
:10402000FEF71EFE7B68242283F83D207B681B6818
:104030001A687B681B6822F001021A607B681B68A3
:104040001A687B681B6842F400421A607B681B6830
:104050001A687B681B6822F400421A6001F01EFC9B
:10406000F8607B685B68814A934207D8FB68804AA6
:10407000934294BF01230023DBB206E0FB687D4A34
:10408000934294BF01230023DBB2002B01D0012314
:10409000E7E0FB68784AA2FB03239B0CBB607B68CC
:1040A0001B685B6823F03F017B681B68BA680A43A2
:1040B0005A607B681B681B6A23F03F017B685B6862
:1040C0006A4A934202D8BB68013309E0BB684FF4E7
:1040D000967202FB03F3694AA2FB03239B09013397
:1040E0007A6812680B4313627B681B68DB6923F4F0
:1040F0004F4222F0FF027B685B685C498B4219D813
:10410000FB68591E7B685B685B00B1FBF3F3591CCD
:1041100040F6FC730B40002B0AD0FB68591E7B68ED
:104120005B685B00B1FBF3F30133C3F30B0351E0B6
:1041300004234FE07B689B68002B11D1FB68581E5D
:104140007B6859680B465B000B44B0FBF3F301330B
:10415000C3F30B03002B0CBF01230023DBB212E0DF
:10416000FB68581E7B6859680B469B000B449900FE
:104170000B44B0FBF3F30133C3F30B03002B0CBF71
:1041800001230023DBB2002B01D0012322E07B6856
:104190009B68002B0ED1FB68581E7B6859680B4644
:1041A0005B000B44B0FBF3F30133C3F30B0343F4A5
:1041B00000430FE0FB68581E7B6859680B469B0064
:1041C0000B4499000B44B0FBF3F30133C3F30B032F
:1041D00043F44043796809681343CB617B681B68EB
:1041E0001B6823F0C0017B68DA697B681B6A1A438D
:1041F0007B681B680A431A607B681B689B6823F412
:10420000034323F0FF037A6811697A68D268114387
:104210007A6812680B4393607B681B68DB6823F045
:10422000FF017B685A697B689B691A437B681B683E
:104230000A43DA607B681B681A687B681B6842F077
:1042400001021A607B6800221A647B68202283F8CE
:104250003D207B6800221A637B68002283F83E20A1
:10426000002318461037BD4680BD00BFA086010060
:104270007F841E00FF083D0083DE1B43D34D621088
:1042800080B588B002AFF8607A601A460B467B8131
:1042900013463B81FFF7AAF87861FB6893F83D303D
:1042A000DBB2202B40F0E0807B69009319230122D0
:1042B0007049F86800F064FC0346002B01D002232B
:1042C000D3E0FB6893F83C30012B01D10223CCE012
:1042D000FB68012283F83C20FB681B681B6803F025
:1042E0000103012B07D0FB681B681A68FB681B6879
:1042F00042F001021A60FB681B681A68FB681B68C1
:1043000022F400621A60FB68212283F83D20FB68DA
:10431000102283F83E20FB6800221A64FB687A684A
:104320005A62FB683A895A85FB685B8D9AB2FB68D2
:104330001A85FB68504ADA6279897B693A6AF868BB
:1043400000F0CEFA0346002B01D001238DE00023BC
:104350003B61FB681B685B693B61FB681B689B6991
:104360003B613B6966E07A69396AF86800F022FDD2
:104370000346002B0DD0FB681B6C042B07D1FB6898
:104380001B681A68FB681B6842F400721A600123FC
:104390006BE0FB685B6A1A78FB681B681A61FB6854
:1043A0005B6A5A1CFB685A62FB685B8D9BB2013BDF
:1043B0009AB2FB685A85FB681B8D013B9AB2FB6879
:1043C0001A85FB681B685B6903F00403042B1BD18F
:1043D000FB681B8D002B17D0FB685B6A1A78FB68A3
:1043E0001B681A61FB685B6A5A1CFB685A62FB68AF
:1043F0005B8D9BB2013B9AB2FB685A85FB681B8DB3
:10440000013B9AB2FB681A857A69396AF86800F04C
:1044100019FD0346002B0DD0FB681B6C042B07D144
:10442000FB681B681A68FB681B6842F400721A601C
:1044300001231AE0FB681B8D002B94D1FB681B68DD
:104440001A68FB681B6842F400721A60FB6820223D
:1044500083F83D20FB68002283F83E20FB680022A1
:1044600083F83C20002300E0022318461837BD469D
:1044700080BD00BF020010000000FFFF80B58CB0BF
:1044800002AFF8607A601A460B467B8113463B8187
:10449000FEF7ACFF7862FB6893F83D30DBB2202B6F
:1044A00040F017827B6A0093192301227C49F86847
:1044B00000F066FB0346002B01D002230AE2FB68F2
:1044C00093F83C30012B01D1022303E2FB68012267
:1044D00083F83C20FB681B681B6803F00103012B79
:1044E00007D0FB681B681A68FB681B6842F0010272
:1044F0001A60FB681B681A68FB681B6822F400627C
:104500001A60FB68222283F83D20FB68102283F8A2
:104510003E20FB6800221A64FB687A685A62FB68D6
:104520003A895A85FB685B8D9AB2FB681A85FB68ED
:104530005C4ADA6279897B6A3A6BF86800F052FA71
:104540000346002B01D00123C4E1FB681B8D002B27
:1045500013D100233B62FB681B685B693B62FB680D
:104560001B689B693B623B6AFB681B681A68FB68B7
:104570001B6842F400721A6098E1FB681B8D012BE6
:104580001BD1FB681B681A68FB681B6822F48062F9
:104590001A600023FB61FB681B685B69FB61FB68B9
:1045A0001B689B69FB61FB69FB681B681A68FB68F9
:1045B0001B6842F400721A6078E1FB681B8D022BC5
:1045C0001BD1FB681B681A68FB681B6822F48062B9
:1045D0001A60FB681B681A68FB681B6842F400627B
:1045E0001A600023BB61FB681B685B69BB61FB68E9
:1045F0001B689B69BB61BB6958E1FB681B681A6853
:10460000FB681B6842F480621A6000237B61FB68D0
:104610001B685B697B61FB681B689B697B617B69CD
:1046200044E1FB681B8D032B00F2F180FB681B8DBE
:10463000012B23D17A6A396BF86800F04BFC0346F2
:10464000002B01D0012345E1FB681B681A69FB6858
:104650005B6AD2B21A70FB685B6A5A1CFB685A62CA
:10466000FB681B8D013B9AB2FB681A85FB685B8D6A
:104670009BB2013B9AB2FB685A8517E1FB681B8D20
:10468000022B4ED17B6A00933B6B00220649F868EF
:1046900000F076FA0346002B08D001231AE100BF90
:1046A000020010000000FFFF04000100FB681B680F
:1046B0001A68FB681B6842F400721A60FB681B688A
:1046C0001A69FB685B6AD2B21A70FB685B6A5A1C93
:1046D000FB685A62FB681B8D013B9AB2FB681A8526
:1046E000FB685B8D9BB2013B9AB2FB685A85FB6805
:1046F0001B681A69FB685B6AD2B21A70FB685B6A56
:104700005A1CFB685A62FB681B8D013B9AB2FB681E
:104710001A85FB685B8D9BB2013B9AB2FB685A8598
:10472000C4E07B6A00933B6B00226C49F86800F0A0
:1047300027FA0346002B01D00123CBE0FB681B685E
:104740001A68FB681B6822F480621A60FB681B68A9
:104750001A69FB685B6AD2B21A70FB685B6A5A1C02
:10476000FB685A62FB681B8D013B9AB2FB681A8595
:10477000FB685B8D9BB2013B9AB2FB685A857B6AF2
:1047800000933B6B00225549F86800F0F9F90346A5
:10479000002B01D001239DE0FB681B681A68FB68B1
:1047A0001B6842F400721A60FB681B681A69FB6898
:1047B0005B6AD2B21A70FB685B6A5A1CFB685A6269
:1047C000FB681B8D013B9AB2FB681A85FB685B8D09
:1047D0009BB2013B9AB2FB685A85FB681B681A6959
:1047E000FB685B6AD2B21A70FB685B6A5A1CFB6892
:1047F0005A62FB681B8D013B9AB2FB681A85FB6805
:104800005B8D9BB2013B9AB2FB685A854EE07A6A97
:10481000396BF86800F05EFB0346002B01D00123E2
:1048200058E0FB681B681A69FB685B6AD2B21A70B1
:10483000FB685B6A5A1CFB685A62FB681B8D013B74
:104840009AB2FB681A85FB685B8D9BB2013B9AB2FA
:10485000FB685A85FB681B685B6903F00403042B43
:1048600024D1FB681B8D032B07D1FB681B681A68DA
:10487000FB681B6822F480621A60FB681B681A6977
:10488000FB685B6AD2B21A70FB685B6A5A1CFB68F1
:104890005A62FB681B8D013B9AB2FB681A85FB6864
:1048A0005B8D9BB2013B9AB2FB685A85FB681B8DFE
:1048B000002B7FF4B6AEFB68202283F83D20FB6816
:1048C000002283F83E20FB68002283F83C2000236E
:1048D00000E0022318462837BD4680BD04000100D1
:1048E00080B588B002AFF8607A603B600B467B8190
:1048F000FB68DB6A7B617B69082B06D07B69012B37
:1049000003D07B6913F5803F08D1FB681B681A68E8
:10491000FB681B6842F480721A600BE0FB681B6B3B
:10492000122B07D1FB681B681A68FB681B6842F4EE
:1049300080721A603B6800937B6800224FF001117F
:10494000F86800F01DF90346002B0DD0FB681B68CA
:104950001B6803F48073B3F5807F03D1FB684FF4C9
:1049600000721A64032335E0FB681B69B3F5804FBE
:1049700008D17B89DBB21A46FB681B6802F0FE0295
:104980001A611BE07B89DB11DBB203F00603DBB2AB
:1049900063F00F03DAB2FB681B681A613B687A6840
:1049A0000E49F86800F066F90346002B01D0012398
:1049B00010E07B89DAB2FB681B681A613B687A6891
:1049C0000749F86800F056F90346002B01D001238F
:1049D00000E0002318461837BD4680BD08000100DE
:1049E0000200010080B588B002AFF8607A603B60D9
:1049F0000B467B81FB68DB6A7B61FB681B681A687E
:104A0000FB681B6842F480621A607B69082B06D041
:104A10007B69012B03D07B6913F5803F08D1FB68CC
:104A20001B681A68FB681B6842F480721A600BE00E
:104A3000FB681B6B112B07D1FB681B681A68FB68AE
:104A40001B6842F480721A603B6800937B68002206
:104A50004FF00111F86800F093F80346002B0DD0D9
:104A6000FB681B681B6803F48073B3F5807F03D178
:104A7000FB684FF400721A64032379E0FB681B693A
:104A8000B3F5804F08D17B89DBB243F00103DAB282
:104A9000FB681B681A615FE07B89DB11DBB203F006
:104AA0000603DBB263F00F03DAB2FB681B681A611E
:104AB0003B687A683049F86800F0DCF80346002B60
:104AC00001D0012354E07B89DAB2FB681B681A61CC
:104AD0003B687A682949F86800F0CCF80346002B57
:104AE00001D0012344E000233B61FB681B685B6944
:104AF0003B61FB681B689B693B613B69FB681B680A
:104B00001A68FB681B6842F480721A603B68009365
:104B10007B6800224FF00111F86800F031F803467D
:104B2000002B0DD0FB681B681B6803F48073B3F582
:104B3000807F03D1FB684FF400721A64032317E0EF
:104B40007B89DB11DBB203F00603DBB263F00E03FB
:104B5000DAB2FB681B681A613B687A680749F86833
:104B600000F088F80346002B01D0012300E0002369
:104B700018461837BD4680BD08000100020001003C
:104B800080B584B000AFF860B9603B601346FB713C
:104B900048E03B68B3F1FF3F44D0FEF727FC0246F4
:104BA000BB69D31A3A689A4202D33B68002B39D1C9
:104BB000BB681B0CDBB2012B0DD1FB681B685B696A
:104BC000DA43BB6813409BB2002B0CBF01230023C8
:104BD000DBB21A460CE0FB681B689B69DA43BB68D2
:104BE00013409BB2002B0CBF01230023DBB21A46FB
:104BF000FB799A4216D1FB6800221A63FB682022D7
:104C000083F83D20FB68002283F83E20FB681B6C84
:104C100043F02002FB681A64FB68002283F83C2002
:104C2000012323E0BB681B0CDBB2012B0DD1FB6819
:104C30001B685B69DA43BB6813409BB2002B0CBF57
:104C400001230023DBB21A460CE0FB681B689B695A
:104C5000DA43BB6813409BB2002B0CBF0123002337
:104C6000DBB21A46FB799A4293D0002318461037DC
:104C7000BD4680BD80B584B000AFF860B9607A6091
:104C80003B6071E0FB681B685B6903F48063B3F50C
:104C9000806F23D1FB681B681A68FB681B6842F4AD
:104CA00000721A60FB681B686FF480625A61FB68CF
:104CB00000221A63FB68202283F83D20FB68002253
:104CC00083F83E20FB681B6C43F00402FB681A6407
:104CD000FB68002283F83C20012367E07B68B3F186
:104CE000FF3F41D0FEF782FB02463B68D31A7A6849
:104CF0009A4202D37B68002B36D1BB681B0CDBB217
:104D0000012B0CD1FB681B685B69DA43BB6813405D
:104D10009BB2002B14BF01230023DBB20BE0FB6826
:104D20001B689B69DA43BB6813409BB2002B14BF1E
:104D300001230023DBB2002B16D0FB6800221A638C
:104D4000FB68202283F83D20FB68002283F83E2088
:104D5000FB681B6C43F02002FB681A64FB680022AE
:104D600083F83C20012321E0BB681B0CDBB2012B44
:104D70000CD1FB681B685B69DA43BB6813409BB2CC
:104D8000002B14BF01230023DBB20BE0FB681B6880
:104D90009B69DA43BB6813409BB2002B14BF01230D
:104DA0000023DBB2002B7FF46DAF002318461037D1
:104DB000BD4680BD80B584B000AFF860B9607A6050
:104DC00034E0F86800F0E3F80346002B01D001233B
:104DD00034E0BB68B3F1FF3F28D0FEF707FB024683
:104DE0007B68D31ABA689A4202D3BB68002B1DD1E4
:104DF000FB681B685B6903F08003802B16D0FB689F
:104E000000221A63FB68202283F83D20FB68002201
:104E100083F83E20FB681B6C43F02002FB681A6499
:104E2000FB68002283F83C20012307E0FB681B6835
:104E30005B6903F08003802BC3D100231846103731
:104E4000BD4680BD80B584B000AFF860B9607A60BF
:104E500034E0F86800F09BF80346002B01D00123F2
:104E600034E0BB68B3F1FF3F28D0FEF7BFFA02463B
:104E70007B68D31ABA689A4202D3BB68002B1DD153
:104E8000FB681B685B6903F00403042B16D0FB6806
:104E900000221A63FB68202283F83D20FB68002271
:104EA00083F83E20FB681B6C43F02002FB681A6409
:104EB000FB68002283F83C20012307E0FB681B68A5
:104EC0005B6903F00403042BC3D100231846103799
:104ED000BD4680BD80B584B000AFF860B9607A602F
:104EE00049E0FB681B685B6903F01003102B19D1C4
:104EF000FB681B686FF010025A61FB6800221A639E
:104F0000FB68202283F83D20FB68002283F83E20C6
:104F1000FB681A6CFB681A64FB68002283F83C206B
:104F2000012330E0FEF762FA02467B68D31ABA68C2
:104F30009A4202D3BB68002B1DD1FB681B685B69DA
:104F400003F04003402B16D0FB6800221A63FB6875
:104F5000202283F83D20FB68002283F83E20FB6876
:104F60001B6C43F02002FB681A64FB68002283F884
:104F70003C20012307E0FB681B685B6903F04003EA
:104F8000402BAED1002318461037BD4680BD80B4FB
:104F900083B000AF78607B681B685B6903F4806353
:104FA000B3F5806F1BD17B681B686FF480625A6118
:104FB0007B6800221A637B68202283F83D207B688F
:104FC000002283F83E207B681B6C43F004027B6860
:104FD0001A647B68002283F83C20012300E0002350
:104FE00018460C37BD465DF8047B704780B483B02B
:104FF00000AF064B01221A60054B1B687B607B6883
:1050000000BF0C37BD465DF8047B704720000E42A0
:105010000070004080B483B000AF064B00221A60DD
:10502000054B1B687B607B6800BF0C37BD465DF895
:10503000047B704720000E420070004080B586B0AF
:1050400000AF78607B68002B01D1012367E27B68A9
:105050001B6803F00103002B75D0884B9B6803F09D
:105060000C03042B0CD0854B9B6803F00C03082B1E
:1050700012D1824B5B6803F48003B3F5800F0BD130
:105080007E4B1B6803F40033002B5BD07B685B68AE
:10509000002B57D1012342E27B685B68B3F5803F68
:1050A00006D1764B1B68754A43F4803313601DE0CC
:1050B0007B685B68B3F5A02F0CD1704B1B686F4AFF
:1050C00043F4802313606D4B1B686C4A43F48033B8
:1050D00013600BE0694B1B68684A23F4803313604C
:1050E000664B1B68654A23F4802313607B685B680A
:1050F000002B13D0FEF77AF9386108E0FEF776F955
:1051000002463B69D31A642B01D9032307E25B4BA8
:105110001B6803F40033002BF0D014E0FEF766F9AF
:10512000386108E0FEF762F902463B69D31A642B46
:1051300001D90323F3E1514B1B6803F40033002B27
:10514000F0D100E000BF7B681B6803F00203002B76
:1051500063D04A4B9B6803F00C03002B0BD0474BEA
:105160009B6803F00C03082B1CD1444B5B6803F4D1
:105170008003002B16D1414B1B6803F00203002B68
:1051800005D07B68DB68012B01D00123C7E13B4BD5
:105190001B6823F0F8027B681B69DB003749134367
:1051A0000B603AE07B68DB68002B20D0344B012297
:1051B0001A60FEF71BF9386108E0FEF717F902469E
:1051C0003B69D31A022B01D90323A8E12B4B1B689F
:1051D00003F00203002BF0D0284B1B6823F0F802E9
:1051E0007B681B69DB00254913430B6015E0244BEA
:1051F00000221A60FEF7FAF8386108E0FEF7F6F8C8
:1052000002463B69D31A022B01D9032387E11B4BCA
:105210001B6803F00203002BF0D17B681B6803F0CE
:105220000803002B36D07B685B69002B16D0154B2A
:1052300001221A60FEF7DAF8386108E0FEF7D6F8C6
:1052400002463B69D31A022B01D9032367E10B4BBA
:105250005B6F03F00203002BF0D01BE0094B002230
:105260001A60FEF7C3F838610EE0FEF7BFF8024699
:105270003B69D31A022B07D9032350E100380240BF
:1052800000004742800E4742884B5B6F03F00203E9
:10529000002BEAD17B681B6803F00403002B00F0AD
:1052A00097800023FB75814B1B6C03F08053002B10
:1052B0000FD10023BB607D4B1B6C7C4A43F08053B5
:1052C00013647A4B1B6C03F08053BB60BB680123F3
:1052D000FB75774B1B6803F48073002B18D1744B5C
:1052E0001B68734A43F480731360FEF77FF83861DC
:1052F00008E0FEF77BF802463B69D31A022B01D97E
:1053000003230CE16A4B1B6803F48073002BF0D07D
:105310007B689B68012B06D1644B1B6F634A43F08B
:10532000010313671CE07B689B68052B0CD15F4B66
:105330001B6F5E4A43F0040313675C4B1B6F5B4AB1
:1053400043F0010313670BE0584B1B6F574A23F0E0
:1053500001031367554B1B6F544A23F00403136773
:105360007B689B68002B15D0FEF740F838610AE097
:10537000FEF73CF802463B69D31A41F28832934269
:1053800001D90323CBE0494B1B6F03F00203002B31
:10539000EED014E0FEF72AF838610AE0FEF726F8AE
:1053A00002463B69D31A41F28832934201D9032362
:1053B000B5E03E4B1B6F03F00203002BEED1FB7DEB
:1053C000012B05D1394B1B6C384A23F080531364F1
:1053D0007B689B69002B00F0A180344B9B6803F035
:1053E0000C03082B5CD07B689B69022B41D1314BAD
:1053F00000221A60FDF7FAFF386108E0FDF7F6FFBA
:1054000002463B69D31A022B01D9032387E0274BBD
:105410001B6803F00073002BF0D17B68DA697B68AE
:105420001B6A1A437B685B6A9B011A437B689B6A11
:105430005B08013B1B041A437B68DB6A1B061B49A4
:1054400013434B601B4B01221A60FDF7CFFF3861FD
:1054500008E0FDF7CBFF02463B69D31A022B01D9C6
:1054600003235CE0114B1B6803F00073002BF0D0AA
:1054700054E0104B00221A60FDF7B8FF386108E0D5
:10548000FDF7B4FF02463B69D31A022B01D903236F
:1054900045E0064B1B6803F00073002BF0D13DE0A4
:1054A0007B689B69012B07D1012338E0003802405B
:1054B00000700040600047421B4B5B68FB607B68EC
:1054C0009B69012B28D0FB6803F480027B68DB69B1
:1054D0009A4221D1FB6803F03F027B681B6A9A4223
:1054E0001AD1FA6847F6C07313407A68526A92017B
:1054F000934211D1FB6803F440327B689B6A5B08DE
:10550000013B1B049A4207D1FB6803F070627B6881
:10551000DB6A1B069A4201D0012300E000231846F3
:105520001837BD4680BD00BF0038024080B584B04A
:1055300000AF786039607B68002B01D10123CCE09B
:10554000684B1B6803F007033A689A420CD9654B15
:105550003A68D2B21A70634B1B6803F007033A68CB
:105560009A4201D00123B8E07B681B6803F0020374
:10557000002B20D07B681B6803F00403002B05D0B0
:10558000594B9B68584A43F4E05393607B681B680F
:1055900003F00803002B05D0534B9B68524A43F499
:1055A00060439360504B9B6823F0F0027B689B68DC
:1055B0004D4913438B607B681B6803F00103002B8C
:1055C00044D07B685B68012B07D1474B1B6803F411
:1055D0000033002B19D101237FE07B685B68022B2D
:1055E00003D07B685B68032B07D13F4B1B6803F03C
:1055F0000073002B09D101236FE03B4B1B6803F0C4
:105600000203002B01D1012367E0374B9B6823F095
:1056100003027B685B68344913438B60FDF7E6FE49
:10562000F8600AE0FDF7E2FE0246FB68D31A41F299
:105630008832934201D903234FE02B4B9B6803F040
:105640000C027B685B689B009A42EBD1254B1B6880
:1056500003F007033A689A420CD2224B3A68D2B25E
:105660001A70204B1B6803F007033A689A4201D076
:10567000012332E07B681B6803F00403002B08D091
:10568000194B9B6823F4E0527B68DB68164913438F
:105690008B607B681B6803F00803002B09D0124B5A
:1056A0009B6823F460427B681B69DB000E4913434F
:1056B0008B6000F021F802460B4B9B681B0903F03E
:1056C0000F030A49CB5C22FA03F3094A1360094B22
:1056D0001B681846FDF746FE002318461037BD46E6
:1056E00080BD00BF003C024000380240B0E000082E
:1056F00004000020080000202DE9B04F90B000AF5A
:1057000000237B630023FB6300233B630023BB6315
:10571000594B9B6803F00C03082B0DD0082B00F2AB
:10572000A180002B02D0042B03D09BE0534BBB6322
:105730009BE0534BBB6398E04F4B5B6803F03F0328
:105740007B634D4B5B6803F48003002B28D04A4BEE
:105750005B689B0900223B627A623B6AC3F30800E4
:105760000021474B03FB01F2002300FB03F313442A
:10577000434AA0FB0212FA620A46BA62FA6A13446A
:10578000FB627B6B0022BB61FA61D7E90623D7E994
:105790000A01FBF729FA02460B461346FB6353E066
:1057A000354B5B689B0900223B617A613B69C3F31F
:1057B000080A4FF0000B52465B464FF000004FF0D6
:1057C0000001590141EAD261500102460B46B2EB99
:1057D0000A0863EB0B094FF000024FF000034FEA99
:1057E000891343EA98634FEA8812B2EB080463EB2B
:1057F00009054FF000024FF00003EB0043EA547339
:10580000E20014461D4614EB0A033B6045EB0B0314
:105810007B604FF000024FF00003D7E900452946B6
:105820008B02214643EA915321468A0210461946CB
:105830007B6B0022BB60FA60D7E90223FBF7D4F947
:1058400002460B461346FB630B4B5B681B0C03F0D5
:10585000030301335B003B63FA6B3B6BB2FBF3F377
:10586000BB6302E0054BBB6300BFBB6B1846403710
:10587000BD46BDE8B08F00BF003802400024F400F0
:1058800040787D0180B400AF034B1B681846BD46CD
:105890005DF8047B704700BF0400002080B500AFB6
:1058A000FFF7F0FF0246054B9B689B0A03F00703D6
:1058B0000349CB5C22FA03F3184680BD003802404E
:1058C000C0E0000880B500AFFFF7DCFF0246054BE3
:1058D0009B685B0B03F007030349CB5C22FA03F3DD
:1058E000184680BD00380240C0E0000880B582B094
:1058F00000AF78607B68002B01D1012341E07B6819
:1059000093F83D30DBB2002B06D17B68002283F890
:105910003C207868FDF7ECF97B68022283F83D2093
:105920007B681A687B6804331946104600F054FE01
:105930007B68012283F846207B68012283F83E20A1
:105940007B68012283F83F207B68012283F8402096
:105950007B68012283F841207B68012283F8422082
:105960007B68012283F843207B68012283F844206E
:105970007B68012283F845207B68012283F83D2063
:10598000002318460837BD4680BD80B582B000AF01
:1059900078607B68002B01D1012341E07B6893F89C
:1059A0003D30DBB2002B06D17B68002283F83C201F
:1059B000786800F039F87B68022283F83D207B6824
:1059C0001A687B6804331946104600F005FE7B68B0
:1059D000012283F846207B68012283F83E207B6801
:1059E000012283F83F207B68012283F840207B68F6
:1059F000012283F841207B68012283F842207B68E2
:105A0000012283F843207B68012283F844207B68CD
:105A1000012283F845207B68012283F83D20002382
:105A200018460837BD4680BD80B483B000AF7860AB
:105A300000BF0C37BD465DF8047B704780B584B06D
:105A400000AF786039603B68002B09D17B6893F820
:105A50003E30DBB2012B14BF01230023DBB222E076
:105A60003B68042B09D17B6893F83F30DBB2012BF4
:105A700014BF01230023DBB215E03B68082B09D1DA
:105A80007B6893F84030DBB2012B14BF0123002365
:105A9000DBB208E07B6893F84130DBB2012B14BF26
:105AA00001230023DBB2002B01D001237CE03B6803
:105AB000002B04D17B68022283F83E2013E03B6870
:105AC000042B04D17B68022283F83F200BE03B6863
:105AD000082B04D17B68022283F8402003E07B6816
