:020000040800F2
:100000000000022029370008F1340008F934000804
:10001000013500080935000811350008000000000E
:1000200000000000000000000000000011B0000807
:10003000193500080000000061B2000827350008EB
:1000400079370008793700087937000879370008D0
:1000500079370008413500087937000879370008FA
:1000600079370008793700087937000879370008B0
:1000700079370008793700087937000879370008A0
:100080007937000879370008793700087937000890
:100090007937000879370008793700087937000880
:1000A0007937000879370008793700087937000870
:1000B000793700087937000851350008793700088A
:1000C0007937000879370008793700087937000850
:1000D0007937000879370008793700086535000856
:1000E0007937000879370008793700087937000830
:1000F0007937000879370008793700087937000820
:10010000793700087937000879370008793700080F
:1001100079370008793700087937000879370008FF
:1001200079370008793700087937000879370008EF
:1001300079370008793700087937000879370008DF
:1001400079370008793700087937000879370008CF
:1001500079370008793700087937000879370008BF
:1001600079370008793700087937000879370008AF
:100170007937000879370008793700080000000057
:08018000793700087937000807
:1001900010B5054C237833B9044B13B10448AFF3C1
:1001A00000800123237010BDE0010020000000004A
:1001B000BCE8000808B5034B1BB103490348AFF383
:1001C000008008BD00000000E4010020BCE8000839
:1001D00001F0FF01102A2BDB10F0070F08D010F8F8
:1001E000013B013A8B422DD010F0070F42B3F6D1FC
:1001F000F0B441EA012141EA014122F007047FF015
:1002000000070023F0E80256083C85EA010586EA6B
:10021000010685FA47F5A3FA87F586FA47F6A5FAA7
:1002200087F68EB9EED1F0BC01F0FF0102F00702B3
:1002300032B110F8013B013A83EA010313B1F8D15E
:100240000020704701387047002D06BF354603383F
:10025000073815F0010F07D1013015F4807F02BF78
:10026000013015F4C03F0130F0BC0138704700BFC9
:10027000034613F8012B002AFBD1181A01387047E6
:1002800081F0004102E000BF83F0004330B54FEA47
:1002900041044FEA430594EA050F08BF90EA020FB4
:1002A0001FBF54EA000C55EA020C7FEA645C7FEA47
:1002B000655C00F0E2804FEA5454D4EB5555B8BF6A
:1002C0006D420CDD2C4480EA020281EA030382EADB
:1002D000000083EA010180EA020281EA0303362D6D
:1002E00088BF30BD11F0004F4FEA01314FF4801C40
:1002F0004CEA113102D0404261EB410113F0004F52
:100300004FEA03334CEA133302D0524263EB430308
:1003100094EA050F00F0A780A4F10104D5F1200EA6
:100320000DDB02FA0EFC22FA05F2801841F1000101
:1003300003FA0EF2801843FA05F359410EE0A5F1D5
:1003400020050EF1200E012A03FA0EFC28BF4CF006
:10035000020C43FA05F3C01851EBE37101F00045BC
:1003600007D54FF0000EDCF1000C7EEB00006EEBC9
:100370000101B1F5801F1BD3B1F5001F0CD3490853
:100380005FEA30004FEA3C0C04F101044FEA4452AA
:1003900012F5800F80F09A80BCF1004F08BF5FEA31
:1003A000500C50F1000041EB045141EA050130BD11
:1003B0005FEA4C0C404141EB0101013C28BFB1F523
:1003C000801FE9D291F0000F04BF01460020B1FA6E
:1003D00081F308BF2033A3F10B03B3F120020CDA41
:1003E0000C3208DD02F1140CC2F10C0201FA0CF01F
:1003F00021FA02F10CE002F11402D8BFC2F1200C84
:1004000001FA02F120FA0CFCDCBF41EA0C01904039
:10041000E41AA2BF01EB0451294330BD6FEA040482
:100420001F3C1CDA0C340EDC04F11404C4F120026D
:1004300020FA04F001FA02F340EA030021FA04F37F
:1004400045EA030130BDC4F10C04C4F1200220FAD6
:1004500002F001FA04F340EA0300294630BD21FA14
:1004600004F0294630BD94F0000F83F4801306BFDA
:1004700081F480110134013D4EE77FEA645C18BFCE
:100480007FEA655C29D094EA050F08BF90EA020F65
:1004900005D054EA000C04BF1946104630BD91EA5D
:1004A000030F1EBF0021002030BD5FEA545C05D160
:1004B0004000494128BF41F0004130BD14F580049F
:1004C0003CBF01F5801130BD01F0004545F0FE4113
:1004D00041F470014FF0000030BD7FEA645C1ABF48
:1004E000194610467FEA655C1CBF0B46024650EA7F
:1004F000013406BF52EA033591EA030F41F40021AB
:1005000030BD00BF90F0000F04BF0021704730B530
:100510004FF4806404F132044FF000054FF0000105
:1005200050E700BF90F0000F04BF0021704730B5C6
:100530004FF4806404F1320410F0004548BF40429B
:100540004FF000013EE700BF42004FEAE2014FEAF0
:1005500031014FEA02701FBF12F07F4393F07F4FCB
:1005600081F06051704732F07F4208BF704793F0CE
:100570007F4F04BF41F40021704730B54FF46074E1
:1005800001F0004521F000411CE700BF50EA0102E4
:1005900008BF704730B54FF000050AE050EA01028D
:1005A00008BF704730B511F0004502D5404261EBFD
:1005B00041014FF4806404F132045FEA915C3FF43E
:1005C000D8AE4FF003025FEADC0C18BF03325FEADB
:1005D000DC0C18BF033202EBDC02C2F1200300FA8C
:1005E00003FC20FA02F001FA03FE40EA0E0021FAB1
:1005F00002F11444BDE600BF70B54FF0FF0C4CF49F
:10060000E06C1CEA11541DBF1CEA135594EA0C0F50
:1006100095EA0C0F00F0DEF82C4481EA030621EA8B
:100620004C5123EA4C5350EA013518BF52EA0335C6
:1006300041F4801143F4801338D0A0FB02CE4FF078
:100640000005E1FB02E506F00042E0FB03E54FF0A8
:100650000006E1FB03569CF0000F18BF4EF0010EA0
:10066000A4F1FF04B6F5007F64F5407404D25FEA9C
:100670004E0E6D4146EB060642EAC62141EA55514F
:100680004FEAC52040EA5E504FEACE2EB4F1FD0C91
:1006900088BFBCF5E06F1ED8BEF1004F08BF5FEA0F
:1006A000500E50F1000041EB045170BD06F00046C1
:1006B00046EA010140EA020081EA0301B4EB5C046E
:1006C000C2BFD4EB0C0541EA045170BD41F4801166
:1006D0004FF0000E013C00F3AB8014F1360FDEBF8B
:1006E000002001F0004170BDC4F10004203C35DA67
:1006F0000C341BDC04F11404C4F1200500FA05F3EA
:1007000020FA04F001FA05F240EA020001F000428A
:1007100021F0004110EBD37021FA04F642EB060100
:100720005EEA430E08BF20EAD37070BDC4F10C042A
:10073000C4F1200500FA04F320FA05F001FA04F2EE
:1007400040EA020001F0004110EBD37041F10001DA
:100750005EEA430E08BF20EAD37070BDC4F12005E5
:1007600000FA05F24EEA020E20FA04F301FA05F24D
:1007700043EA020321FA04F001F0004121FA04F2F5
:1007800020EA020000EBD3705EEA430E08BF20EAC5
:10079000D37070BD94F0000F0FD101F000464000FF
:1007A00041EB010111F4801F08BF013CF7D041EA81
:1007B000060195F0000F18BF704703F00046520085
:1007C00043EB030313F4801F08BF013DF7D043EA56
:1007D0000603704794EA0C0F0CEA135518BF95EA0C
:1007E0000C0F0CD050EA410618BF52EA4306D1D193
:1007F00081EA030101F000414FF0000070BD50EAB2
:10080000410606BF1046194652EA430619D094EA3B
:100810000C0F02D150EA013613D195EA0C0F05D125
:1008200052EA03361CBF104619460AD181EA030179
:1008300001F0004141F0FE4141F470014FF0000031
:1008400070BD41F0FE4141F4780170BD70B54FF0CC
:10085000FF0C4CF4E06C1CEA11541DBF1CEA13554C
:1008600094EA0C0F95EA0C0F00F0A7F8A4EB05042E
:1008700081EA030E52EA03354FEA013100F0888025
:100880004FEA03334FF0805545EA131343EA1263EE
:100890004FEA022245EA111545EA10654FEA0026A3
:1008A0000EF000419D4208BF964244F1FD0404F55C
:1008B000407402D25B084FEA3202B61A65EB0305B8
:1008C0005B084FEA32024FF480104FF4002CB6EB75
:1008D000020E75EB030E22BFB61A754640EA0C00F5
:1008E0005B084FEA3202B6EB020E75EB030E22BF35
:1008F000B61A754640EA5C005B084FEA3202B6EB76
:10090000020E75EB030E22BFB61A754640EA9C0034
:100910005B084FEA3202B6EB020E75EB030E22BF04
:10092000B61A754640EADC0055EA060E18D04FEAC2
:10093000051545EA16754FEA06164FEAC30343EA62
:1009400052734FEAC2025FEA1C1CC0D111F4801F2F
:100950000BD141EA00014FF000004FF0004CB6E728
:1009600011F4801F04BF01430020B4F1FD0C88BFC7
:10097000BCF5E06F3FF6AFAEB5EB030C04BFB6EBD2
:10098000020C5FEA500C50F1000041EB045170BDC5
:100990000EF0004E4EEA113114EB5C04C2BFD4EBF2
:1009A0000C0541EA045170BD41F480114FF0000E76
:1009B000013C90E645EA060E8DE60CEA135594EAF2
:1009C0000C0F08BF95EA0C0F3FF43BAF94EA0C0FF5
:1009D0000AD150EA01347FF434AF95EA0C0F7FF46A
:1009E00025AF104619462CE795EA0C0F06D152EABE
:1009F00003353FF4FDAE1046194622E750EA4106A2
:100A000018BF52EA43067FF4C5AE50EA41047FF4B2
:100A10000DAF52EA43057FF4EBAE12E74FF0FF3C17
:100A200006E000BF4FF0010C02E000BF4FF0010CE8
:100A30004DF804CD4FEA410C7FEA6C5C4FEA430C61
:100A400018BF7FEA6C5C1BD001B050EA410C0CBFB0
:100A500052EA430C91EA030F02BF90EA020F002012
:100A6000704710F1000F91EA030F58BF994208BF79
:100A700090422CBFD8176FEAE37040F00100704736
:100A80004FEA410C7FEA6C5C02D150EA013C07D18D
:100A90004FEA430C7FEA6C5CD6D152EA033CD3D0D8
:100AA0005DF8040B704700BF8446104662468C46D2
:100AB0001946634600E000BF01B5FFF7B7FF002805
:100AC00048BF10F1000F01BD4DF808EDFFF7F4FF2E
:100AD0000CBF012000205DF808FB00BF4DF808EDB9
:100AE000FFF7EAFF34BF012000205DF808FB00BFDC
:100AF0004DF808EDFFF7E0FF94BF012000205DF8FE
:100B000008FB00BF4DF808EDFFF7CEFF94BF0120B2
:100B100000205DF808FB00BF4DF808EDFFF7C4FFAB
:100B200034BF012000205DF808FB00BF4FEA410CF4
:100B30007FEA6C5C02D150EA013C0AD14FEA430CD7
:100B40007FEA6C5C02D152EA033C02D14FF0000014
:100B500070474FF0010070474FEA410212F5001252
:100B600015D211D56FF47873B3EB625212D94FEAF4
:100B7000C12343F0004343EA505311F0004F23FADE
:100B800002F018BF404270474FF00000704750EA33
:100B9000013005D111F0004008BF6FF000407047F0
:100BA0004FF00000704700BF4A0011D212F500124A
:100BB00011D20DD56FF47873B3EB62520ED44FEAB5
:100BC000C12343F0004343EA505323FA02F0704735
:100BD0004FF00000704750EA013002D14FF0FF3073
:100BE00070474FF00000704753B94AB9002908BF59
:100BF00000281CBF4FF0FF314FF0FF3000F06AB902
:100C0000ADF1080C6DE904CE00F006F8DDF804E063
:100C1000DDE9022304B070472DE9F047089D0C463A
:100C2000002B4ED194468C458646B2FA82F262D9A8
:100C30004AB1C2F12003914020FA03F30CFA02FCFE
:100C4000194300FA02FE4FEA1C471FFA8CF6B1FB6B
:100C5000F7F44FEA1E4307FB141143EA014304FB78
:100C600006F199420AD91CEB030304F1FF3080F02E
:100C70001281994240F20F81023C6344591A1FFAD3
:100C80008EF3B1FBF7F007FB101143EA014300FBC1
:100C900006F69E420AD91CEB030300F1FF3180F0F7
:100CA000FC809E4240F2F980634402389B1B40EA7C
:100CB000044000211DB1D3400022C5E90032BDE847
:100CC000F0878B4205D90DB1C5E900010021084626
:100CD000F5E7B3FA83F1002946D1A34202D390424B
:100CE000C0F0F080861A64EB03030120002DE6D0EB
:100CF000C5E90063E3E7002A40F09080A1EB0C0413
:100D00004FEA1C481FFA8CF70121B4FBF8F64FEAB2
:100D10001E4308FB164443EA044307FB06F09842CF
:100D200008D91CEB030306F1FF3402D2984200F20B
:100D3000CD8026461C1A1FFA8EF3B4FBF8F008FB90
:100D4000104443EA044300FB07F79F4208D91CEB19
:100D5000030300F1FF3402D29F4200F2B08020462C
:100D6000DB1B40EA0640A5E7C1F120068B4022FAD2
:100D700006F71F4320FA06FC04FA01F343EA0C03CA
:100D8000F44000FA01F8380C4FEA1349B4FBF0FEC6
:100D90001FFA87FC00FB1E4449EA04440EFB0CF9D1
:100DA000A14502FA01F20AD93C190EF1FF3A80F08E
:100DB0008480A14540F28180AEF1020E3C44A4EB58
:100DC00009041FFA83F9B4FBF0F300FB134449EA6A
:100DD000044403FB0CFCA44507D93C1903F1FF3084
:100DE00067D2A44565D9023B3C4443EA0E40A0FBD0
:100DF0000293A4EB0C049C42CE469C4651D34ED0A9
:100E000055B1B8EB0E0364EB0C0404FA06F6CB40C4
:100E10001E43CC40C5E90064002150E7C2F1200325
:100E200020FA03F10CFA02FC24FA03F394400C4379
:100E30004FEA1C4800FA02FE1FFA8CF7B3FBF8F0E9
:100E400008FB1031230C43EA014300FB07F19942F0
:100E500008D91CEB030300F1FF362CD299422AD9A2
:100E6000023863445B1AA4B2B3FBF8F108FB1133F8
:100E700044EA034401FB07F3A34208D91CEB040432
:100E800001F1FF3613D2A34211D902396444E41AA6
:100E900041EA004139E70446F0E6084606E7C8455E
:100EA000AED2B9EB020E63EB070C0138A8E731466E
:100EB000EDE7034699E73046D4E7D6467FE763443B
:100EC00002384DE70646234608460FE7023E6344D4
:100ED00030E700BF704700BF80B400AFBFF34F8F53
:100EE00000BF064BDB6803F4E0620449044B134384
:100EF000CB60BFF34F8F00BF00BFFDE700ED00E008
:100F00000400FA0580B500AF02F038FC00F09AF852
:100F100000F036FC00F060FB00F062FA00F0C2F96D
:100F200000F004FC00F0B0FA00F08EF900F000FBD5
:100F300000F0E6F800F036F90AF0ECFD07F0C6FE26
:100F4000254A0021254807F00BFF0346244A136079
:100F5000244A0021244807F003FF0346234A136074
:100F6000234A0021234807F0FBFE0346224A136070
:100F7000224A0021224807F0F3FE0346214A13606B
:100F8000214A0021214807F0EBFE0346204A136066
:100F9000204A0021204807F0E3FE03461F4A136061
:100FA0001F4A00211F4807F0DBFE03461E4A13605C
:100FB0001E4A00211E4807F0D3FE03461D4A136057
:100FC0001D4A00211D4807F0CBFE03461C4A136052
:100FD00007F0A0FE00BFFDE7D8E90008B92200082D
:100FE00090040020FCE90008DD22000894040020A1
:100FF00020EA00086D2300089804002044EA000855
:10100000FD2300089C04002068EA00083927000836
:10101000A00400208CEA000811290008A404002084
:10102000B0EA0008692D0008A8040020D4EA0008EE
:10103000212F0008AC040020F8EA0008452F000822
:10104000B004002080B594B000AF07F12003302237
:10105000002118460BF067FB07F10C0300221A6011
:101060005A609A60DA601A610023BB60224B1B6CE5
:10107000214A43F0805313641F4B1B6C03F08053D1
:10108000BB60BB6800237B601C4B1B681B4A43F49E
:1010900080431360194B1B6803F480437B607B68BB
:1010A00002233B620123FB6210233B630023BB63EB
:1010B00007F12003184604F08DFB0346002B01D0F6
:1010C00001F04DFF0F23FB6000233B6100237B6198
:1010D0000023BB610023FB6107F10C0300211846CC
:1010E00004F0F0FD0346002B01D001F038FF00BFF3
:1010F0005037BD4680BD00BF003802400070004040
:1011000080B584B000AF3B4600221A605A609A60F6
:10111000DA60214B214A1A601F4B00225A601E4B95
:1011200000229A601C4B00221A611B4B00221A7687
:10113000194B002283F82020174B0022DA62164B4D
:10114000174A9A62144B0022DA60134B0122DA61CB
:10115000114B002283F830200F4B01225A610E48B8
:1011600002F0A2FB0346002B01D001F0F8FE0B2396
:101170003B6001237B600023BB603B461946064869
:1011800002F074FD0346002B01D001F0E8FE00BF21
:101190001037BD4680BD00BFFC010020002001408B
:1011A0000100000F80B584B000AF3B4600221A60FA
:1011B0005A609A60DA60214B214A1A601F4B002264
:1011C0005A601E4B00229A601C4B00221A611B4B76
:1011D00000221A76194B002283F82020174B002298
:1011E000DA62164B174A9A62144B0022DA60134BEC
:1011F0000122DA61114B002283F830200F4B0122CB
:101200005A610E4802F050FB0346002B01D001F05A
:10121000A6FE0C233B6001237B600023BB603B46A2
:101220001946064802F022FD0346002B01D001F0CA
:1012300096FE00BF1037BD4680BD00BF44020020AF
:10124000002101400100000F80B500AF124B134A8E
:101250001A60114B124A5A600F4B00229A600E4BD3
:101260000022DA600C4B4FF480421A610A4B0022D4
:101270005A61094B00229A61074B0022DA61064B42
:1012800000221A62044803F083FA0346002B01D0BF
:1012900001F065FE00BF80BD8C02002000540040BC
:1012A000A086010080B596B000AF07F14803002288
:1012B0001A605A609A60DA6007F1400300221A60EF
:1012C0005A6007F1240300221A605A609A60DA60BB
:1012D0001A615A619A613B1D2022002118460BF0C9
:1012E00022FA3D4B3D4A1A603B4BA0225A603A4BD2
:1012F00000229A60384B4FF47A72DA60364B002243
:101300001A61354B00225A61334B80229A61324870
:1013100004F0B8FE0346002B01D001F020FE4FF48C
:101320008053BB6407F1480319462B4805F014FDB0
:101330000346002B01D001F012FE274804F0F1FE15
:101340000346002B01D001F00AFE00233B6400237A
:101350007B6407F1400319461F4806F077FA0346FD
:10136000002B01D001F0FBFD60237B620023BB62F8
:101370000023FB6200237B630023BB630023FB632A
:1013800007F124030C221946134805F023FC0346F9
:10139000002B01D001F0E3FD00237B600023BB6044
:1013A0000023FB6000233B6100237B614FF400536B
:1013B000BB6100233B623B1D1946074806F0C2FA99
:1013C0000346002B01D001F0CAFD034802F006F8E5
:1013D00000BF5837BD4680BDE0020020000001403C
:1013E00080B58CB000AF07F10C0324220021184611
:1013F0000BF099F93B1D00221A605A60214B4FF007
:1014000080421A601F4B00225A601E4B00229A60D5
:101410001C4B4FF6FF72DA601A4B00221A61194B0F
:1014200000229A610323FB6000233B6101237B615F
:101430000023BB610A23FB6100233B6201237B6223
:101440000023BB620A23FB6207F10C0319460D4817
:1014500005F000F90346002B01D001F080FD0023C8
:101460007B600023BB603B1D1946064806F0EEF981
:101470000346002B01D001F072FD00BF3037BD469E
:1014800080BD00BF2803002080B58CB000AF07F1FD
:101490000C032422002118460BF045F93B1D0022C5
:1014A0001A605A60204B214A1A601F4B00225A6072
:1014B0001D4B00229A601C4B4FF6FF72DA601A4BEC
:1014C00000221A61184B00229A610323FB6000235B
:1014D0003B6101237B610023BB610A23FB61002385
:1014E0003B6201237B620023BB620A23FB6207F19C
:1014F0000C0319460C4805F0ADF80346002B01D04B
:1015000001F02DFD00237B600023BB603B1D1946CD
:10151000054806F09BF90346002B01D001F01FFDA2
:1015200000BF3037BD4680BD70030020000400407E
:1015300080B586B000AF07F1100300221A605A6030
:101540003B4600221A605A609A60DA60204B214ABA
:101550001A601F4B0F225A601D4B00229A601C4BD1
:101560004FF6FF72DA601A4B00221A61184B002204
:101570009A61174804F0F6FE0346002B01D001F0F3
:10158000EEFC00233B6100237B6107F11003194649
:101590000F4806F05BF90346002B01D001F0DFFC99
:1015A00000233B6001237B600023BB600023FB60C2
:1015B0003B4600221946064805F070FA0346002B08
:1015C00001D001F0CCFC00BF1837BD4680BD00BF84
:1015D000B80300200008004080B596B000AF07F1C6
:1015E000480300221A605A609A60DA6007F14003EB
:1015F00000221A605A6007F1240300221A605A6020
:101600009A60DA601A615A619A613B1D20220021BA
:1016100018460BF088F8434B434A1A60414B0022AE
:101620005A60404B00229A603E4B41F61F42DA60FE
:101630003C4B00221A613B4B00225A61394B00227D
:101640009A61384804F01EFD0346002B01D001F0DA
:1016500086FC4FF48053BB6407F1480319463148B8
:1016600005F07AFB0346002B01D001F078FC2D48F1
:1016700004F057FD0346002B01D001F070FC00235D
:101680003B6400237B6407F140031946254806F0BC
:10169000DDF80346002B01D001F061FC60237B6282
:1016A0000023BB620023FB6200233B6300237B63B8
:1016B0000023BB630023FB6307F1240300221946C8
:1016C000184805F087FA0346002B01D001F047FCCB
:1016D00007F1240304221946124805F07BFA034659
:1016E000002B01D001F03BFC00237B600023BB609A
:1016F0000023FB6000233B6100237B614FF4005318
:10170000BB6100233B623B1D1946064806F01AF9EF
:101710000346002B01D001F022FC00BF5837BD4624
:1017200080BD00BF000400200004014080B500AF70
:10173000114B124A1A60104B4FF4E1325A600E4BB3
:1017400000229A600C4B0022DA600B4B00221A61D7
:10175000094B0C225A61084B00229A61064B002269
:10176000DA61054806F054F90346002B01D001F078
:10177000F6FB00BF80BD00BF4804002000480040C9
:1017800080B58CB000AF07F11C0300221A605A60CC
:101790009A60DA601A610023BB61494B1B6B484AAF
:1017A00043F010031363464B1B6B03F01003BB6144
:1017B000BB6900237B61424B1B6B414A43F08003B2
:1017C00013633F4B1B6B03F080037B617B6900233A
:1017D0003B613B4B1B6B3A4A43F004031363384BAA
:1017E0001B6B03F004033B613B690023FB60344B3C
:1017F0001B6B334A43F001031363314B1B6B03F044
:101800000103FB60FB680023BB602D4B1B6B2C4A64
:1018100043F0080313632A4B1B6B03F00803BB6000
:10182000BB6800237B60264B1B6B254A43F00203F9
:101830001363234B1B6B03F002037B607B68002266
:101840004FF4BC611F4802F06FFF00223C211E488C
:1018500002F06AFF00224FF400511C4802F064FFBE
:101860004FF4BC63FB6101233B6200237B620023D6
:10187000BB6207F11C031946124802F0B9FD3C2374
:10188000FB6101233B6200237B620223BB6207F101
:101890001C0319460C4802F0ABFD4FF40053FB61EA
:1018A00001233B6200237B620023BB6207F11C0320
:1018B0001946064802F09CFD00BF3037BD4680BD8A
:1018C000003802400010024000000240000C0240BC
:1018D00080B483B000AF7860044B01221A6000BF6F
:1018E0000C37BD465DF8047B704700BFB404002090
:1018F00080B582B000AF87ED000B31A3D3E90023A0
:10190000D7E90001FEF778FE02460B46C7E900233F
:10191000234B92221A804FF4E17007F0B3FA214B67
:1019200000221A60204B00221A60204B204A1A60C5
:10193000204B1F4A1A60204B1D4A1A601F4B1C4A3D
:101940001A601D4B1B681846FEF7ECFDD7E9002313
:10195000FEF79CFC02460B4610461946FFF7FCF8C2
:101960000346154A1360154B1B681846FEF7DAFD4F
:10197000D7E90023FEF78AFC02460B4610461946BB
:10198000FFF7EAF803460D4A136000BF00F084F940
:101990000346002BFAD100BF00BF0837BD4680BD0B
:1019A00000000020D0040020CC040020D804002037
:1019B000F8240100DC040020E0040020E4040020FE
:1019C0000000000000C0524080B582B000AF87ED3B
:1019D000000B124BFA221A804FF4E17007F052FA12
:1019E0000F4B00221A600F4B00221A600E4BD3E9F6
:1019F0000001D7E90023FEF747FC02460B460A49DF
:101A0000C1E9002300BF00F047F90346002BFAD1DB
:101A100000BF00BF0837BD4680BD00BF00000020EA
:101A2000D0040020CC040020E804002080B582B05F
:101A300000AF87ED000B124B54221A804FF4E17077
:101A400007F020FA0F4B00221A600F4B00221A6099
:101A50000E4BD3E90001D7E90023FEF717FC02463D
:101A60000B460A49C1E9002300BF00F015F90346FF
:101A7000002BFAD100BF00BF0837BD4680BD00BFB4
:101A800000000020D0040020CC040020E804002046
:101A900080B582B000AF786039603B68002B18D009
:101AA0007B68002B0ADD01221021354802F03CFE44
:101AB00000222021324802F037FE22E000221021CD
:101AC0002F4802F031FE012220212D4802F02CFE89
:101AD00017E07B68002B0ADD01220821284802F06C
:101AE00023FE00220421264802F01EFE09E0002207
:101AF0000821234802F018FE01220421204802F0A8
:101B000013FE7B68002BB8BF5B427B607B68B3F53C
:101B1000FA6F02DD40F6B8332DE07B68B3F5FA7F4B
:101B200002DD4FF4FA6326E07B68C82B02DD4FF438
:101B3000AF6320E07B68642B02DD4FF47A731AE018
:101B40007B68022B07DD0F4B1B6801330D4A1360C6
:101B50004FF4FA730FE07B68002B06DD094B1B681E
:101B60000133084A1360002305E0064B1B6801336C
:101B7000044A1360002318460837BD4680BD00BFE5
:101B800000000240CC04002080B586B000AF87ED95
:101B9000020B78604FF000023C4BD7E90201FEF7E0
:101BA0002BFD02460B4610461946FEF7D5FF0346AD
:101BB0007B617B68002B18D07B69002B0ADD01223A
:101BC0001021334802F0B0FD00222021304802F0FD
:101BD000ABFD22E0002210212D4802F0A5FD0122DC
:101BE00020212B4802F0A0FD17E07B69002B0ADAC8
:101BF00001220821264802F097FD002204212448F2
:101C000002F092FD09E000220821214802F08CFD3B
:101C1000012204211E4802F087FD7B69002BB8BF1A
:101C20005B427B617B69B3F5967F02DD40F6B8339A
:101C300028E07B69C82B02DD4FF4FA6322E07B6960
:101C4000962B02DD4FF4C8631CE07B69642B02DD38
:101C50004FF4AF6316E07B690A2B02DD4FF47A7311
:101C600010E07B69012B07DD0A4B1B680133094A31
:101C700013604FF4167305E0064B1B680133054AE9
:101C80001360002318461837BD4680BD000024406D
:101C900000000240CC04002080B500AF104B1B6850
:101CA000142B1ADD0F4B01221A600F4B00221A80F1
:101CB0000D4B1A880D4B1A800D4B1B680D4A136093
:101CC0000D4B1B680D4A1360054B00221A604FF440
:101CD000967007F0D7F8002300E00123184680BD76
:101CE000CC040020D0040020C8040020CA04002036
:101CF000DC040020E4040020D8040020E0040020DC
:101D000080B584B002AF03463960FB710E4AFB799F
:101D100013700E4B1B785B0099B20A2300930123CA
:101D2000094A0B4802F078FE084B1B785B0099B219
:101D30001423009302233A68054802F06BFF00BFAA
:101D40000837BD4680BD00BFF80400200200002017
:101D50008C02002080B584B002AF03460A46FB71B6
:101D60001346BB710A4AFB791370094ABB79537059
:101D7000084B1B785B0099B2142300930223044A9A
:101D8000054802F049FE00BF0837BD4680BD00BFD0
:101D9000F8040020020000208C02002080B500AF73
:101DA00000210620FFF7D6FF0A2007F06BF88021FC
:101DB0000320FFF7CFFF0A2007F064F80721072070
:101DC000FFF7C8FF0A2007F05DF801210620FFF7A2
:101DD000C1FF0A2007F056F820217F20FFF7BAFF45
:101DE0000A2007F04FF82F210120FFF7B3FF0A2048
:101DF00007F048F800210020FFF7ACFF0A2007F0A9
:101E000041F800217F20FFF7A5FF0A2007F03AF8EC
:101E100000210720FFF79EFF0A2007F033F800BFDC
:101E200080BD000080B483B000AF0346FB80094B47
:101E30001B6800225A6200BF064B1B685A6AFB8867
:101E40009A42F9D300BF00BF0C37BD465DF8047B52
:101E5000704700BFB803002080B500AF01224FF4E7
:101E600000510B4802F060FC0A20FFF7DBFF002264
:101E70004FF40051064802F057FC064B1B68DA6825
:101E8000044B1B6842F00202DA6000BF80BD00BF55
:101E9000000C0240B803002080B582B000AF78602B
:101EA0007B681B7F012B40F08480474B1B68002B15
:101EB0001BD10021786805F017F803461A46434BFA
:101EC0001A60414B01221A607B681B681A6A7B68A2
:101ED0001B6822F00A021A627B681B681A6A7B6818
:101EE0001B6842F002021A6263E0374B1B68012B49
:101EF0005FD10021786804F0F7FF03461A46344B9F
:101F00001A607B681B6800225A62314B1A682F4B9B
:101F10001B689A420DDD2E4B1A682C4B1B68D31A96
:101F20001846FEF7FFFA02460B462A49C1E900238C
:101F30000FE0264B1B68C3F57F43FF33244A12682A
:101F400013441846FEF7EEFA02460B462149C1E952
:101F50000023204BD3E9000119A3D3E90023FEF7A6
:101F60004BFB02460B46104619464FF000024FF05D
:101F70008043FEF76BFC02460B461749C1E900237C
:101F8000114B00221A607B681B681A6A7B681B6809
:101F900022F00A021A627B681A687B681B68126A60
:101FA0001A620E4B1B68DA680C4B1B6822F00202A7
:101FB000DA6000BF0837BD4680BD00BFAFF30080C8
:101FC000006F8104C58FA13F100500202805002067
:101FD0002C0500202005002018050020B803002053
:101FE000B0B500AF384801F0A3FC6421364801F0D9
:101FF000A4FD354801F02CFE03469AB2334B1A80FB
:10200000314801F067FD314B1B881846FEF78AFA0C
:1020100025A3D3E90023FEF7EFFA02460B46144648
:102020001D462B4B1B881846FEF77CFA20A3D3E9EC
:102030000023FEF7E1FA02460B4620462946FEF74A
:1020400025F902460B4610461946FEF7ADFD03463C
:102050009AB21F4B1A801E4B1B88B3F5E17F03D247
:102060001C4B65221A801AE0194B1B881846FEF794
:1020700059FA11A3D3E90023FEF706F902460B46ED
:102080000FA1D1E90001FEF7E1FB02460B46104625
:102090001946FEF789FD03469AB20E4B1A8000BF1F
:1020A000B0BD00BFAFF30080333333333333C33FAE
:1020B000333333333333EB3F5C8FC2F52854654001
:1020C000295C8FC21565DC40FC0100203005002032
:1020D0003405002038050020B0B500AF384801F0C5
:1020E00027FC6421364801F028FD354801F0B0FD99
:1020F00003469AB2334B1A80314801F0EBFC314B66
:102100001B881846FEF70EFA25A3D3E90023FEF735
:1021100073FA02460B4614461D462B4B1B88184685
:10212000FEF700FA20A3D3E90023FEF765FA024682
:102130000B4620462946FEF7A9F802460B461046F4
:102140001946FEF731FD03469AB21F4B1A801E4B0B
:102150001B88B3F5E17F03D21C4B65221A801AE07D
:10216000194B1B881846FEF7DDF911A3D3E90023AC
:10217000FEF78AF802460B460FA1D1E90001FEF7EF
:1021800065FB02460B4610461946FEF70DFD034659
:102190009AB20E4B1A8000BFB0BD00BFAFF30080F3
:1021A000333333333333C33F333333333333EB3F9F
:1021B000A4703D0AD7B3604085EB51B84E79DD403D
:1021C0004402002032050020360500203A05002098
:1021D00080B500AF304B01221A60304B01221A60EB
:1021E0002F4B92221A80012208212E4802F09CFADD
:1021F000002204212B4802F097FA012210212948DD
:1022000002F092FA00222021264802F08DFA25E001
:10221000254B1B68282B08DD244B40F6B8321A806A
:10222000234B40F6B8321A8018E01F4B1B681E2B58
:1022300008DD1E4B40F2A4621A801D4B40F2A462DE
:102240001A800BE0184B1B68152B07DD174B4FF45A
:10225000FA721A80164B4FF4FA721A80124B1B68EE
:10226000152BD5DC134B01221A6040F6B83006F06E
:1022700009FE094B00221A609FED050BFFF738FBA2
:102280000A2006F0FFFD00BF80BD00BFAFF3008055
:10229000000000000000F03FD40400200C050020E6
:1022A000000000200000024014050020CA040020A5
:1022B000C8040020D004002080B582B000AF786050
:1022C0004FF48061044802F048FA4FF47A7006F047
:1022D000D9FD00BFF4E700BF0010024080B586B012
:1022E00000AF78603C211F4804F05AFA01237B615B
:1022F00001F0AAFAF86001F0A7FA0246FB68D31AC7
:102300000A2B2AD9174B1B685B6ABB60BB68B3F505
:10231000FA4F06DD01237B61BB68C3F580333B6167
:1023200004E04FF0FF337B61BB683B617B69012BAD
:1023300006D10D4B1A683B69D31A0B4A136005E0AE
:10234000094B1A683B691344074A1360054B1B6825
:1023500000225A6201F078FAF860322006F092FD0D
:10236000C9E700BF70030020D804002080B586B004
:1023700000AF78603C211F4804F012FA01237B6112
:1023800001F062FAF86001F05FFA0246FB68D31AC6
:102390000A2B2AD9174B1B685B6ABB60BB68B3F575
:1023A000FA4F06DD01237B61BB68C3F580333B61D7
:1023B00004E04FF0FF337B61BB683B617B69012B1D
:1023C00006D10D4B1A683B6913440B4A136005E0B4
:1023D000094B1A683B69D31A074A1360054B1B68FF
:1023E00000225A6201F030FAF860322006F04AFD0D
:1023F000C9E700BF28030020DC04002080B588B0B6
:1024000000AF78604123BB6149233B6100237B61BE
:102410004F23BB810023FB61A14BA24A92E803003A
:1024200018600433198005229D499F4805F0CBFBB5
:102430009E4B1B68012B40F05C819D4B00221A6073
:10244000974B1B78522B0FD1954B5B78452B0BD1BB
:10245000934B9B78532B07D1914BDB78452B03D1C2
:102460008F4B1B79542B44D08D4B1B78462B03D0BC
:102470008B4B1B78422B23D1894B5B78532B07D096
:10248000874B5B78522B03D0854B5B784C2B17D155
:10249000834B9B782F2B13D9814B9B78392B0FD8EB
:1024A0007F4BDB782F2B0BD97D4BDB78392B07D873
:1024B0007B4B1B792F2B03D9794B1B79392B18D9DF
:1024C000774B1B78532B40F0FF80754B5B78542B78
:1024D00040F0FA80724B9B78452B40F0F580704BB2
:1024E000DB78502B40F0F0806D4B1B79312B40F0A6
:1024F000EB806D4805F08CFB694B9B78452B1DD01C
:10250000674B9B78303B642202FB03F1644BDB7822
:10251000A3F1300213469B0013445B00CA18604BC2
:102520001B79303B1344624A13605D4B1B78422B8E
:1025300004D15F4B1B685B425D4A13600A2006F0C2
:10254000A1FC574B1B78532B1DD1554B5B78542B5B
:1025500019D1534B9B78452B15D1514BDB78502B20
:1025600011D14F4B1B79312B0BD1FFF731FE4C4B67
:10257000504A92E803001860043319804B4B002244
:102580001A600123FB61FB69002B40F08680444BFD
:102590005B78453B0E2B00F2808001A252F823F0BD
:1025A000732600089B2600089B2600089B2600082F
:1025B0009B2600089B2600089B2600084126000851
:1025C0009B2600089B2600089B2600089B260008E7
:1025D0009B2600080F260008DD250008344B1B68E9
:1025E0001846FDF79FFF02460B4643EC102BFFF702
:1025F0007FF92B4B304A92E80300186004331980AE
:102600002E4B01221A600A2006F03CFC45E0284BC4
:102610001B681846FDF786FF02460B4643EC102B5D
:10262000FFF7D2F91E4B244A92E8030018600433E6
:102630001980224B01221A600A2006F023FC2CE0AC
:102640001B4B1B681846FDF76DFF02460B4643EC1B
:10265000102BFFF7EBF9124B174A92E803001860B2
:1026600004331980154B01221A600A2006F00AFC77
:1026700013E00B4B124A92E80300186004331980F0
:102680004FF6FF7302220F49074805F011FA4FF485
:10269000FA7006F0F7FBFEF71FFC0023FB6128E051
:1026A000B804002048E9000848040020B4040020D1
:1026B000C404002050E9000858E90008C0040020C4
:1026C00060E9000868E90008164B174A92E8030021
:1026D0001860043319800A2006F0D4FB07F11001BA
:1026E0004FF6FF730822114805F0E2F9104B002263
:1026F0001A60104B1B68012B10D10D4B00221A6081
:102700000A2006F0BFFB07F118014FF6FF73042201
:10271000064805F0CDF9074B00221A600A2006F0A2
:10272000B1FB80E6B80400206CE9000848040020F2
:10273000B4040020C0040020B0B5A0B004AF78609D
:102740000023BB6507F15C0300221A605A609A609F
:10275000DA6000237B6407F1480300221A605A60A4
:102760009A60DA6000233B6307F1340300221A60A9
:102770005A609A60DA600023FB6107F120030022AF
:102780001A605A609A60DA600023BB6007F10C039C
:1027900000221A605A609A60DA604F4BD3E9004514
:1027A0004D4BD3E9002310461946FEF7D5F90346F1
:1027B0001846FDF7B7FE02460B4620462946FDF7B0
:1027C00063FD02460B46104619464FF00002434B8C
:1027D000FDF712FF02460B4610461946FEF7BCF9FC
:1027E0000346002BB8BF5B42FB663B4BD3E900239B
:1027F00010461946FEF7B0F9024607F15800FB6E85
:10280000374909F02DFF07F158031A46002100202F
:1028100009F04EF9334B1B781C46324B5B781D4652
:10282000304B9B781A462F4BDB7819462D4B1B7982
:1028300007F144000293019100922B4622462A4957
:1028400009F00EFF07F144031A460A21002009F09F
:102850002FF9264BD3E9002310461946FEF77CF9E1
:102860000346234A1360224B1A6807F130032149BB
:10287000184609F0F5FE07F130031A46142100202E
:1028800009F016F91C4B1B881A461C4B1B8807F1D4
:102890001C001B4909F0E4FE07F11C031A461E2127
:1028A000002009F005F9174B1B881A46164B1B88A8
:1028B00007F10800154909F0D3FE07F108031A468D
:1028C0002821002009F0F4F808F07EFF642006F0CB
:1028D000D9FA00BF61E700BFF004002000408F403C
:1028E00074E90008B804002084E9000818050020F5
:1028F0001405002094E90008340500203805002064
:10290000A0E90008360500203A050020B0E90008DB
:1029100080B586B000AF7860AF4B00221A80AF4B15
:1029200000221A8000237B610021AD4803F052FC95
:102930000421AB4803F04EFC0C21AA4803F04AFCEA
:10294000A84B1B6892221A6401221021A64801F0AC
:10295000EBFE00222021A44801F0E6FE012208211E
:10296000A14801F0E1FE002204219F4801F0DCFEB5
:102970004FF47A7006F086FA9C4B1A88994B1B68C4
:102980001A649B4B1B68012B00F0A581994BD3E97E
:102990000001994BD3E90023FDF776FC02460B4674
:1029A000C7E90223914B1B887E2B4CD8012097ED61
:1029B000020BFFF7E9F803461846FDF7B3FD82A3C3
:1029C000D3E90023FDF718FE02460B4610461946D0
:1029D000FEF7EAF803469AB27F4B1A807E4B1B88BB
:1029E0001846FDF79FFD7AA3D3E90023FDF704FE07
:1029F00002460B4610461946FEF7D6F803469AB231
:102A0000764B1A804FF000024FF00003D7E9020125
:102A1000FEF782F80346002B0AD0012208217248F3
:102A200001F082FE002204216F4801F07DFE52E198
:102A3000002208216C4801F077FE012204216A4837
:102A400001F072FE47E1694B1B88BD2B3DD9002088
:102A500097ED020BFFF798F803469AB25F4B1A8086
:102A60005E4B1B881846FDF75DFD59A3D3E9002393
:102A7000FDF7C2FD02460B4610461946FEF794F8D4
:102A800003469AB2544B1A804FF000024FF00003F5
:102A9000D7E90201FEF722F80346002B0AD00122F3
:102AA0001021514801F040FE002220214E4801F043
:102AB0003BFE10E1002210214B4801F035FE0122BF
:102AC0002021494801F030FE05E14C4B1A684C4B7F
:102AD0001B68D31A00211846FEF7DAFF0346184692
:102AE000FDF720FD38A3D3E90023FDF785FD02465D
:102AF0000B4610461946FEF757F803469AB2364B76
:102B00001A803E4B1A683E4B1B68D31A83EAE37265
:102B1000A2EBE3723B4B19683B4B1B68CB1A002BB3
:102B2000B8BF5B429A4203DD7B6901337B6102E0FF
:102B30007B69013B7B61314B1A68314B1B68D31AAF
:102B400013F1630F08DB2D4B1A682D4B1B68D31A4A
:102B5000632B01DC00237B612A4B1A682A4B1B681C
:102B6000D31A01211846FEF793FF03469AB27B69F8
:102B70009BB213449AB2194B1A80204B1A68204B0F
:102B80001B68D31A002B65DA4FF000024FF0804328
:102B9000D7E90201FDF7C0FF0346002B03D0134B1A
:102BA000A5221A8097E04FF000024FF04043D7E98A
:102BB0000201FDF793FF0346002B27D00B4B7F222A
:102BC0001A8088E0AFF30080F4FDD478E926F13F65
:102BD000E17A14AE47E1E23FC8040020CA040020B5
:102BE00000040020E002002000000240000000205D
:102BF000D4040020E8040020F0040020E4040020B5
:102C0000DC040020E0040020D80400204FF0000283
:102C1000464BD7E90201FDF7EFFC02460B46104692
:102C200019464FF00002424BFDF710FE02460B46DC
:102C3000104619464FF000023E4BFDF727FB0246B7
:102C40000B4610461946FDF7AFFF03469AB23A4BC2
:102C50001A8040E04FF000024FF08043D7E90201B4
:102C6000FDF75AFF0346002B03D0334B7F221A8017
:102C700031E04FF000024FF04043D7E90201FDF789
:102C80002DFF0346002B03D02B4BA5221A8022E0F8
:102C90004FF00002294BD7E90201FDF7ADFC0246D7
:102CA0000B46104619464FF00002214BFDF7CEFDB2
:102CB00002460B46104619464FF000021D4BFDF729
:102CC000E5FA02460B4610461946FDF76DFF03462E
:102CD0009AB2194B1A801A4B1B68002B0ED0194B55
:102CE00000221A80174B1A88174B1A80174B1B6843
:102CF000174A1360174B1B68174A1360124B1A8848
:102D0000164B1B685A630F4B1A88144B1B689A6347
:102D10000A2006F0B7F8124B1B68B3F57A7F7FF7ED
:102D20002BAE0F4B40F2E9321A6025E6000033402B
:102D3000000014400040624000000020000033C04A
:102D4000D0040020C8040020CA040020DC040020B5
:102D5000E4040020D8040020E00400200004002047
:102D6000CC04002000000000B0B58AB000AF78604D
:102D7000FFF714F800233B8100237B8100237B6253
:102D80004FF000024FF00003C7E906234FF00002A6
:102D90004FF00003C7E904230023FB605E494FF0B6
:102DA00000024FF00003C1E90023322006F06AF868
:102DB00048E0012006F066F807F1080319463720BD
:102DC000FEF79EFF7B7A1AB23B7A1B021BB21343BB
:102DD0007B81B7F90A301846FDF7A4FB04460D467F
:102DE00000F032FD02467B6AD31A1846FDF78AFBD3
:102DF00047A3D3E90023FDF729FD02460B462046F1
:102E00002946FDF7F9FB02460B46D7E90401FDF719
:102E10003DFA02460B46C7E90423B7F90A301846C3
:102E2000FDF780FB02460B46D7E90601FDF72EFAB7
:102E300002460B46C7E9062300F006FD7862FB68F0
:102E40000133FB60FB68B3F57A7FB2DBF868FDF70E
:102E500069FB02460B46D7E90601FDF7F7FC02467F
:102E60000B46C7E9062300F0EFFC7862642006F009
:102E700009F807F1080319463720FEF741FF7B7A6E
:102E80001AB23B7A1B021BB213437B81B7F90A309B
:102E90001846FDF747FBD7E90623FDF7F5F902468B
:102EA0000B4614461D4600F0CFFC02467B6AD31A3F
:102EB0001846FDF727FB16A3D3E90023FDF7C6FC50
:102EC00002460B4620462946FDF796FB02460B4676
:102ED00010461946104BD3E90023FDF7D7F90246F7
:102EE0000B460D49C1E90023B7F90A30FA68D31A35
:102EF000FB60FB680133FB6000F0A6FC7862074BC7
:102F00001B68012BB2D1054B00221A6000BF2FE7CE
:102F1000000000000004D040F00400200C05002058
:102F200080B582B000AF78600021054803F06AFAEE
:102F3000FEF792FF0A2005F0A5FF00BFF8E700BFEB
:102F4000B803002080B582B000AF7860FFF748F882
:102F5000FFF7C2F80A2005F095FF00BFF6E780B43E
:102F600000AF72B600BF00BFFDE7000080B582B0C1
:102F700000AF00237B60164B5B6C154A43F4804323
:102F80005364134B5B6C03F480437B607B680023CA
:102F90003B600F4B1B6C0E4A43F0805313640C4B89
:102FA0001B6C03F080533B603B6800220F216FF0E5
:102FB000010001F054F900220521052001F04FF92C
:102FC000052001F068F900BF0837BD4680BD00BF8D
:102FD0000038024080B58CB000AF786007F11C0368
:102FE00000221A605A609A60DA601A617B681B6876
:102FF0002E4A934228D10023BB612D4B5B6C2C4A97
:1030000043F4807353642A4B5B6C03F48073BB619D
:10301000BB6900237B61264B1B6B254A43F00403ED
:103020001363234B1B6B03F004037B617B69022357
:10303000FB6103233B6200237B6207F11C031946FB
:103040001C4801F0D5F92CE07B681B681A4A9342B2
:1030500027D100233B61164B5B6C154A43F4007388
:103060005364134B5B6C03F400733B613B690023B7
:10307000FB600F4B1B6B0E4A43F0040313630C4BB6
:103080001B6B03F00403FB60FB680423FB61032359
:103090003B6200237B6207F11C031946054801F0DF
:1030A000A7F900BF3037BD4680BD00BF00200140FA
:1030B00000380240000802400021014080B58AB07B
:1030C00000AF786007F1140300221A605A609A601A
:1030D000DA601A617B681B68194A93422CD100237D
:1030E0003B61184B1B6B174A43F002031363154BEC
:1030F0001B6B03F002033B613B694FF440737B6140
:103100001223BB610023FB6103233B6204237B6228
:1031100007F1140319460C4801F06AF90023FB601B
:10312000084B1B6C074A43F400131364054B1B6CDC
:1031300003F40013FB60FB6800BF2837BD4680BD69
:1031400000540040003802400004024080B58AB0BC
:1031500000AF786007F1140300221A605A609A6089
:10316000DA601A617B681B68234A93420ED1002300
:103170003B61224B5B6C214A43F0010353641F4BBC
:103180005B6C03F001033B613B6930E07B681B68CB
:103190001B4A93422BD10023FB60184B5B6C174AF0
:1031A00043F002035364154B5B6C03F00203FB60B6
:1031B000FB680023BB60114B1B6B104A43F00403F8
:1031C00013630E4B1B6B03F00403BB60BB68C0238F
:1031D0007B610223BB610023FB6100233B6203236D
:1031E0007B6207F114031946064801F001F900BF9C
:1031F0002837BD4680BD00BF0000014000380240B6
:10320000000401400008024080B58CB000AF786037
:1032100007F11C0300221A605A609A60DA601A6192
:103220007B681B68B3F1804F4BD10023BB613F4BE0
:103230001B6C3E4A43F0010313643C4B1B6C03F0D0
:103240000103BB61BB6900237B61384B1B6B374AB1
:1032500043F001031363354B1B6B03F001037B61E8
:103260007B6900233B61314B1B6B304A43F0020307
:1032700013632E4B1B6B03F002033B613B694FF45E
:103280000043FB6102233B6200237B620023BB629D
:103290000123FB6207F11C031946254801F0A8F839
:1032A0000823FB6102233B6200237B620023BB6295
:1032B0000123FB6207F11C0319461E4801F098F830
:1032C00030E07B681B681C4A93422BD10023FB60D3
:1032D000164B1B6C154A43F002031364134B1B6C13
:1032E00003F00203FB60FB680023BB600F4B1B6B0A
:1032F0000E4A43F0010313630C4B1B6B03F00103F5
:10330000BB60BB68C023FB6102233B6200237B627E
:103310000023BB620223FB6207F11C031946044829
:1033200001F066F800BF3037BD4680BD003802406E
:1033300000000240000402400004004080B58AB052
:1033400000AF786007F1140300221A605A609A6097
:10335000DA601A617B681B681D4A934234D10023EE
:103360003B611C4B1B6C1B4A43F004031364194B59
:103370001B6C03F004033B613B690023FB60154BAE
:103380001B6B144A43F008031363124B1B6B03F0CF
:103390000803FB60FB684FF480537B610223BB6131
:1033A0000023FB6100233B6202237B6207F11403CD
:1033B0001946094801F01CF8002205211E2000F0E2
:1033C0004EFF1E2000F067FF00BF2837BD4680BDBE
:1033D0000008004000380240000C024080B588B070
:1033E00000AF786007F10C0300221A605A609A60FF
:1033F000DA601A617B681B68124A93421ED100236F
:10340000BB60114B1B6B104A43F0100313630E4B50
:103410001B6B03F01003BB60BB684FF48043FB6081
:1034200002233B6100237B610023BB610123FB611D
:1034300007F10C031946054800F0DAFF00BF2037FA
:10344000BD4680BD0000014000380240001002402F
:1034500080B58AB000AF786007F1140300221A60CB
:103460005A609A60DA601A617B681B681D4A934251
:1034700034D100233B611C4B1B6C1B4A43F480235B
:103480001364194B1B6C03F480233B613B690023DD
:10349000FB60154B1B6B144A43F004031363124B80
:1034A0001B6B03F00403FB60FB684FF440637B611C
:1034B0000223BB610023FB6103233B6207237B6282
:1034C00007F114031946094800F092FF0022052174
:1034D000272000F0C4FE272000F0DDFE00BF2837C3
:1034E000BD4680BD00480040003802400008024050
:1034F00080B400AF00BFFDE780B400AF00BFFDE7C0
:1035000080B400AF00BFFDE780B400AF00BFFDE7AF
:1035100080B400AF00BFFDE780B400AF00BFBD4680
:103520005DF8047B704780B500AF00F079F907F0D3
:10353000D1F80346012B01D007F0C6FE00BF80BDC5
:1035400080B400AF00BFBD465DF8047B704700004B
:1035500080B500AF024803F0B1F900BF80BD00BFE5
:10356000B803002080B500AF024804F003FC00BFA0
:1035700080BD00BF4804002080B400AF012318467E
:10358000BD465DF8047B704780B582B000AF7860BF
:10359000396009F01BF9034616221A604FF0FF3319
:1035A00018460837BD4680BD80B582B000AF786050
:1035B0004FF0FF317868FFF7E7FF00BFFDE780B508
:1035C00086B000AFF860B9607A6000237B610AE0E2
:1035D000AFF300800146BB685A1CBA60CAB21A70C9
:1035E0007B6901337B617A697B689A42F0DB7B6897
:1035F00018461837BD4680BD80B586B000AFF8606C
:10360000B9607A6000237B6109E0BB685A1CBA602C
:103610001B781846AFF300807B6901337B617A69C0
:103620007B689A42F1DB7B6818461837BD4680BD3F
:1036300080B483B000AF78604FF0FF3318460C378A
:10364000BD465DF8047B704780B483B000AF7860FE
:1036500039603B684FF400525A60002318460C371B
:10366000BD465DF8047B704780B483B000AF7860DE
:10367000012318460C37BD465DF8047B704780B4C3
:1036800085B000AFF860B9607A600023184614373F
:10369000BD465DF8047B704780B586B000AF7860AA
:1036A000144A154BD31A7B617B693B61134B1B6832
:1036B000002B02D1114B124A1A60104B1A687B681A
:1036C00013443A699A4207D209F080F803460C2263
:1036D0001A604FF0FF3309E0084B1B68FB60074B93
:1036E0001A687B681344054A1360FB68184618374C
:1036F000BD4680BD00000220000400003C05002003
:10370000E053002080B400AF064BD3F88830054A60
:1037100043F47003C2F8883000BFBD465DF8047BF7
:10372000704700BF00ED00E0DFF834D0FFF7EAFF9C
:103730000C480D490D4A002302E0D458C45004330C
:10374000C4188C42F9D30A4A0A4C002301E01360E2
:103750000432A242FBD309F03FF8FDF7D3FB7047D8
:103760000000022000000020DC01002018F9000801
:10377000E0010020E0530020FEE7000080B500AF2C
:103780000E4B1B680D4A43F4007313600B4B1B6810
:103790000A4A43F480631360084B1B68074A43F4EA
:1037A00080731360032000F04FFD0F2000F008F835
:1037B000FFF7DCFB0023184680BD00BF003C024041
:1037C00080B582B000AF7860124B1A68124B1B783C
:1037D00019464FF47A73B3FBF1F3B2FBF3F31846D7
:1037E00000F067FD0346002B01D001230EE07B684B
:1037F0000F2B0AD8002279684FF0FF3000F02FFD20
:10380000064A7B681360002300E00123184608374E
:10381000BD4680BD040000200C00002008000020F0
:1038200080B400AF064B1B781A46064B1B68134446
:10383000044A136000BFBD465DF8047B704700BFBB
:103840000C0000204005002080B400AF034B1B6833
:103850001846BD465DF8047B704700BF4005002058
:1038600080B584B000AF7860FFF7EEFFB8607B688A
:10387000FB60FB68B3F1FF3F05D00A4B1B781A468B
:10388000FB681344FB6000BFFFF7DEFF0246BB6826
:10389000D31AFA689A42F7D800BF00BF1037BD4666
:1038A00080BD00BF0C00002080B584B000AF786000
:1038B0000023FB737B68002B01D1012333E07B687D
:1038C0001B6C002B09D17868FFF784FB7B68002212
:1038D0005A647B68002283F83C207B681B6C03F0F1
:1038E0001003002B18D17B681B6C23F4885323F042
:1038F000020343F002027B681A64786800F0D8FA89
:103900007B6800225A647B681B6C23F0030343F03E
:1039100001027B681A6401E00123FB737B680022CB
:1039200083F83C20FB7B18461037BD4680BD000065
:1039300080B485B000AF78600023BB607B6893F8EB
:103940003C30012B01D10223B2E07B68012283F8D5
:103950003C207B681B689B6803F00103012B18D097
:103960007B681B689A687B681B6842F001029A605A
:10397000524B1B68524AA2FB03239A0C13465B006E
:103980001344BB6002E0BB68013BBB60BB68002B1B
:10399000F9D17B681B689B6803F00103012B7AD186
:1039A0007B681B6C23F4E06323F0010343F4807213
:1039B0007B681A647B681B685B6803F48063002B78
:1039C00007D07B681B6C23F4405343F480527B6820
:1039D0001A647B681B6C03F48053B3F5805F06D1D7
:1039E0007B685B6C23F006027B685A6402E07B68AC
:1039F00000225A647B68002283F83C20314BFB6034
:103A00007B681B686FF022021A60FB685B6803F03A
:103A10001F03002B2AD17B681B682B4A934215D0C9
:103A20007B681B68294A934205D1264B5B6803F0EB
:103A30001F03002B0AD07B681B68254A934236D1AE
:103A4000204B5B6803F01003002B30D17B681B68B0
:103A50009B6803F04053002B29D17B681B689A6850
:103A60007B681B6842F080429A6020E07B681B689C
:103A7000154A93421BD17B681B689B6803F0405337
:103A8000002B14D17B681B689A687B681B6842F026
:103A900080429A600BE07B681B6C43F010027B68ED
:103AA0001A647B685B6C43F001027B685A640023F4
:103AB00018461437BD465DF8047B704704000020AB
:103AC00083DE1B4300230140002001400021014010
:103AD0000022014080B483B000AF78607B6893F827
:103AE0003C30012B01D1022321E07B68012283F8C5
:103AF0003C207B681B689A687B681B6822F0010287
:103B00009A607B681B689B6803F00103002B09D156
:103B10007B681B6C23F4885323F0010343F00102FC
:103B20007B681A647B68002283F83C2000231846D7
:103B30000C37BD465DF8047B704780B584B000AF9C
:103B4000786039600023FB607B681B689B6803F426
:103B50008063B3F5806F13D17B681B689B6803F4A7
:103B60008073B3F5807F0BD17B681B6C43F0200220
:103B70007B681A647B68002283F83C20012363E0A1
:103B8000FFF762FEF86021E03B68B3F1FF3F1DD014
:103B90003B68002B07D0FFF757FE0246FB68D31A9D
:103BA0003A689A4212D27B681B681B6803F00203D2
:103BB000022B0BD07B681B6C43F004027B681A64F9
:103BC0007B68002283F83C2003233DE07B681B6870
:103BD0001B6803F00203022BD6D17B681B686FF0D1
:103BE00012021A607B681B6C43F400727B681A64D3
:103BF0007B681B689B6803F04053002B23D17B68D4
:103C00001B7E002B1FD17B681B68DB6A03F47003EB
:103C1000002B06D07B681B689B6803F48063002B35
:103C200011D17B681B6C23F480727B681A647B68FB
:103C30001B6C03F48053002B05D17B681B6C43F095
:103C400001027B681A64002318461037BD4680BD08
:103C500080B483B000AF78607B681B68DB6C18466B
:103C60000C37BD465DF8047B7047000080B485B01A
:103C700000AF786039600023BB607B6893F83C300C
:103C8000012B01D1022305E17B68012283F83C204E
:103C90003B681B68092B25D97B681B68D9683B6882
:103CA0001B689BB21A4613465B0013441E3B072257
:103CB00002FA03F3DA437B681B680A40DA607B6828
:103CC0001B68D9683B689A683B681B689BB21846BA
:103CD00003465B0003441E3B9A407B681B680A4313
:103CE000DA6022E07B681B6819693B681B689BB23D
:103CF0001A4613465B001344072202FA03F3DA4321
:103D00007B681B680A401A617B681B6819693B68FD
:103D10009A683B681B689BB2184603465B000344E5
:103D20009A407B681B680A431A613B685B68062BF4
:103D300024D87B681B68596B3B685A6813469B0004
:103D40001344053B1F2202FA03F3DA437B681B6826
:103D50000A405A637B681B68596B3B681B689BB2BF
:103D600018463B685A6813469B001344053B00FA0B
:103D700003F27B681B680A435A634CE03B685B684C
:103D80000C2B24D87B681B68196B3B685A68134658
:103D90009B001344233B1F2202FA03F3DA437B68A0
:103DA0001B680A401A637B681B68196B3B681B68B9
:103DB0009BB218463B685A6813469B001344233B4A
:103DC00000FA03F27B681B680A431A6323E07B68EE
:103DD0001B68D96A3B685A6813469B001344413BF1
:103DE0001F2202FA03F3DA437B681B680A40DA6297
:103DF0007B681B68D96A3B681B689BB218463B68A6
:103E00005A6813469B001344413B00FA03F27B6857
:103E10001B680A43DA62224BFB607B681B68214AFD
:103E2000934209D13B681B68122B05D1FB685B6884
:103E300043F48002FB685A607B681B68194A93420E
:103E400023D13B681B68102B03D03B681B68112BE8
:103E50001BD1FB685B6843F40002FB685A603B6857
:103E60001B68102B11D1104B1B68104AA2FB0323B7
:103E70009A0C13469B0013445B00BB6002E0BB68D6
:103E8000013BBB60BB68002BF9D17B68002283F843
:103E90003C20002318461437BD465DF8047B70476C
:103EA00000230140002001400400002083DE1B436A
:103EB00080B485B000AF7860794BFB60FB685B68CD
:103EC00023F44032FB685A60FB685A687B685B6881
:103ED0001A43FB685A607B681B685A687B681B68DA
:103EE00022F480725A607B681B6859687B681B6982
:103EF0001A027B681B680A435A607B681B685A6811
:103F00007B681B6822F040725A607B681B685968A6
:103F10007B689A687B681B680A435A607B681B68E9
:103F20009A687B681B6822F400629A607B681B6851
:103F300099687B68DA687B681B680A439A607B68CB
:103F40009B6A584A934222D07B681B689A687B68B8
:103F50001B6822F070629A607B681B6899687B68B6
:103F60009A6A7B681B680A439A607B681B689A6838
:103F70007B681B6822F040529A607B681B689968D6
:103F80007B68DA6A7B681B680A439A600FE07B688B
:103F90001B689A687B681B6822F070629A607B6875
:103FA0001B689A687B681B6822F040529A607B68A5
:103FB0001B689A687B681B6822F002029A607B6823
:103FC0001B6899687B681B7E5A007B681B680A43E4
:103FD0009A607B6893F82030002B1BD07B681B68AD
:103FE0005A687B681B6842F400625A607B681B68F1
:103FF0005A687B681B6822F460425A607B681B68C1
:1040000059687B685B6A013B5A037B681B680A43FB
:104010005A6007E07B681B685A687B681B6822F45B
:1040200000625A607B681B68DA6A7B681B6822F44E
:104030007002DA627B681B68D96A7B68DB69013BC6
:104040001A057B681B680A43DA627B681B689A68FA
:104050007B681B6822F400729A607B681B68996811
:104060007B6893F830305A027B681B680A439A6079
:104070007B681B689A687B681B6822F480629A6080
:104080007B681B6899687B685B699A027B681B6820
:104090000A439A6000BF1437BD465DF8047B704741
:1040A000002301400100000F80B485B000AF7860AC
:1040B0007B6803F00703FB600C4BDB68BB60BA68EE
:1040C0004FF6FF031340BB60FB681A02BB68134343
:1040D00043F0BF6343F40033BB60044ABB68D36062
:1040E00000BF1437BD465DF8047B704700ED00E06B
:1040F00080B400AF044BDB681B0A03F007031846CB
:10410000BD465DF8047B704700ED00E080B483B0ED
:1041100000AF0346FB7197F90730002B0BDBFB79EF
:1041200003F01F02074997F907305B09012000FAE5
:1041300002F241F8232000BF0C37BD465DF8047B36
:10414000704700BF00E100E080B483B000AF0346D9
:104150003960FB7197F90730002B0ADB3B68DAB254
:104160000C4997F907301201D2B20B4483F80023AF
:104170000AE03B68DAB20849FB7903F00F03043B1D
:104180001201D2B20B441A7600BF0C37BD465DF85F
:10419000047B704700E100E000ED00E080B489B0EE
:1041A00000AFF860B9607A60FB6803F00703FB6159
:1041B000FB69C3F10703042B28BF0423BB61FB6920
:1041C0000433062B02D9FB69033B00E000237B612B
:1041D0004FF0FF32BB6902FA03F3DA43BB681A40BF
:1041E0007B699A404FF0FF317B6901FA03F3D943B1
:1041F0007B680B40134318462437BD465DF8047BAB
:104200007047000080B582B000AF78607B68013BEA
:10421000B3F1807F01D301230FE00A4A7B68013BA1
:1042200053600F214FF0FF30FFF78EFF054B002248
:104230009A60044B07221A60002318460837BD46CF
:1042400080BD00BF10E000E080B582B000AF7860B4
:104250007868FFF729FF00BF0837BD4680BD80B5ED
:1042600086B000AF0346B9607A60FB7300237B61C0
:10427000FFF73EFF78617A68B9687869FFF78EFFCB
:10428000024697F90F3011461846FFF75DFF00BF51
:104290001837BD4680BD80B582B000AF0346FB71C4
:1042A00097F907301846FFF731FF00BF0837BD46C2
:1042B00080BD80B582B000AF78607868FFF7A2FF5C
:1042C000034618460837BD4680BD80B584B000AFB0
:1042D00078607B689B6DFB60FFF7B6FAB8607B681F
:1042E00093F83530DBB2022B08D07B6880225A6508
:1042F0007B68002283F83420012352E07B681B682E
:104300001A687B681B6822F016021A607B681B68BB
:104310005A697B681B6822F080025A617B681B6CBB
:10432000002B03D17B689B6C002B07D07B681B683C
:104330001A687B681B6822F008021A607B681B6899
:104340001A687B681B6822F001021A6013E0FFF70D
:104350007BFA0246BB68D31A052B0CD97B68202256
:104360005A657B68032283F835207B68002283F836
:104370003420032315E07B681B681B6803F00103EE
:10438000002BE4D17B68DB6D3F229A40FB689A608A
:104390007B68012283F835207B68002283F8342073
:1043A000002318461037BD4680BD80B483B000AFEF
:1043B00078607B6893F83530DBB2022B04D07B68E1
:1043C00080225A6501230CE07B68052283F83520A2
:1043D0007B681B681A687B681B6822F001021A6000
:1043E000002318460C37BD465DF8047B704700007B
:1043F00080B489B000AF7860396000237B6100230E
:104400003B610023BB610023FB616BE10122FB697F
:1044100002FA03F37B613B681B687A6913403B61D6
:104420003A697B699A4240F05A813B685B6803F0C5
:104430000303012B05D03B685B6803F00303022BE9
:1044400030D17B689B68BB61FB695B00032202FA89
:1044500003F3DB43BA691340BB613B68DA68FB696D
:104460005B0002FA03F3BA691343BB617B68BA6964
:104470009A607B685B68BB610122FB6902FA03F307
:10448000DB43BA691340BB613B685B681B0903F0FF
:104490000102FB6902FA03F3BA691343BB617B684B
:1044A000BA695A603B685B6803F00303032B17D0BB
:1044B0007B68DB68BB61FB695B00032202FA03F3E4
:1044C000DB43BA691340BB613B689A68FB695B00D8
:1044D00002FA03F3BA691343BB617B68BA69DA6015
:1044E0003B685B6803F00303022B23D1FB69DA0806
:1044F0007B68083253F82230BB61FB6903F0070385
:104500009B000F2202FA03F3DB43BA691340BB613D
:104510003B681A69FB6903F007039B0002FA03F387
:10452000BA691343BB61FB69DA087B680832B96971
:1045300043F822107B681B68BB61FB695B000322A8
:1045400002FA03F3DB43BA691340BB613B685B6863
:1045500003F00302FB695B0002FA03F3BA69134339
:10456000BB617B68BA691A603B685B6803F44033DF
:10457000002B00F0B4800023FB60604B5B6C5F4A53
:1045800043F4804353645D4B5B6C03F48043FB60F6
:10459000FB685B4AFB699B08023352F82330BB611E
:1045A000FB6903F003039B000F2202FA03F3DB43D2
:1045B000BA691340BB617B68524A93422BD07B6837
:1045C000514A934225D07B68504A93421FD07B6862
:1045D0004F4A934219D07B684E4A934213D07B686E
:1045E0004D4A93420DD07B684C4A934207D07B687A
:1045F0004B4A934201D107230EE008230CE0062327
:104600000AE0052308E0042306E0032304E0022374
:1046100002E0012300E00023FA6902F003029200A5
:104620009340BA691343BB613549FB699B08023368
:10463000BA6941F823203B4B9B68BB613B69DB4374
:10464000BA691340BB613B685B6803F48013002BBD
:1046500003D0BA693B691343BB61324ABB699360BB
:10466000304BDB68BB613B69DB43BA691340BB611C
:104670003B685B6803F40013002B03D0BA693B6905
:104680001343BB61274ABB69D360264B5B68BB61A0
:104690003B69DB43BA691340BB613B685B6803F469
:1046A0000033002B03D0BA693B691343BB611D4A39
:1046B000BB6953601B4B1B68BB613B69DB43BA6939
:1046C0001340BB613B685B6803F48033002B03D06D
:1046D000BA693B691343BB61124ABB691360FB694A
:1046E0000133FB61FB690F2B7FF690AE00BF00BF6B
:1046F0002437BD465DF8047B704700BF0038024098
:10470000003801400000024000040240000802405E
:10471000000C024000100240001402400018024049
:10472000001C0240003C014080B483B000AF7860C0
:104730000B467B8013467B707B78002B03D07A88F6
:104740007B689A6103E07B881A047B689A6100BFEA
:104750000C37BD465DF8047B704780B485B000AF70
:1047600078600B467B807B685B69FB607A88FB68BE
:1047700013401A04FB68D9437B880B401A437B68BB
:104780009A6100BF1437BD465DF8047B7047000096
:1047900080B584B000AF78607B68002B01D1012325
:1047A0002BE17B6893F83D30DBB2002B06D17B68B0
:1047B000002283F83C207868FEF780FC7B68242286
:1047C00083F83D207B681B681A687B681B6822F0B1
:1047D00001021A607B681B681A687B681B6842F4D8
:1047E00000421A607B681B681A687B681B6822F4A9
:1047F00000421A6001F01EFCF8607B685B68814A29
:10480000934207D8FB68804A934294BF0123002358
:10481000DBB206E0FB687D4A934294BF012300238C
:10482000DBB2002B01D00123E7E0FB68784AA2FB52
:1048300003239B0CBB607B681B685B6823F03F0114
:104840007B681B68BA680A435A607B681B681B6AEE
:1048500023F03F017B685B686A4A934202D8BB68D9
:10486000013309E0BB684FF4967202FB03F3694A17
:10487000A2FB03239B0901337A6812680B4313627E
:104880007B681B68DB6923F44F4222F0FF027B68E0
:104890005B685C498B4219D8FB68591E7B685B6872
:1048A0005B00B1FBF3F3591C40F6FC730B40002B8B
:1048B0000AD0FB68591E7B685B685B00B1FBF3F3B1
:1048C0000133C3F30B0351E004234FE07B689B6883
:1048D000002B11D1FB68581E7B6859680B465B00A2
:1048E0000B44B0FBF3F30133C3F30B03002B0CBFFA
:1048F00001230023DBB212E0FB68581E7B68596875
:104900000B469B000B4499000B44B0FBF3F30133BF
:10491000C3F30B03002B0CBF01230023DBB2002BDE
:1049200001D0012322E07B689B68002B0ED1FB683D
:10493000581E7B6859680B465B000B44B0FBF3F3D1
:104940000133C3F30B0343F400430FE0FB68581E2D
:104950007B6859680B469B000B4499000B44B0FBE5
:10496000F3F30133C3F30B0343F44043796809685D
:104970001343CB617B681B681B6823F0C0017B6815
:10498000DA697B681B6A1A437B681B680A431A60F2
:104990007B681B689B6823F4034323F0FF037A685A
:1049A00011697A68D26811437A6812680B43936080
:1049B0007B681B68DB6823F0FF017B685A697B68B2
:1049C0009B691A437B681B680A43DA607B681B6833
:1049D0001A687B681B6842F001021A607B6800223B
:1049E0001A647B68202283F83D207B6800221A63CA
:1049F0007B68002283F83E20002318461037BD460E
:104A000080BD00BFA08601007F841E00FF083D001E
:104A100083DE1B43D34D621080B588B002AFF860CF
:104A20007A601A460B467B8113463B81FEF70CFFEA
:104A30007861FB6893F83D30DBB2202B40F0E080DA
:104A40007B690093192301227049F86800F064FC27
:104A50000346002B01D00223D3E0FB6893F83C30DF
:104A6000012B01D10223CCE0FB68012283F83C201A
:104A7000FB681B681B6803F00103012B07D0FB6870
:104A80001B681A68FB681B6842F001021A60FB6829
:104A90001B681A68FB681B6822F400621A60FB68D6
:104AA000212283F83D20FB68102283F83E20FB681A
:104AB00000221A64FB687A685A62FB683A895A8550
:104AC000FB685B8D9AB2FB681A85FB68504ADA6214
:104AD00079897B693A6AF86800F0CEFA0346002BC0
:104AE00001D001238DE000233B61FB681B685B69FB
:104AF0003B61FB681B689B693B613B6966E07A69C7
:104B0000396AF86800F022FD0346002B0DD0FB68DF
:104B10001B6C042B07D1FB681B681A68FB681B68B9
:104B200042F400721A6001236BE0FB685B6A1A783A
:104B3000FB681B681A61FB685B6A5A1CFB685A6257
:104B4000FB685B8D9BB2013B9AB2FB685A85FB68A0
:104B50001B8D013B9AB2FB681A85FB681B685B6979
:104B600003F00403042B1BD1FB681B8D002B17D013
:104B7000FB685B6A1A78FB681B681A61FB685B6AF2
:104B80005A1CFB685A62FB685B8D9BB2013B9AB270
:104B9000FB685A85FB681B8D013B9AB2FB681A853E
:104BA0007A69396AF86800F019FD0346002B0DD0C8
:104BB000FB681B6C042B07D1FB681B681A68FB6839
:104BC0001B6842F400721A6001231AE0FB681B8D17
:104BD000002B94D1FB681B681A68FB681B6842F4C1
:104BE00000721A60FB68202283F83D20FB680022D7
:104BF00083F83E20FB68002283F83C20002300E07D
:104C0000022318461837BD4680BD00BF02001000C1
:104C10000000FFFF80B58CB002AFF8607A601A46E2
:104C20000B467B8113463B81FEF70EFE7862FB68E4
:104C300093F83D30DBB2202B40F017827B6A009363
:104C4000192301227C49F86800F066FB0346002B1B
:104C500001D002230AE2FB6893F83C30012B01D11A
:104C6000022303E2FB68012283F83C20FB681B68F7
:104C70001B6803F00103012B07D0FB681B681A684F
:104C8000FB681B6842F001021A60FB681B681A6827
:104C9000FB681B6822F400621A60FB68222283F81A
:104CA0003D20FB68102283F83E20FB6800221A6436
:104CB000FB687A685A62FB683A895A85FB685B8DA3
:104CC0009AB2FB681A85FB685C4ADA6279897B6A6A
:104CD0003A6BF86800F052FA0346002B01D001232A
:104CE000C4E1FB681B8D002B13D100233B62FB68E2
:104CF0001B685B693B62FB681B689B693B623B6AA4
:104D0000FB681B681A68FB681B6842F400721A6033
:104D100098E1FB681B8D012B1BD1FB681B681A688F
:104D2000FB681B6822F480621A600023FB61FB6849
:104D30001B685B69FB61FB681B689B69FB61FB6926
:104D4000FB681B681A68FB681B6842F400721A60F3
:104D500078E1FB681B8D022B1BD1FB681B681A686E
:104D6000FB681B6822F480621A60FB681B681A6883
:104D7000FB681B6842F400621A600023BB61FB6899
:104D80001B685B69BB61FB681B689B69BB61BB6996
:104D900058E1FB681B681A68FB681B6842F4806274
:104DA0001A6000237B61FB681B685B697B61FB68A1
:104DB0001B689B697B617B6944E1FB681B8D032B4E
:104DC00000F2F180FB681B8D012B23D17A6A396BCD
:104DD000F86800F04BFC0346002B01D0012345E1AD
:104DE000FB681B681A69FB685B6AD2B21A70FB68C1
:104DF0005B6A5A1CFB685A62FB681B8D013B9AB2C6
:104E0000FB681A85FB685B8D9BB2013B9AB2FB681D
:104E10005A8517E1FB681B8D022B4ED17B6A0093EC
:104E20003B6B00220649F86800F076FA0346002B37
:104E300008D001231AE100BF020010000000FFFFAC
:104E400004000100FB681B681A68FB681B6842F4D9
:104E500000721A60FB681B681A69FB685B6AD2B251
:104E60001A70FB685B6A5A1CFB685A62FB681B8DF0
:104E7000013B9AB2FB681A85FB685B8D9BB2013BD4
:104E80009AB2FB685A85FB681B681A69FB685B6A03
:104E9000D2B21A70FB685B6A5A1CFB685A62FB68E4
:104EA0001B8D013B9AB2FB681A85FB685B8D9BB238
:104EB000013B9AB2FB685A85C4E07B6A00933B6B66
:104EC00000226C49F86800F027FA0346002B01D055
:104ED0000123CBE0FB681B681A68FB681B6822F49F
:104EE00080621A60FB681B681A69FB685B6AD2B251
:104EF0001A70FB685B6A5A1CFB685A62FB681B8D60
:104F0000013B9AB2FB681A85FB685B8D9BB2013B43
:104F10009AB2FB685A857B6A00933B6B0022554925
:104F2000F86800F0F9F90346002B01D001239DE059
:104F3000FB681B681A68FB681B6842F400721A6001
:104F4000FB681B681A69FB685B6AD2B21A70FB685F
:104F50005B6A5A1CFB685A62FB681B8D013B9AB264
:104F6000FB681A85FB685B8D9BB2013B9AB2FB68BC
:104F70005A85FB681B681A69FB685B6AD2B21A70B3
:104F8000FB685B6A5A1CFB685A62FB681B8D013B1D
:104F90009AB2FB681A85FB685B8D9BB2013B9AB2A3
:104FA000FB685A854EE07A6A396BF86800F05EFB60
:104FB0000346002B01D0012358E0FB681B681A69E7
:104FC000FB685B6AD2B21A70FB685B6A5A1CFB68AA
:104FD0005A62FB681B8D013B9AB2FB681A85FB681D
:104FE0005B8D9BB2013B9AB2FB685A85FB681B68DC
:104FF0005B6903F00403042B24D1FB681B8D032B96
:1050000007D1FB681B681A68FB681B6822F4806282
:105010001A60FB681B681A69FB685B6AD2B21A7077
:10502000FB685B6A5A1CFB685A62FB681B8D013B7C
:105030009AB2FB681A85FB685B8D9BB2013B9AB202
:10504000FB685A85FB681B8D002B7FF4B6AEFB68AE
:10505000202283F83D20FB68002283F83E20FB6875
:10506000002283F83C20002300E002231846283762
:10507000BD4680BD0400010080B588B002AFF86075
:105080007A603B600B467B81FB68DB6A7B617B69F6
:10509000082B06D07B69012B03D07B6913F5803F79
:1050A00008D1FB681B681A68FB681B6842F48072B1
:1050B0001A600BE0FB681B6B122B07D1FB681B68A7
:1050C0001A68FB681B6842F480721A603B680093A0
:1050D0007B6800224FF00111F86800F01DF90346CB
:1050E000002B0DD0FB681B681B6803F48073B3F5BD
:1050F000807F03D1FB684FF400721A64032335E00C
:10510000FB681B69B3F5804F08D17B89DBB21A4677
:10511000FB681B6802F0FE021A611BE07B89DB1151
:10512000DBB203F00603DBB263F00F03DAB2FB6815
:105130001B681A613B687A680E49F86800F066F9E6
:105140000346002B01D0012310E07B89DAB2FB6813
:105150001B681A613B687A680749F86800F056F9DD
:105160000346002B01D0012300E000231846183726
:10517000BD4680BD080001000200010080B588B076
:1051800002AFF8607A603B600B467B81FB68DB6AAC
:105190007B61FB681B681A68FB681B6842F48062CD
:1051A0001A607B69082B06D07B69012B03D07B69D1
:1051B00013F5803F08D1FB681B681A68FB681B6801
:1051C00042F480721A600BE0FB681B6B112B07D155
:1051D000FB681B681A68FB681B6842F480721A60DF
:1051E0003B6800937B6800224FF00111F86800F0E3
:1051F00093F80346002B0DD0FB681B681B6803F473
:105200008073B3F5807F03D1FB684FF400721A649A
:10521000032379E0FB681B69B3F5804F08D17B89D4
:10522000DBB243F00103DAB2FB681B681A615FE08E
:105230007B89DB11DBB203F00603DBB263F00F0303
:10524000DAB2FB681B681A613B687A683049F86813
:1052500000F0DCF80346002B01D0012354E07B89E9
:10526000DAB2FB681B681A613B687A682949F868FA
:1052700000F0CCF80346002B01D0012344E00023CA
:105280003B61FB681B685B693B61FB681B689B6952
:105290003B613B69FB681B681A68FB681B6842F44A
:1052A00080721A603B6800937B6800224FF0011106
:1052B000F86800F031F80346002B0DD0FB681B683E
:1052C0001B6803F48073B3F5807F03D1FB684FF450
:1052D00000721A64032317E07B89DB11DBB203F051
:1052E0000603DBB263F00E03DAB2FB681B681A61D7
:1052F0003B687A680749F86800F088F80346002B95
:1053000001D0012300E0002318461837BD4680BDB8
:10531000080001000200010080B584B000AFF86011
:10532000B9603B601346FB7148E03B68B3F1FF3F57
:1053300044D0FEF789FA0246BB69D31A3A689A420A
:1053400002D33B68002B39D1BB681B0CDBB2012BAD
:105350000DD1FB681B685B69DA43BB6813409BB2E5
:10536000002B0CBF01230023DBB21A460CE0FB68C4
:105370001B689B69DA43BB6813409BB2002B0CBFD0
:1053800001230023DBB21A46FB799A4216D1FB684F
:1053900000221A63FB68202283F83D20FB6800226C
:1053A00083F83E20FB681B6C43F02002FB681A6404
:1053B000FB68002283F83C20012323E0BB681B0C20
:1053C000DBB2012B0DD1FB681B685B69DA43BB685C
:1053D00013409BB2002B0CBF01230023DBB21A4603
:1053E0000CE0FB681B689B69DA43BB6813409BB207
:1053F000002B0CBF01230023DBB21A46FB799A4233
:1054000093D0002318461037BD4680BD80B584B0C8
:1054100000AFF860B9607A603B6071E0FB681B68C0
:105420005B6903F48063B3F5806F23D1FB681B686D
:105430001A68FB681B6842F400721A60FB681B68FC
:105440006FF480625A61FB6800221A63FB682022B5
:1054500083F83D20FB68002283F83E20FB681B6C2C
:1054600043F00402FB681A64FB68002283F83C20C6
:10547000012367E07B68B3F1FF3F41D0FEF7E4F919
:1054800002463B68D31A7A689A4202D37B68002BA3
:1054900036D1BB681B0CDBB2012B0CD1FB681B683F
:1054A0005B69DA43BB6813409BB2002B14BF012336
:1054B0000023DBB20BE0FB681B689B69DA43BB6827
:1054C00013409BB2002B14BF01230023DBB2002B3F
:1054D00016D0FB6800221A63FB68202283F83D2067
:1054E000FB68002283F83E20FB681B6C43F020021F
:1054F000FB681A64FB68002283F83C20012321E04A
:10550000BB681B0CDBB2012B0CD1FB681B685B6911
:10551000DA43BB6813409BB2002B14BF0123002366
:10552000DBB20BE0FB681B689B69DA43BB68134086
:105530009BB2002B14BF01230023DBB2002B7FF4AE
:105540006DAF002318461037BD4680BD80B584B0CE
:1055500000AFF860B9607A6034E0F86800F0E3F812
:105560000346002B01D0012334E0BB68B3F1FF3FB9
:1055700028D0FEF769F902467B68D31ABA689A42C6
:1055800002D3BB68002B1DD1FB681B685B6903F06D
:105590008003802B16D0FB6800221A63FB68202250
:1055A00083F83D20FB68002283F83E20FB681B6CDB
:1055B00043F02002FB681A64FB68002283F83C2059
:1055C000012307E0FB681B685B6903F08003802B05
:1055D000C3D1002318461037BD4680BD80B584B0C6
:1055E00000AFF860B9607A6034E0F86800F09BF8CA
:1055F0000346002B01D0012334E0BB68B3F1FF3F29
:1056000028D0FEF721F902467B68D31ABA689A427D
:1056100002D3BB68002B1DD1FB681B685B6903F0DC
:105620000403042B16D0FB6800221A63FB682022B7
:1056300083F83D20FB68002283F83E20FB681B6C4A
:1056400043F02002FB681A64FB68002283F83C20C8
:10565000012307E0FB681B685B6903F00403042B6C
:10566000C3D1002318461037BD4680BD80B584B035
:1056700000AFF860B9607A6049E0FB681B685B695D
:1056800003F01003102B19D1FB681B686FF0100298
:105690005A61FB6800221A63FB68202283F83D20D0
:1056A000FB68002283F83E20FB681A6CFB681A64D2
:1056B000FB68002283F83C20012330E0FEF7C4F8A9
:1056C00002467B68D31ABA689A4202D3BB68002BA1
:1056D0001DD1FB681B685B6903F04003402B16D0AB
:1056E000FB6800221A63FB68202283F83D20FB68D8
:1056F000002283F83E20FB681B6C43F02002FB680D
:105700001A64FB68002283F83C20012307E0FB6851
:105710001B685B6903F04003402BAED100231846A1
:105720001037BD4680BD80B483B000AF78607B6821
:105730001B685B6903F48063B3F5806F1BD17B68E2
:105740001B686FF480625A617B6800221A637B6871
:10575000202283F83D207B68002283F83E207B686E
:105760001B6C43F004027B681A647B68002283F898
:105770003C20012300E0002318460C37BD465DF8AD
:10578000047B704780B483B000AF064B01221A60DF
:10579000054B1B687B607B6800BF0C37BD465DF81E
:1057A000047B704720000E420070004080B483B03C
:1057B00000AF064B00221A60054B1B687B607B68BC
:1057C00000BF0C37BD465DF8047B704720000E42D9
:1057D0000070004080B586B000AF78607B68002B19
:1057E00001D1012367E27B681B6803F00103002BF2
:1057F00075D0884B9B6803F00C03042B0CD0854BB1
:105800009B6803F00C03082B12D1824B5B6803F4F6
:105810008003B3F5800F0BD17E4B1B6803F400337C
:10582000002B5BD07B685B68002B57D1012342E2E1
:105830007B685B68B3F5803F06D1764B1B68754A81
:1058400043F4803313601DE07B685B68B3F5A02FE1
:105850000CD1704B1B686F4A43F4802313606D4B6F
:105860001B686C4A43F4803313600BE0694B1B6880
:10587000684A23F480331360664B1B68654A23F43F
:10588000802313607B685B68002B13D0FDF7DCFF7F
:10589000386108E0FDF7D8FF02463B69D31A642B54
:1058A00001D9032307E25B4B1B6803F40033002B91
:1058B000F0D014E0FDF7C8FF386108E0FDF7C4FF41
:1058C00002463B69D31A642B01D90323F3E1514B00
:1058D0001B6803F40033002BF0D100E000BF7B68AD
:1058E0001B6803F00203002B63D04A4B9B6803F054
:1058F0000C03002B0BD0474B9B6803F00C03082BC9
:105900001CD1444B5B6803F48003002B16D1414B40
:105910001B6803F00203002B05D07B68DB68012BBA
:1059200001D00123C7E13B4B1B6823F0F8027B68E1
:105930001B69DB00374913430B603AE07B68DB6887
:10594000002B20D0344B01221A60FDF77DFF386117
:1059500008E0FDF779FF02463B69D31A022B01D913
:105960000323A8E12B4B1B6803F00203002BF0D0AC
:10597000284B1B6823F0F8027B681B69DB00254974
:1059800013430B6015E0244B00221A60FDF75CFF07
:10599000386108E0FDF758FF02463B69D31A022B35
:1059A00001D9032387E11B4B1B6803F00203002B83
:1059B000F0D17B681B6803F00803002B36D07B68AE
:1059C0005B69002B16D0154B01221A60FDF73CFFD6
:1059D000386108E0FDF738FF02463B69D31A022B15
:1059E00001D9032367E10B4B5B6F03F00203002B2C
:1059F000F0D01BE0094B00221A60FDF725FF38614B
:105A00000EE0FDF721FF02463B69D31A022B07D9AE
:105A1000032350E10038024000004742800E474215
:105A2000884B5B6F03F00203002BEAD17B681B6895
:105A300003F00403002B00F097800023FB75814BDB
:105A40001B6C03F08053002B0FD10023BB607D4BF8
:105A50001B6C7C4A43F0805313647A4B1B6C03F03D
:105A60008053BB60BB680123FB75774B1B6803F455
:105A70008073002B18D1744B1B68734A43F48073F6
:105A80001360FDF7E1FE386108E0FDF7DDFE024638
:105A90003B69D31A022B01D903230CE16A4B1B6823
:105AA00003F48073002BF0D07B689B68012B06D138
:105AB000644B1B6F634A43F0010313671CE07B6870
:105AC0009B68052B0CD15F4B1B6F5E4A43F00403B0
:105AD00013675C4B1B6F5B4A43F0010313670BE0DA
