:020000040800F2
:10000000000002204D3F0008153D00081D3D00087E
:10001000253D00082D3D0008353D0008000000008A
:1000200000000000000000000000000041B80008CF
:100030003D3D00080000000091BA00084B3D00085B
:100040009D3F00089D3F00089D3F00089D3F000820
:100050009D3F0008653D00089D3F00089D3F00084A
:100060009D3F00089D3F00089D3F00089D3F000800
:100070009D3F00089D3F00089D3F00089D3F0008F0
:100080009D3F00089D3F00089D3F00089D3F0008E0
:100090009D3F00089D3F00089D3F00089D3F0008D0
:1000A0009D3F00089D3F00089D3F00089D3F0008C0
:1000B0009D3F00089D3F0008753D00089D3F0008DA
:1000C0009D3F00089D3F00089D3F00089D3F0008A0
:1000D0009D3F00089D3F00089D3F0008893D0008A6
:1000E0009D3F00089D3F00089D3F00089D3F000880
:1000F0009D3F00089D3F00089D3F00089D3F000870
:100100009D3F00089D3F00089D3F00089D3F00085F
:100110009D3F00089D3F00089D3F00089D3F00084F
:100120009D3F00089D3F00089D3F00089D3F00083F
:100130009D3F00089D3F00089D3F00089D3F00082F
:100140009D3F00089D3F00089D3F00089D3F00081F
:100150009D3F00089D3F00089D3F00089D3F00080F
:100160009D3F00089D3F00089D3F00089D3F0008FF
:100170009D3F00089D3F00089D3F000800000000D3
:080180009D3F00089D3F0008AF
:1001900010B5054C237833B9044B13B10448AFF3C1
:1001A00000800123237010BDE0010020000000004A
:1001B0000CF1000808B5034B1BB103490348AFF32A
:1001C000008008BD00000000E40100200CF10008E0
:1001D00010F8012B11F8013B012A28BF9A42F7D0F1
:1001E000D01A70470000000000000000000000006E
:1001F00001F0FF01102A2BDB10F0070F08D010F8D8
:10020000013B013A8B422DD010F0070F42B3F6D1DB
:10021000F0B441EA012141EA014122F007047FF0F4
:1002200000070023F0E80256083C85EA010586EA4B
:10023000010685FA47F5A3FA87F586FA47F6A5FA87
:1002400087F68EB9EED1F0BC01F0FF0102F0070293
:1002500032B110F8013B013A83EA010313B1F8D13E
:100260000020704701387047002D06BF354603381F
:10027000073815F0010F07D1013015F4807F02BF58
:10028000013015F4C03F0130F0BC0138704700BFA9
:10029000034613F8012B002AFBD1181A01387047C6
:1002A00081F0004102E000BF83F0004330B54FEA27
:1002B00041044FEA430594EA050F08BF90EA020F94
:1002C0001FBF54EA000C55EA020C7FEA645C7FEA27
:1002D000655C00F0E2804FEA5454D4EB5555B8BF4A
:1002E0006D420CDD2C4480EA020281EA030382EABB
:1002F000000083EA010180EA020281EA0303362D4D
:1003000088BF30BD11F0004F4FEA01314FF4801C1F
:100310004CEA113102D0404261EB410113F0004F31
:100320004FEA03334CEA133302D0524263EB4303E8
:1003300094EA050F00F0A780A4F10104D5F1200E86
:100340000DDB02FA0EFC22FA05F2801841F10001E1
:1003500003FA0EF2801843FA05F359410EE0A5F1B5
:1003600020050EF1200E012A03FA0EFC28BF4CF0E6
:10037000020C43FA05F3C01851EBE37101F000459C
:1003800007D54FF0000EDCF1000C7EEB00006EEBA9
:100390000101B1F5801F1BD3B1F5001F0CD3490833
:1003A0005FEA30004FEA3C0C04F101044FEA44528A
:1003B00012F5800F80F09A80BCF1004F08BF5FEA11
:1003C000500C50F1000041EB045141EA050130BDF1
:1003D0005FEA4C0C404141EB0101013C28BFB1F503
:1003E000801FE9D291F0000F04BF01460020B1FA4E
:1003F00081F308BF2033A3F10B03B3F120020CDA21
:100400000C3208DD02F1140CC2F10C0201FA0CF0FE
:1004100021FA02F10CE002F11402D8BFC2F1200C63
:1004200001FA02F120FA0CFCDCBF41EA0C01904019
:10043000E41AA2BF01EB0451294330BD6FEA040462
:100440001F3C1CDA0C340EDC04F11404C4F120024D
:1004500020FA04F001FA02F340EA030021FA04F35F
:1004600045EA030130BDC4F10C04C4F1200220FAB6
:1004700002F001FA04F340EA0300294630BD21FAF4
:1004800004F0294630BD94F0000F83F4801306BFBA
:1004900081F480110134013D4EE77FEA645C18BFAE
:1004A0007FEA655C29D094EA050F08BF90EA020F45
:1004B00005D054EA000C04BF1946104630BD91EA3D
:1004C000030F1EBF0021002030BD5FEA545C05D140
:1004D0004000494128BF41F0004130BD14F580047F
:1004E0003CBF01F5801130BD01F0004545F0FE41F3
:1004F00041F470014FF0000030BD7FEA645C1ABF28
:10050000194610467FEA655C1CBF0B46024650EA5E
:10051000013406BF52EA033591EA030F41F400218A
:1005200030BD00BF90F0000F04BF0021704730B510
:100530004FF4806404F132044FF000054FF00001E5
:1005400050E700BF90F0000F04BF0021704730B5A6
:100550004FF4806404F1320410F0004548BF40427B
:100560004FF000013EE700BF42004FEAE2014FEAD0
:1005700031014FEA02701FBF12F07F4393F07F4FAB
:1005800081F06051704732F07F4208BF704793F0AE
:100590007F4F04BF41F40021704730B54FF46074C1
:1005A00001F0004521F000411CE700BF50EA0102C4
:1005B00008BF704730B54FF000050AE050EA01026D
:1005C00008BF704730B511F0004502D5404261EBDD
:1005D00041014FF4806404F132045FEA915C3FF41E
:1005E000D8AE4FF003025FEADC0C18BF03325FEABB
:1005F000DC0C18BF033202EBDC02C2F1200300FA6C
:1006000003FC20FA02F001FA03FE40EA0E0021FA90
:1006100002F11444BDE600BF70B54FF0FF0C4CF47E
:10062000E06C1CEA11541DBF1CEA135594EA0C0F30
:1006300095EA0C0F00F0DEF82C4481EA030621EA6B
:100640004C5123EA4C5350EA013518BF52EA0335A6
:1006500041F4801143F4801338D0A0FB02CE4FF058
:100660000005E1FB02E506F00042E0FB03E54FF088
:100670000006E1FB03569CF0000F18BF4EF0010E80
:10068000A4F1FF04B6F5007F64F5407404D25FEA7C
:100690004E0E6D4146EB060642EAC62141EA55512F
:1006A0004FEAC52040EA5E504FEACE2EB4F1FD0C71
:1006B00088BFBCF5E06F1ED8BEF1004F08BF5FEAEF
:1006C000500E50F1000041EB045170BD06F00046A1
:1006D00046EA010140EA020081EA0301B4EB5C044E
:1006E000C2BFD4EB0C0541EA045170BD41F4801146
:1006F0004FF0000E013C00F3AB8014F1360FDEBF6B
:10070000002001F0004170BDC4F10004203C35DA46
:100710000C341BDC04F11404C4F1200500FA05F3C9
:1007200020FA04F001FA05F240EA020001F000426A
:1007300021F0004110EBD37021FA04F642EB0601E0
:100740005EEA430E08BF20EAD37070BDC4F10C040A
:10075000C4F1200500FA04F320FA05F001FA04F2CE
:1007600040EA020001F0004110EBD37041F10001BA
:100770005EEA430E08BF20EAD37070BDC4F12005C5
:1007800000FA05F24EEA020E20FA04F301FA05F22D
:1007900043EA020321FA04F001F0004121FA04F2D5
:1007A00020EA020000EBD3705EEA430E08BF20EAA5
:1007B000D37070BD94F0000F0FD101F000464000DF
:1007C00041EB010111F4801F08BF013CF7D041EA61
:1007D000060195F0000F18BF704703F00046520065
:1007E00043EB030313F4801F08BF013DF7D043EA36
:1007F0000603704794EA0C0F0CEA135518BF95EAEC
:100800000C0F0CD050EA410618BF52EA4306D1D172
:1008100081EA030101F000414FF0000070BD50EA91
:10082000410606BF1046194652EA430619D094EA1B
:100830000C0F02D150EA013613D195EA0C0F05D105
:1008400052EA03361CBF104619460AD181EA030159
:1008500001F0004141F0FE4141F470014FF0000011
:1008600070BD41F0FE4141F4780170BD70B54FF0AC
:10087000FF0C4CF4E06C1CEA11541DBF1CEA13552C
:1008800094EA0C0F95EA0C0F00F0A7F8A4EB05040E
:1008900081EA030E52EA03354FEA013100F0888005
:1008A0004FEA03334FF0805545EA131343EA1263CE
:1008B0004FEA022245EA111545EA10654FEA002683
:1008C0000EF000419D4208BF964244F1FD0404F53C
:1008D000407402D25B084FEA3202B61A65EB030598
:1008E0005B084FEA32024FF480104FF4002CB6EB55
:1008F000020E75EB030E22BFB61A754640EA0C00D5
:100900005B084FEA3202B6EB020E75EB030E22BF14
:10091000B61A754640EA5C005B084FEA3202B6EB55
:10092000020E75EB030E22BFB61A754640EA9C0014
:100930005B084FEA3202B6EB020E75EB030E22BFE4
:10094000B61A754640EADC0055EA060E18D04FEAA2
:10095000051545EA16754FEA06164FEAC30343EA42
:1009600052734FEAC2025FEA1C1CC0D111F4801F0F
:100970000BD141EA00014FF000004FF0004CB6E708
:1009800011F4801F04BF01430020B4F1FD0C88BFA7
:10099000BCF5E06F3FF6AFAEB5EB030C04BFB6EBB2
:1009A000020C5FEA500C50F1000041EB045170BDA5
:1009B0000EF0004E4EEA113114EB5C04C2BFD4EBD2
:1009C0000C0541EA045170BD41F480114FF0000E56
:1009D000013C90E645EA060E8DE60CEA135594EAD2
:1009E0000C0F08BF95EA0C0F3FF43BAF94EA0C0FD5
:1009F0000AD150EA01347FF434AF95EA0C0F7FF44A
:100A000025AF104619462CE795EA0C0F06D152EA9D
:100A100003353FF4FDAE1046194622E750EA410681
:100A200018BF52EA43067FF4C5AE50EA41047FF492
:100A30000DAF52EA43057FF4EBAE12E74FF0FF3CF7
:100A400006E000BF4FF0010C02E000BF4FF0010CC8
:100A50004DF804CD4FEA410C7FEA6C5C4FEA430C41
:100A600018BF7FEA6C5C1BD001B050EA410C0CBF90
:100A700052EA430C91EA030F02BF90EA020F0020F2
:100A8000704710F1000F91EA030F58BF994208BF59
:100A900090422CBFD8176FEAE37040F00100704716
:100AA0004FEA410C7FEA6C5C02D150EA013C07D16D
:100AB0004FEA430C7FEA6C5CD6D152EA033CD3D0B8
:100AC0005DF8040B704700BF8446104662468C46B2
:100AD0001946634600E000BF01B5FFF7B7FF0028E5
:100AE00048BF10F1000F01BD4DF808EDFFF7F4FF0E
:100AF0000CBF012000205DF808FB00BF4DF808ED99
:100B0000FFF7EAFF34BF012000205DF808FB00BFBB
:100B10004DF808EDFFF7E0FF94BF012000205DF8DD
:100B200008FB00BF4DF808EDFFF7CEFF94BF012092
:100B300000205DF808FB00BF4DF808EDFFF7C4FF8B
:100B400034BF012000205DF808FB00BF4FEA410CD4
:100B50007FEA6C5C02D150EA013C0AD14FEA430CB7
:100B60007FEA6C5C02D152EA033C02D14FF00000F4
:100B700070474FF0010070474FEA410212F5001232
:100B800015D211D56FF47873B3EB625212D94FEAD4
:100B9000C12343F0004343EA505311F0004F23FABE
:100BA00002F018BF404270474FF00000704750EA13
:100BB000013005D111F0004008BF6FF000407047D0
:100BC0004FF00000704700BF4A0011D212F500122A
:100BD00011D20DD56FF47873B3EB62520ED44FEA95
:100BE000C12343F0004343EA505323FA02F0704715
:100BF0004FF00000704750EA013002D14FF0FF3053
:100C000070474FF00000704753B94AB9002908BF38
:100C100000281CBF4FF0FF314FF0FF3000F06AB9E1
:100C2000ADF1080C6DE904CE00F006F8DDF804E043
:100C3000DDE9022304B070472DE9F047089D0C461A
:100C4000002B4ED194468C458646B2FA82F262D988
:100C50004AB1C2F12003914020FA03F30CFA02FCDE
:100C6000194300FA02FE4FEA1C471FFA8CF6B1FB4B
:100C7000F7F44FEA1E4307FB141143EA014304FB58
:100C800006F199420AD91CEB030304F1FF3080F00E
:100C90001281994240F20F81023C6344591A1FFAB3
:100CA0008EF3B1FBF7F007FB101143EA014300FBA1
:100CB00006F69E420AD91CEB030300F1FF3180F0D7
:100CC000FC809E4240F2F980634402389B1B40EA5C
:100CD000044000211DB1D3400022C5E90032BDE827
:100CE000F0878B4205D90DB1C5E900010021084606
:100CF000F5E7B3FA83F1002946D1A34202D390422B
:100D0000C0F0F080861A64EB03030120002DE6D0CA
:100D1000C5E90063E3E7002A40F09080A1EB0C04F2
:100D20004FEA1C481FFA8CF70121B4FBF8F64FEA92
:100D30001E4308FB164443EA044307FB06F09842AF
:100D400008D91CEB030306F1FF3402D2984200F2EB
:100D5000CD8026461C1A1FFA8EF3B4FBF8F008FB70
:100D6000104443EA044300FB07F79F4208D91CEBF9
:100D7000030300F1FF3402D29F4200F2B08020460C
:100D8000DB1B40EA0640A5E7C1F120068B4022FAB2
:100D900006F71F4320FA06FC04FA01F343EA0C03AA
:100DA000F44000FA01F8380C4FEA1349B4FBF0FEA6
:100DB0001FFA87FC00FB1E4449EA04440EFB0CF9B1
:100DC000A14502FA01F20AD93C190EF1FF3A80F06E
:100DD0008480A14540F28180AEF1020E3C44A4EB38
:100DE00009041FFA83F9B4FBF0F300FB134449EA4A
:100DF000044403FB0CFCA44507D93C1903F1FF3064
:100E000067D2A44565D9023B3C4443EA0E40A0FBAF
:100E10000293A4EB0C049C42CE469C4651D34ED088
:100E200055B1B8EB0E0364EB0C0404FA06F6CB40A4
:100E30001E43CC40C5E90064002150E7C2F1200305
:100E400020FA03F10CFA02FC24FA03F394400C4359
:100E50004FEA1C4800FA02FE1FFA8CF7B3FBF8F0C9
:100E600008FB1031230C43EA014300FB07F19942D0
:100E700008D91CEB030300F1FF362CD299422AD982
:100E8000023863445B1AA4B2B3FBF8F108FB1133D8
:100E900044EA034401FB07F3A34208D91CEB040412
:100EA00001F1FF3613D2A34211D902396444E41A86
:100EB00041EA004139E70446F0E6084606E7C8453E
:100EC000AED2B9EB020E63EB070C0138A8E731464E
:100ED000EDE7034699E73046D4E7D6467FE763441B
:100EE00002384DE70646234608460FE7023E6344B4
:100EF00030E700BF704700BF80B400AFBFF34F8F33
:100F000000BF064BDB6803F4E0620449044B134363
:100F1000CB60BFF34F8F00BF00BFFDE700ED00E0E7
:100F20000400FA0580B500AF03F03AF800F09AF833
:100F300000F036FC00F060FB00F062FA00F0C2F94D
:100F400000F004FC00F0B0FA00F08EF900F000FBB5
:100F500000F0E6F800F036F90BF0F4F908F0C8FA02
:100F6000254A0021254808F00DFB0346244A13605A
:100F7000244A0021244808F005FB0346234A136055
:100F8000234A0021234808F0FDFA0346224A136051
:100F9000224A0021224808F0F5FA0346214A13604C
:100FA000214A0021214808F0EDFA0346204A136047
:100FB000204A0021204808F0E5FA03461F4A136042
:100FC0001F4A00211F4808F0DDFA03461E4A13603D
:100FD0001E4A00211E4808F0D5FA03461D4A136038
:100FE0001D4A00211D4808F0CDFA03461C4A136033
:100FF00008F0A2FA00BFFDE764F200084D2A0008DD
:101000009004002088F20008712A0008940400204F
:10101000ACF20008012B000898040020D0F2000870
:10102000912B00089C040020F4F20008692F0008AE
:10103000A004002018F3000841310008A404002097
:101040003CF3000899350008A804002060F300086C
:1010500045370008AC04002084F300086937000815
:10106000B004002080B594B000AF07F12003302217
:10107000002118460BF06FFF07F10C0300221A60E5
:101080005A609A60DA601A610023BB60224B1B6CC5
:10109000214A43F0805313641F4B1B6C03F08053B1
:1010A000BB60BB6800237B601C4B1B681B4A43F47E
:1010B00080431360194B1B6803F480437B607B689B
:1010C00002233B620123FB6210233B630023BB63CB
:1010D00007F12003184604F08FFF0346002B01D0D0
:1010E00002F04FFB0F23FB6000233B6100237B6179
:1010F0000023BB610023FB6107F10C0300211846AC
:1011000005F0F2F90346002B01D002F03AFB00BFD4
:101110005037BD4680BD00BF00380240007000401F
:1011200080B584B000AF3B4600221A605A609A60D6
:10113000DA60214B214A1A601F4B00225A601E4B75
:1011400000229A601C4B00221A611B4B00221A7667
:10115000194B002283F82020174B0022DA62164B2D
:10116000174A9A62144B0022DA60134B0122DA61AB
:10117000114B002283F830200F4B01225A610E4898
:1011800002F0A4FF0346002B01D002F0FAFA0B2371
:101190003B6001237B600023BB603B461946064849
:1011A00003F076F90346002B01D002F0EAFA00BF03
:1011B0001037BD4680BD00BFFC010020002001406B
:1011C0000100000F80B584B000AF3B4600221A60DA
:1011D0005A609A60DA60214B214A1A601F4B002244
:1011E0005A601E4B00229A601C4B00221A611B4B56
:1011F00000221A76194B002283F82020174B002278
:10120000DA62164B174A9A62144B0022DA60134BCB
:101210000122DA61114B002283F830200F4B0122AA
:101220005A610E4802F052FF0346002B01D002F033
:10123000A8FA0C233B6001237B600023BB603B4684
:101240001946064803F024F90346002B01D002F0AA
:1012500098FA00BF1037BD4680BD00BF4402002091
:10126000002101400100000F80B500AF124B134A6E
:101270001A60114B124A5A600F4B00229A600E4BB3
:101280000022DA600C4B4FF480421A610A4B0022B4
:101290005A61094B00229A61074B0022DA61064B22
:1012A00000221A62044803F085FE0346002B01D099
:1012B00002F067FA00BF80BD8C020020005400409D
:1012C000A086010080B596B000AF07F14803002268
:1012D0001A605A609A60DA6007F1400300221A60CF
:1012E0005A6007F1240300221A605A609A60DA609B
:1012F0001A615A619A613B1D2022002118460BF0A9
:101300002AFE3D4B3D4A1A603B4BA0225A603A4BA5
:1013100000229A60384B4FF47A72DA60364B002222
:101320001A61354B00225A61334B80229A61324850
:1013300005F0BAFA0346002B01D002F022FA4FF46E
:101340008053BB6407F1480319462B4806F016F991
:101350000346002B01D002F014FA274805F0F3FAF7
:101360000346002B01D002F00CFA00233B6400235B
:101370007B6407F1400319461F4806F079FE0346D7
:10138000002B01D002F0FDF960237B620023BB62D9
:101390000023FB6200237B630023BB630023FB630A
:1013A00007F124030C221946134806F025F80346DA
:1013B000002B01D002F0E5F900237B600023BB6025
:1013C0000023FB6000233B6100237B614FF400534B
:1013D000BB6100233B623B1D1946074806F0C4FE73
:1013E0000346002B01D002F0CCF9034802F008FCC0
:1013F00000BF5837BD4680BDE0020020000001401C
:1014000080B58CB000AF07F10C03242200211846F0
:101410000BF0A1FD3B1D00221A605A60214B4FF0DA
:1014200080421A601F4B00225A601E4B00229A60B5
:101430001C4B4FF6FF72DA601A4B00221A61194BEF
:1014400000229A610323FB6000233B6101237B613F
:101450000023BB610A23FB6100233B6201237B6203
:101460000023BB620A23FB6207F10C0319460D48F7
:1014700005F002FD0346002B01D002F082F90023A3
:101480007B600023BB603B1D1946064806F0F0FD5B
:101490000346002B01D002F074F900BF3037BD467F
:1014A00080BD00BF2803002080B58CB000AF07F1DD
:1014B0000C032422002118460BF04DFD3B1D002299
:1014C0001A605A60204B214A1A601F4B00225A6052
:1014D0001D4B00229A601C4B4FF6FF72DA601A4BCC
:1014E00000221A61184B00229A610323FB6000233B
:1014F0003B6101237B610023BB610A23FB61002365
:101500003B6201237B620023BB620A23FB6207F17B
:101510000C0319460C4805F0AFFC0346002B01D024
:1015200002F02FF900237B600023BB603B1D1946AE
:10153000054806F09DFD0346002B01D002F021F97D
:1015400000BF3037BD4680BD70030020000400405E
:1015500080B586B000AF07F1100300221A605A6010
:101560003B4600221A605A609A60DA60204B214A9A
:101570001A601F4B0F225A601D4B00229A601C4BB1
:101580004FF6FF72DA601A4B00221A61184B0022E4
:101590009A61174805F0F8FA0346002B01D002F0D3
:1015A000F0F800233B6100237B6107F1100319462B
:1015B0000F4806F05DFD0346002B01D002F0E1F874
:1015C00000233B6001237B600023BB600023FB60A2
:1015D0003B4600221946064805F072FE0346002BE2
:1015E00001D002F0CEF800BF1837BD4680BD00BF65
:1015F000B80300200008004080B596B000AF07F1A6
:10160000480300221A605A609A60DA6007F14003CA
:1016100000221A605A6007F1240300221A605A60FF
:101620009A60DA601A615A619A613B1D202200219A
:1016300018460BF090FC434B434A1A60414B002282
:101640005A60404B00229A603E4B41F61F42DA60DE
:101650003C4B00221A613B4B00225A61394B00225D
:101660009A61384805F020F90346002B01D002F0BA
:1016700088F84FF48053BB6407F14803194631489A
:1016800005F07CFF0346002B01D002F07AF82D48CC
:1016900005F059F90346002B01D002F072F800233F
:1016A0003B6400237B6407F140031946254806F09C
:1016B000DFFC0346002B01D002F063F860237B625D
:1016C0000023BB620023FB6200233B6300237B6398
:1016D0000023BB630023FB6307F1240300221946A8
:1016E000184805F089FE0346002B01D002F049F8A6
:1016F00007F1240304221946124805F07DFE034633
:10170000002B01D002F03DF800237B600023BB607A
:101710000023FB6000233B6100237B614FF40053F7
:10172000BB6100233B623B1D1946064806F01CFDC9
:101730000346002B01D002F024F800BF5837BD4605
:1017400080BD00BF000400200004014080B500AF50
:10175000114B124A1A60104B4FF4E1325A600E4B93
:1017600000229A600C4B0022DA600B4B00221A61B7
:10177000094B0C225A61084B00229A61064B002249
:10178000DA61054806F056FD0346002B01D001F052
:10179000F8FF00BF80BD00BF4804002000480040A3
:1017A00080B58CB000AF07F11C0300221A605A60AC
:1017B0009A60DA601A610023BB61494B1B6B484A8F
:1017C00043F010031363464B1B6B03F01003BB6124
:1017D000BB6900237B61424B1B6B414A43F0800392
:1017E00013633F4B1B6B03F080037B617B6900231A
:1017F0003B613B4B1B6B3A4A43F004031363384B8A
:101800001B6B03F004033B613B690023FB60344B1B
:101810001B6B334A43F001031363314B1B6B03F023
:101820000103FB60FB680023BB602D4B1B6B2C4A44
:1018300043F0080313632A4B1B6B03F00803BB60E0
:10184000BB6800237B60264B1B6B254A43F00203D9
:101850001363234B1B6B03F002037B607B68002246
:101860004FF4BC611F4803F071FB00223C211E486D
:1018700003F06CFB00224FF400511C4803F066FBA0
:101880004FF4BC63FB6101233B6200237B620023B6
:10189000BB6207F11C031946124803F0BBF93C2355
:1018A000FB6101233B6200237B620223BB6207F1E1
:1018B0001C0319460C4803F0ADF94FF40053FB61CB
:1018C00001233B6200237B620023BB6207F11C0300
:1018D0001946064803F09EF900BF3037BD4680BD6B
:1018E000003802400010024000000240000C02409C
:1018F00080B483B000AF7860044B01221A6000BF4F
:101900000C37BD465DF8047B704700BFB40400206F
:1019100080B582B000AF87ED000B31A3D3E900237F
:10192000D7E90001FEF778FE02460B46C7E900231F
:10193000234B92221A804FF4967007F0B5FE214B8C
:1019400000221A60204B00221A60204B204A1A60A5
:10195000204B1F4A1A60204B1D4A1A601F4B1C4A1D
:101960001A601D4B1B681846FEF7ECFDD7E90023F3
:10197000FEF79CFC02460B4610461946FFF7FCF8A2
:101980000346154A1360154B1B681846FEF7DAFD2F
:10199000D7E90023FEF78AFC02460B46104619469B
:1019A000FFF7EAF803460D4A136000BF00F084F920
:1019B0000346002BFAD100BF00BF0837BD4680BDEB
:1019C00000000020D0040020CC040020D804002017
:1019D000F8240100DC040020E0040020E4040020DE
:1019E0000000000000C0524080B582B000AF87ED1B
:1019F000000B124BFA221A804FF4E17007F054FEEC
:101A00000F4B00221A600F4B00221A600E4BD3E9D5
:101A10000001D7E90023FEF747FC02460B460A49BE
:101A2000C1E9002300BF00F047F90346002BFAD1BB
:101A300000BF00BF0837BD4680BD00BF00000020CA
:101A4000D0040020CC040020E804002080B582B03F
:101A500000AF87ED000B124B54221A804FF4E17057
:101A600007F022FE0F4B00221A600F4B00221A6073
:101A70000E4BD3E90001D7E90023FEF717FC02461D
:101A80000B460A49C1E9002300BF00F015F90346DF
:101A9000002BFAD100BF00BF0837BD4680BD00BF94
:101AA00000000020D0040020CC040020E804002026
:101AB00080B582B000AF786039603B68002B18D0E9
:101AC0007B68002B0ADD01221021354803F03EFA25
:101AD00000222021324803F039FA22E000221021AE
:101AE0002F4803F033FA012220212D4803F02EFA6B
:101AF00017E07B68002B0ADD01220821284803F04B
:101B000025FA00220421264803F020FA09E00022E9
:101B10000821234803F01AFA01220421204803F087
:101B200015FA7B68002BB8BF5B427B607B68B3F51E
:101B3000FA6F02DD40F6B8332DE07B68B3F5FA7F2B
:101B400002DD4FF4FA6326E07B68C82B02DD4FF418
:101B5000AF6320E07B68642B02DD4FF47A731AE0F8
:101B60007B68022B07DD0F4B1B6801330D4A1360A6
:101B70004FF4FA730FE07B68002B06DD094B1B68FE
:101B80000133084A1360002305E0064B1B6801334C
:101B9000044A1360002318460837BD4680BD00BFC5
:101BA00000000240CC04002080B586B000AF87ED75
:101BB000020B78604FF000023C4BD7E90201FEF7C0
:101BC0002BFD02460B4610461946FEF7D5FF03468D
:101BD0007B617B68002B18D07B69002B0ADD01221A
:101BE0001021334803F0B2F900222021304803F0DD
:101BF000ADF922E0002210212D4803F0A7F90122BF
:101C000020212B4803F0A2F917E07B69002B0ADAA8
:101C100001220821264803F099F9002204212448D2
:101C200003F094F909E000220821214803F08EF91D
:101C3000012204211E4803F089F97B69002BB8BFFB
:101C40005B427B617B69B3F5967F02DD41F28833AD
:101C500028E07B69C82B02DD40F6B83322E07B69BF
:101C6000962B02DD40F6B8331CE07B69642B02DD65
:101C70004FF4AF6316E07B690A2B02DD4FF4AF63CC
:101C800010E07B69012B07DD0A4B1B680133094A11
:101C900013604FF47A7305E0064B1B680133054A65
:101CA0001360002318461837BD4680BD000024404D
:101CB00000000240CC04002080B500AF104B1B6830
:101CC000052B19DD0F4B01221A600F4B00221A80E1
:101CD0000D4B1A880D4B1A800D4B1B680D4A136073
:101CE0000D4B1B680D4A1360054B00221A60C8207B
:101CF00007F0DAFC002300E00123184680BD00BF96
:101D0000CC040020D0040020C8040020CA04002015
:101D1000DC040020E4040020D8040020E0040020BB
:101D200080B584B002AF03463960FB710E4AFB797F
:101D300013700E4B1B785B0099B20A2300930123AA
:101D4000094A0B4803F07AFA084B1B785B0099B2FA
:101D50001423009302233A68054803F06DFB00BF8B
:101D60000837BD4680BD00BF0005002002000020EE
:101D70008C02002080B584B002AF03460A46FB7196
:101D80001346BB710A4AFB791370094ABB79537039
:101D9000084B1B785B0099B2142300930223044A7A
:101DA000054803F04BFA00BF0837BD4680BD00BFB1
:101DB00000050020020000208C02002080B500AF4A
:101DC00000210620FFF7D6FF0A2007F06DFC8021D6
:101DD0000320FFF7CFFF0A2007F066FC072107204A
:101DE000FFF7C8FF0A2007F05FFC01210620FFF77C
:101DF000C1FF0A2007F058FC20217F20FFF7BAFF1F
:101E00000A2007F051FC2F210120FFF7B3FF0A2021
:101E100007F04AFC00210020FFF7ACFF0A2007F082
:101E200043FC00217F20FFF7A5FF0A2007F03CFCC0
:101E300000210720FFF79EFF0A2007F035FC00BFB6
:101E400080BD000080B483B000AF0346FB80094B27
:101E50001B6800225A6200BF064B1B685A6AFB8847
:101E60009A42F9D300BF00BF0C37BD465DF8047B32
:101E7000704700BFB803002080B500AF01224FF4C7
:101E800000510B4803F062F80A20FFF7DBFF002245
:101E90004FF40051064803F059F8064B1B68DA6806
:101EA000044B1B6842F00202DA6000BF80BD00BF35
:101EB000000C0240B803002080B582B000AF78600B
:101EC0007B681B7F012B40F08480474B1B68002BF5
:101ED0001BD10021786805F019FC03461A46434BD4
:101EE0001A60414B01221A607B681B681A6A7B6882
:101EF0001B6822F00A021A627B681B681A6A7B68F8
:101F00001B6842F002021A6263E0374B1B68012B28
:101F10005FD10021786805F0F9FB03461A46344B7F
:101F20001A607B681B6800225A62314B1A682F4B7B
:101F30001B689A420DDD2E4B1A682C4B1B68D31A76
:101F40001846FEF7FFFA02460B462A49C1E900236C
:101F50000FE0264B1B68C3F57F43FF33244A12680A
:101F600013441846FEF7EEFA02460B462149C1E932
:101F70000023204BD3E9000119A3D3E90023FEF786
:101F80004BFB02460B46104619464FF000024FF03D
:101F90008043FEF76BFC02460B461749C1E900235C
:101FA000114B00221A607B681B681A6A7B681B68E9
:101FB00022F00A021A627B681A687B681B68126A40
:101FC0001A620E4B1B68DA680C4B1B6822F0020287
:101FD000DA6000BF0837BD4680BD00BFAFF30080A8
:101FE000006F8104C58FA13F14050020300500203B
:101FF000340500202805002020050020B80300201B
:10200000B0B500AF384802F0A5F86421364802F0B8
:10201000A6F9354802F02EFA03469AB2334B1A80DD
:10202000314802F069F9314B1B881846FEF78AFAED
:1020300025A3D3E90023FEF7EFFA02460B46144628
:102040001D462B4B1B881846FEF77CFA20A3D3E9CC
:102050000023FEF7E1FA02460B4620462946FEF72A
:1020600025F902460B4610461946FEF7ADFD03461C
:102070009AB21F4B1A801E4B1B88B3F5E17F03D227
:102080001C4B65221A801AE0194B1B881846FEF774
:1020900059FA11A3D3E90023FEF706F902460B46CD
:1020A0000FA1D1E90001FEF7E1FB02460B46104605
:1020B0001946FEF789FD03469AB20E4B1A8000BFFF
:1020C000B0BD00BFAFF30080333333333333C33F8E
:1020D000333333333333EB3F5C8FC2F528546540E1
:1020E000295C8FC21565DC40FC010020380500200A
:1020F0003C05002040050020B0B500AF384802F094
:1021000029F86421364802F02AF9354802F0B2F97C
:1021100003469AB2334B1A80314802F0EDF8314B46
:102120001B881846FEF70EFA25A3D3E90023FEF715
:1021300073FA02460B4614461D462B4B1B88184665
:10214000FEF700FA20A3D3E90023FEF765FA024662
:102150000B4620462946FEF7A9F802460B461046D4
:102160001946FEF731FD03469AB21F4B1A801E4BEB
:102170001B88B3F5E17F03D21C4B65221A801AE05D
:10218000194B1B881846FEF7DDF911A3D3E900238C
:10219000FEF78AF802460B460FA1D1E90001FEF7CF
:1021A00065FB02460B4610461946FEF70DFD034639
:1021B0009AB20E4B1A8000BFB0BD00BFAFF30080D3
:1021C000333333333333C33F333333333333EB3F7F
:1021D000A4703D0AD7B3604085EB51B84E79DD401D
:1021E000440200203A0500203E0500204205002060
:1021F00080B500AF224BD3E900014FF000024FF051
:102200004043FEF77BFC0346002B03D01D4B7F228F
:102210001A8033E01A4BD3E900014FF000024FF06F
:102220008043FEF789FC0346002B03D0154BA52203
:102230001A8023E0124BD3E900014FF00002124B49
:10224000FEF7EAF902460B46104619464FF0000227
:102250000E4BFEF70BFB02460B46104619464FF09D
:1022600000020B4BFEF722F802460B4610461946B9
:10227000FEF7AAFC03469AB2024B1A8000BF80BD4B
:10228000F80400200000002000003340000014404B
:102290000040624080B500AF234B01221A60234BFF
:1022A00000221A6022494FF000024FF00003C1E9FA
:1022B000002320494FF000024FF00003C1E9002342
:1022C0001D4B92221A804FF4967007F0EDF901220F
:1022D00008211A4802F03AFE00220421174802F0B1
:1022E00035FE01221021154802F030FE0022202187
:1022F000124802F02BFE09E0114B40F6AC521A8056
:102300000F4B1A880F4B1A80FFF772FF0E4B1B689A
:102310001B88312BF0D9054B01221A60024B002299
:102320001A6000BF80BD00BFD4040020D00400208C
:10233000F8040020E8040020000000200000024013
:10234000C8040020CA0400204405002080B500AF66
:102350003F4B01221A603F494FF000024FF000034B
:10236000C1E900233C494FF000024FF00003C1E9EE
:1023700000233A4B00221A60394B92221A803220F5
:1023800007F092F901220821364802F0DFFD002211
:102390000421344802F0DAFD01221021314802F014
:1023A000D5FD002220212F4802F0D0FD3CE02E4B2D
:1023B000D3E900014FF000022C4BFEF7BDFB0346B2
:1023C000002B08D02A4B41F270721A80294B41F23F
:1023D00070721A8026E0244BD3E900014FF000020E
:1023E000254BFEF7A9FB0346002B08D0204B40F2FB
:1023F000A4621A801F4B40F2A4621A8012E01A4BAA
:10240000D3E900014FF000021C4BFEF795FB034699
:10241000002B07D0164B40F2DC521A80154B40F2CD
:10242000DC521A80FFF7E4FE0F4BD3E900014FF0B6
:102430000002124BFEF780FB0346002BB7D1074B7F
:1024400001221A60024B00221A6000BF80BD00BF4B
:10245000D4040020F8040020E8040020D004002068
:10246000000000200000024020050020000049403C
:10247000CA040020C804002000004440000031408D
:1024800080B500AF3E4B1B79522B0FD19FED300B27
:10249000FFF7AAFA9FED300BFFF7D8FA9FED300B4C
:1024A000FFF736FA9FED2A0BFFF79EFA344B1B79A4
:1024B0004C2B0FD19FED260BFFF7C8FA9FED260B93
:1024C000FFF792FA9FED260BFFF722FA9FED200B04
:1024D000FFF7BCFA642007F0E7F82A4BD3E90001C4
:1024E0004FF00002284BFEF709FB0346002B04D0F7
:1024F0009FED1D0BFFF70CFA1EE0224BD3E9000104
:102500004FF00002214BFEF7F9FA0346002B04D0EE
:102510009FED170BFFF7FCF90EE01A4BD3E9000112
:102520004FF000021A4BFEF7E9FA0346002B03D0E6
:102530009FED110BFFF7ECF9164B92221A804FF426
:10254000967007F0B1F800BF80BD00BFAFF3008008
:102550000000000000004D400000000000005D4051
:10256000000000000000084000000000000039C02A
:102570000000000000002EC000000000000024C089
:10258000B804002020050020000024400000344052
:10259000000039400000002080B500AF3B4B012215
:1025A0001A603B4B00221A603A4B00221A60192035
:1025B00007F07AF801220821374802F0C7FC002210
:1025C0000421354802F0C2FC01221021324802F0F9
:1025D000BDFC00222021304802F0B8FC3CE02F4B2B
:1025E000D3E900014FF000022D4BFEF7A5FA034698
:1025F000002B08D02B4B41F270721A802A4B41F20B
:1026000070721A8026E0254BD3E900014FF00002DA
:10261000264BFEF791FA0346002B08D0214B40F2DF
:10262000A4621A80204B40F2A4621A8012E01B4B75
:10263000D3E900014FF000021D4BFEF77DFA03467F
:10264000002B07D0174B40F2DC521A80164B40F299
:10265000DC521A80FFF7CCFD104BD3E900014FF09C
:102660000002134BFEF768FA0346002BB7D1084B64
:1026700001221A60054B00221A60642007F014F84A
:10268000044B1B680B4A136000BF80BDD4040020BC
:10269000D0040020DC0400200000024020050020BF
:1026A00000004940CA040020C80400200000444043
:1026B00000003940F004002080B500AFAE4B1B791C
:1026C000522B07D1AD4BAE4A1A609FEDA10BFFF71D
:1026D0008BF90AE0A84B1B794C2B06D1A74BA94AD2
:1026E0001A609FED9B0BFFF7B1F94FF4FA7006F0FB
:1026F000DBFFA24B1B681B88322B03D99FED960B87
:10270000FFF706F9FFF7C6FD9B4B1B794C2B04D155
:102710009FED930BFFF768F907E0974B1B79522B5E
:1027200003D19FED8F0BFFF791F99FED8F0BFFF713
:10273000EFF8FFF7AFFD904B1B794C2B04D19FEDC9
:10274000840BFFF751F907E08B4B1B79522B03D118
:102750009FED7F0BFFF77AF98B4B92221A804FF493
:10276000967006F0A1FF89494FF000024FF0000378
:10277000C1E9002386494FF000024FF00003C1E990
:102780000023844B01221A60834B00221A6001222D
:102790000821824802F0DAFB002204217F4802F07F
:1027A000D5FB012210217D4802F0D0FB0022202120
:1027B0007A4802F0CBFB7A4B41F270721A80794B67
:1027C00041F270721A80784B00221A6001E0FFF724
:1027D0000FFD764B1B6803F5AC530A33724A12683F
:1027E0009342F4DA6C4B01221A606A4B00221A60A1
:1027F000614B1B794C2B04D19FED550BFFF7F4F87F
:1028000007E05D4B1B79522B03D19FED510BFFF776
:102810001DF95D4B92221A809FED550BFFF778F85A
:102820005C4B01221A605C4B00221A6001220821D5
:102830005A4802F08BFB00220421584802F086FB24
:1028400001221021554802F081FB0022202153482B
:1028500002F07CFB4D494FF000024FF00003C1E94C
:1028600000234B494FF000024FF00003C1E9002361
:1028700009E04C4B40F6AC521A804A4B1A88484B40
:102880001A80FFF7B5FC3D4B1B681B882D2BF0D839
:10289000414B01221A603F4B00221A609FED340B1E
:1028A000FFF736F8344B1B794C2B04D19FED280BE6
:1028B000FFF7CCF807E0304B1B79522B03D19FED8B
:1028C000240BFFF791F8304B92221A80314B0122F2
:1028D0001A602E494FF000024FF00003C1E90023B7
:1028E0002B494FF000024FF00003C1E900232A4BAF
:1028F00000221A604FF4967006F0D6FE01220821DD
:10290000264802F023FB00220421244802F01EFB8B
:1029100001221021214802F019FB002220211F482A
:1029200002F014FB71E0224BD3E900014FF00002EA
:10293000204BFEF701F90346002B3DD0184B41F226
:1029400070721A80174B41F270721A805BE000BF00
:10295000000000000080564000000000000039C068
:1029600000000000008066400000000000001C40E5
:102970000000000000002EC0B80400204405002024
:10298000400500204205002000000020F80400203F
:10299000E8040020D4040020D004002000000240FD
:1029A000CA040020C8040020DC040020F004002039
:1029B00020050020000049401D4BD3E900014FF0E5
:1029C00000021C4BFEF7B8F80346002B08D01A4B48
:1029D0004FF4FA621A80194B4FF4FA621A8012E02F
:1029E000134BD3E900014FF00002154BFEF7A4F89A
:1029F0000346002B07D0104B40F2DC521A800F4BDD
:102A000040F2DC521A80FFF7F3FB094BD3E90001D7
:102A10004FF000020A4BFEF78FF80346002B82D1DD
:102A2000084B01221A60084B00221A6000BF80BDCB
:102A30002005002000804140CA040020C804002076
:102A400000003440D0040020D404002080B582B0BF
:102A500000AF78604FF48061044802F090FA4FF4C0
:102A60007A7006F021FE00BFF4E700BF00100240BC
:102A700080B586B000AF78603C211F4804F0A2FA10
:102A800001237B6101F0F2FAF86001F0EFFA0246EF
:102A9000FB68D31A0A2B2AD9174B1B685B6ABB60E9
:102AA000BB68B3F5FA4F06DD01237B61BB68C3F554
:102AB00080333B6104E04FF0FF337B61BB683B61D7
:102AC0007B69012B06D10D4B1A683B69D31A0B4A5F
:102AD000136005E0094B1A683B691344074A136009
:102AE000054B1B6800225A6201F0C0FAF8603220E0
:102AF00006F0DAFDC9E700BF70030020D80400200B
:102B000080B586B000AF78603C211F4804F05AFAC7
:102B100001237B6101F0AAFAF86001F0A7FA0246EE
:102B2000FB68D31A0A2B2AD9174B1B685B6ABB6058
:102B3000BB68B3F5FA4F06DD01237B61BB68C3F5C3
:102B400080333B6104E04FF0FF337B61BB683B6146
:102B50007B69012B06D10D4B1A683B6913440B4A64
:102B6000136005E0094B1A683B69D31A074A1360E2
:102B7000054B1B6800225A6201F078FAF860322097
:102B800006F092FDC9E700BF28030020DC04002006
:102B900080B588B000AF78604123BB6149233B61B9
:102BA00000237B614F23BB810023FB61984B994A33
:102BB00092E803001860043319800522944996486E
:102BC00005F013FC954B1B68012B40F0A181944B41
:102BD00000221A6093498E48FDF7FAFA0346002B4B
:102BE00056D08B4B1B78462B03D0894B1B78422B3E
:102BF00023D1874B5B78532B07D0854B5B78522BC7
:102C000003D0834B5B784C2B17D1814B9B782F2BB8
:102C100013D97F4B9B78392B0FD87D4BDB782F2B2B
:102C20000BD97B4BDB78392B07D8794B1B792F2BB2
:102C300003D9774B1B79392B2AD97B497448FDF787
:102C4000C7FA0346002B23D078497148FDF7C0FA34
:102C50000346002B1CD076496D48FDF7B9FA0346B0
:102C6000002B15D073496A48FDF7B2FA0346002BD2
:102C70000ED071496648FDF7ABFA0346002B07D02A
:102C80006E496348FDF7A4FA0346002B40F02B8100
:102C9000614805F0CFFB5E4B9B78452B1DD05C4B0C
:102CA0009B78303B642202FB03F1594BDB78A3F1A4
:102CB000300213469B0013445B00CA18544B1B7927
:102CC000303B1344564A1360514B1B78422B04D1BE
:102CD000534B1B685B42524A13600A2006F0E4FC27
:102CE000032257494A480AF03EF90346002B49D1CE
:102CF000474BDB78312B02D0322B1ED03BE0444BCC
:102D00001B79552B06D0552B11DC4C2B0CD0522B9C
:102D10000AD00CE0FFF71AFB3D4B4A4A92E8030049
:102D200018600433198002E0FFF7AAFB00BF464B8E
:102D300001221A600123FB611DE0354B1B79552BE5
:102D400006D0552B11DC4C2B0CD0522B0AD00CE0AA
:102D5000FFF722FC2E4B3D4A92E803001860043333
:102D6000198002E0FFF7A8FC00BF374B01221A6070
:102D70000123FB6100BF264B354A92E8030018602F
:102D800004331980FB69002B40F0AA80204B5B784C
:102D9000453B0E2B00F2A48001A252F823F000BFA5
:102DA000B92E0008E12E0008E12E0008E12E0008EF
:102DB000E12E0008E12E0008E12E0008872E000811
:102DC000E12E0008E12E0008E12E0008E12E0008A7
:102DD000E12E0008552E0008DD2D0008104B1B6861
:102DE0001846FDF7AFFB02460B4643EC102BFEF7EF
:102DF0008FFD074B164A92E80300186004331980D0
:102E0000114B01221A600A2006F04EFC68E000BF58
:102E1000B804002098F1000848040020B404002001
:102E2000C4040020A0F10008A8F10008B0F10008D7
:102E3000B8F10008C0F10008C8F10008D0F100089E
:102E4000D8F10008DCF10008C0040020E4F100081B
:102E5000ECF100083B4B1B681846FDF773FB02467C
:102E60000B4643EC102BFEF7BFFD374B374A92E879
:102E70000300186004331980354B01221A600A20C0
:102E800006F012FC2CE02F4B1B681846FDF75AFB8E
:102E900002460B4643EC102BFEF7D8FD2A4B2B4A7B
:102EA00092E80300186004331980294B01221A604C
:102EB0000A2006F0F9FB13E0234B264A92E80300B0
:102EC0001860043319804FF6FF7302222249234809
:102ED00005F000FA4FF4FA7006F0E6FBFEF70CF886
:102EE0000023FB6114E0184B1D4A92E803001860B0
:102EF000043319800A2006F0D7FB07F110014FF6C2
:102F0000FF730822154805F0E5F9164B00221A60F8
:102F10000F4B1B68012B10D1124B00221A600A20A4
:102F200006F0C2FB07F118014FF6FF7304220B48AD
:102F300005F0D0F9064B00221A600A2006F0B4FB17
:102F40003BE600BFC4040020B8040020ECF10008F8
:102F5000C0040020A0F10008F4F10008480400209B
:102F6000F8F10008B4040020B0B5BEB004AF78603A
:102F70000023C7F8D03007F1D40300221A605A604A
:102F80009A60DA600023C7F8BC3007F1C003002262
:102F90001A605A609A60DA600023C7F8A83007F117
:102FA000AC0300221A605A609A60DA6007F1580395
:102FB00050220021184609F0CEFF07F108035022E5
:102FC0000021184609F0C7FF4F4BD3E900454E4B8F
:102FD000D3E9002310461946FDF7CEFD03461846F7
:102FE000FDF7B0FA02460B4620462946FDF75CF98C
:102FF00002460B46104619464FF00002434BFDF7C0
:103000000BFB02460B4610461946FDF7B5FD03467D
:10301000002BB8BF5B42C7F8E4303B4BD3E9002339
:1030200010461946FDF7A8FD024607F1D000D7F873
:10303000E430374909F02CFF07F1D0031A4600218C
:10304000002009F04DF9334B1B781C46314B5B785F
:103050001D46304B9B781A462E4BDB7819462D4B7C
:103060001B7907F1BC000293019100922B46224686
:10307000294909F00DFF07F1BC031A460A21002077
:1030800009F02EF9254BD3E9002310461946FDF728
:1030900073FD0346224A1360214B1A6807F1A80307
:1030A0002049184609F0F4FE07F1A8031A46142136
:1030B000002009F015F91C4B1B881A461B4B1B8876
:1030C00007F158001A4909F0E3FE07F158031A46C0
:1030D0001E21002009F004F9164B1B881A46164BD6
:1030E0001B8807F10800154909F0D2FE07F1080313
:1030F0001A462821002009F0F3F808F07DFF64202B
:1031000006F0D2FA00BF5FE7F804002000408F40CD
:1031100000F20008B804002010F20008200500208A
:103120001805002020F200083C0500204005002082
:103130002CF200083E050020420500203CF2000869
:1031400080B586B000AF7860AF4B00221A80AF4BDD
:1031500000221A8000237B610021AD4803F04CFC63
:103160000421AB4803F048FC0C21AA4803F044FCBE
:10317000A84B1B6892221A6401221021A64801F074
:10318000E5FE00222021A44801F0E0FE01220821F2
:10319000A14801F0DBFE002204219F4801F0D6FE89
:1031A0004FF47A7006F080FA9C4B1A88994B1B6892
:1031B0001A649B4B1B68012B00F0A581994BD3E946
:1031C0000001994BD3E90023FDF76EF802460B4648
:1031D000C7E90223914B1B887E2B4CD8012097ED29
:1031E000020BFEF7E1FC03461846FDF7ABF982A39C
:1031F000D3E90023FDF710FA02460B4610461946A4
:10320000FDF7E2FC03469AB27F4B1A807E4B1B8887
:103210001846FDF797F97AA3D3E90023FDF7FCF9E7
:1032200002460B4610461946FDF7CEFC03469AB2FD
:10323000764B1A804FF000024FF00003D7E90201ED
:10324000FDF77AFC0346002B0AD0012208217248C0
:1032500001F07CFE002204216F4801F077FE52E16C
:10326000002208216C4801F071FE012204216A4805
:1032700001F06CFE47E1694B1B88BD2B3DD9002056
:1032800097ED020BFEF790FC03469AB25F4B1A8053
:103290005E4B1B881846FDF755F959A3D3E9002367
:1032A000FDF7BAF902460B4610461946FDF78CFCAD
:1032B00003469AB2544B1A804FF000024FF00003BD
:1032C000D7E90201FDF71AFC0346002B0AD00122C0
:1032D0001021514801F03AFE002220214E4801F011
:1032E00035FE10E1002210214B4801F02FFE012293
:1032F0002021494801F02AFE05E14C4B1A684C4B4D
:103300001B68D31A00211846FEF7D2FB0346184665
:10331000FDF718F938A3D3E90023FDF77DF902463C
:103320000B4610461946FDF74FFC03469AB2364B42
:103330001A803E4B1A683E4B1B68D31A83EAE3722D
:10334000A2EBE3723B4B19683B4B1B68CB1A002B7B
:10335000B8BF5B429A4203DD7B6901337B6102E0C7
:103360007B69013B7B61314B1A68314B1B68D31A77
:1033700013F1630F08DB2D4B1A682D4B1B68D31A12
:10338000632B01DC00237B612A4B1A682A4B1B68E4
:10339000D31A01211846FEF78BFB03469AB27B69CC
:1033A0009BB213449AB2194B1A80204B1A68204BD7
:1033B0001B68D31A002B65DA4FF000024FF08043F0
:1033C000D7E90201FDF7B8FB0346002B03D0134BEE
:1033D000A5221A8097E04FF000024FF04043D7E952
:1033E0000201FDF78BFB0346002B27D00B4B7F22FE
:1033F0001A8088E0AFF30080F4FDD478E926F13F2D
:10340000E17A14AE47E1E23FC8040020CA0400207C
:1034100000040020E0020020000002400000002024
:10342000D4040020E8040020F8040020E404002074
:10343000DC040020E0040020D80400204FF000024B
:10344000464BD7E90201FDF7E7F802460B46104666
:1034500019464FF00002424BFDF708FA02460B46B0
:10346000104619464FF000023E4BFCF71FFF024684
:103470000B4610461946FDF7A7FB03469AB23A4B96
:103480001A8040E04FF000024FF08043D7E902017C
:10349000FDF752FB0346002B03D0334B7F221A80EB
:1034A00031E04FF000024FF04043D7E90201FDF751
:1034B00025FB0346002B03D02B4BA5221A8022E0CC
:1034C0004FF00002294BD7E90201FDF7A5F80246AB
:1034D0000B46104619464FF00002214BFDF7C6F986
:1034E00002460B46104619464FF000021D4BFCF7F2
:1034F000DDFE02460B4610461946FDF765FB034606
:103500009AB2194B1A801A4B1B68002B0ED0194B1C
:1035100000221A80174B1A88174B1A80174B1B680A
:10352000174A1360174B1B68174A1360124B1A880F
:10353000164B1B685A630F4B1A88144B1B689A630F
:103540000A2006F0B1F8124B1B68B3F57A7F7FF7BB
:103550002BAE0F4B40F2E9321A6025E600003340F3
:10356000000014400040624000000020000033C012
:10357000D0040020C8040020CA040020DC0400207D
:10358000E4040020D8040020E0040020000400200F
:10359000CC04002000000000B0B58AB000AF786015
:1035A000FEF70CFC00233B8100237B8100237B6220
:1035B0004FF000024FF00003C7E906234FF000026E
:1035C0004FF00003C7E904230023FB605C494FF080
:1035D00000024FF00003C1E90023322006F064F836
:1035E00000F044FD786248E0052006F05DF807F140
:1035F000080319463720FEF793FB7B7A1AB23B7A11
:103600001B021BB213437B81B7F90A301846FCF743
:1036100099FF04460D4600F029FD02467B6AD31A45
:103620001846FCF77FFF44A3D3E90023FDF71EF9FA
:1036300002460B4620462946FCF7EEFF02460B46A3
:10364000D7E90401FCF732FE02460B46C7E9042322
:10365000B7F90A301846FCF775FF02460B46D7E962
:103660000601FCF723FE02460B46C7E9062300F0DD
:10367000FDFC7862FB680133FB60FB68B3F57A7F81
:10368000B2DBF868FCF75EFF02460B46D7E906019D
:10369000FDF7ECF802460B46C7E9062300F0E6FC0E
:1036A0007862052006F000F807F108031946372074
:1036B000FEF736FB7B7A1AB23B7A1B021BB213432E
:1036C0007B81B7F90A301846FCF73CFFD7E906239F
:1036D000FCF7EAFD02460B4614461D4600F0C6FC08
:1036E00002467B6AD31A1846FCF71CFF12A3D3E9E3
:1036F0000023FDF7BBF802460B4620462946FCF79F
:103700008BFF02460B46104619460D4BD3E90023AA
:10371000FCF7CCFD02460B460949C1E90023B7F985
:103720000A30FA68D31AFB60FB680133FB6000F0D3
:103730009DFC786200BFB4E7000000000004D040A8
:10374000F804002080B582B000AF78600021054801
:1037500003F06AFAFEF790FB0A2005F0A5FF00BF10
:10376000F8E700BFB803002080B582B000AF7860F2
:10377000FEF746FCFEF7C0FC192005F095FF00BFE0
:10378000F6E780B400AF72B600BF00BFFDE70000EF
:1037900080B582B000AF00237B60164B5B6C154A8E
:1037A00043F480435364134B5B6C03F480437B60AE
:1037B0007B6800233B600F4B1B6C0E4A43F0805329
:1037C00013640C4B1B6C03F080533B603B6800227E
:1037D0000F216FF0010001F054F9002205210520AE
:1037E00001F04FF9052001F068F900BF0837BD4628
:1037F00080BD00BF0038024080B58CB000AF78605B
:1038000007F11C0300221A605A609A60DA601A619C
:103810007B681B682E4A934228D10023BB612D4B45
:103820005B6C2C4A43F4807353642A4B5B6C03F447
:103830008073BB61BB6900237B61264B1B6B254AF0
:1038400043F004031363234B1B6B03F004037B61FE
:103850007B690223FB6103233B6200237B6207F148
:103860001C0319461C4801F0D5F92CE07B681B6845
:103870001A4A934227D100233B61164B5B6C154AD1
:1038800043F400735364134B5B6C03F400733B61AC
:103890003B690023FB600F4B1B6B0E4A43F0040394
:1038A00013630C4B1B6B03F00403FB60FB680423E6
:1038B000FB6103233B6200237B6207F11C03194673
:1038C000054801F0A7F900BF3037BD4680BD00BFF5
:1038D0000020014000380240000802400021014061
:1038E00080B58AB000AF786007F1140300221A6037
:1038F0005A609A60DA601A617B681B68194A9342C1
:103900002CD100233B61184B1B6B174A43F0020379
:103910001363154B1B6B03F002033B613B694FF4D0
:1039200040737B611223BB610023FB6103233B6275
:1039300004237B6207F1140319460C4801F06AF96D
:103940000023FB60084B1B6C074A43F4001313640D
:10395000054B1B6C03F40013FB60FB6800BF2837AA
:10396000BD4680BD005400400038024000040240C3
:1039700080B58AB000AF786007F1140300221A60A6
:103980005A609A60DA601A617B681B68234A934226
:103990000ED100233B61224B5B6C214A43F00103B3
:1039A00053641F4B5B6C03F001033B613B6930E0E8
:1039B0007B681B681B4A93422BD10023FB60184B8A
:1039C0005B6C174A43F002035364154B5B6C03F0C6
:1039D0000203FB60FB680023BB60114B1B6B104AAA
:1039E00043F0040313630E4B1B6B03F00403BB6033
:1039F000BB68C0237B610223BB610023FB61002302
:103A00003B6203237B6207F114031946064801F069
:103A100001F900BF2837BD4680BD00BF000001404E
:103A200000380240000401400008024080B58CB01C
:103A300000AF786007F11C0300221A605A609A6098
:103A4000DA601A617B681B68B3F1804F4BD10023A9
:103A5000BB613F4B1B6C3E4A43F0010313643C4B7C
:103A60001B6C03F00103BB61BB6900237B61384B16
:103A70001B6B374A43F001031363354B1B6B03F099
:103A800001037B617B6900233B61314B1B6B304A37
:103A900043F0020313632E4B1B6B03F002033B61E5
:103AA0003B694FF40043FB6102233B6200237B62CE
:103AB0000023BB620123FB6207F11C031946254862
:103AC00001F0A8F80823FB6102233B6200237B621C
:103AD0000023BB620123FB6207F11C0319461E4849
:103AE00001F098F830E07B681B681C4A93422BD1A8
:103AF0000023FB60164B1B6C154A43F00203136452
:103B0000134B1B6C03F00203FB60FB680023BB60DC
:103B10000F4B1B6B0E4A43F0010313630C4B1B6BE3
:103B200003F00103BB60BB68C023FB6102233B625F
:103B300000237B620023BB620223FB6207F11C03AC
:103B40001946044801F066F800BF3037BD4680BD15
:103B5000003802400000024000040240000400401F
:103B600080B58AB000AF786007F1140300221A60B4
:103B70005A609A60DA601A617B681B681D4A93423A
:103B800034D100233B611C4B1B6C1B4A43F00403E4
:103B90001364194B1B6C03F004033B613B69002366
:103BA000FB60154B1B6B144A43F008031363124B65
:103BB0001B6B03F00803FB60FB684FF480537B61D1
:103BC0000223BB610023FB6100233B6202237B6273
:103BD00007F114031946094801F01CF800220521D9
:103BE0001E2000F04EFF1E2000F067FF00BF2837A8
:103BF000BD4680BD0008004000380240000C024075
:103C000080B588B000AF786007F10C0300221A601D
:103C10005A609A60DA601A617B681B68124A9342A4
:103C20001ED10023BB60114B1B6B104A43F01003E5
:103C300013630E4B1B6B03F01003BB60BB684FF4A8
:103C40008043FB6002233B6100237B610023BB6157
:103C50000123FB6107F10C031946054800F0DAFF68
:103C600000BF2037BD4680BD000001400038024043
:103C70000010024080B58AB000AF786007F11403ED
:103C800000221A605A609A60DA601A617B681B68C9
:103C90001D4A934234D100233B611C4B1B6C1B4AD1
:103CA00043F480231364194B1B6C03F480233B61A2
:103CB0003B690023FB60154B1B6B144A43F0040364
:103CC0001363124B1B6B03F00403FB60FB684FF4A0
:103CD00040637B610223BB610023FB6103233B62E2
:103CE00007237B6207F114031946094800F092FF8D
:103CF00000220521272000F0C4FE272000F0DDFE71
:103D000000BF2837BD4680BD004800400038024053
:103D10000008024080B400AF00BFFDE780B400AFF0
:103D200000BFFDE780B400AF00BFFDE780B400AF87
:103D300000BFFDE780B400AF00BFFDE780B400AF77
:103D400000BFBD465DF8047B704780B500AF00F052
:103D500079F907F0D1F80346012B01D007F0CCFE2A
:103D600000BF80BD80B400AF00BFBD465DF8047BDE
:103D70007047000080B500AF024803F0B1F900BF02
:103D800080BD00BFB803002080B500AF024804F03A
:103D900003FC00BF80BD00BF4804002080B400AF1A
:103DA00001231846BD465DF8047B704780B582B09C
:103DB00000AF7860396009F033F9034616221A60C3
:103DC0004FF0FF3318460837BD4680BD80B582B03E
:103DD00000AF78604FF0FF317868FFF7E7FF00BF72
:103DE000FDE780B586B000AFF860B9607A60002367
:103DF0007B610AE0AFF300800146BB685A1CBA60E1
:103E0000CAB21A707B6901337B617A697B689A4216
:103E1000F0DB7B6818461837BD4680BD80B586B09C
:103E200000AFF860B9607A6000237B6109E0BB688D
:103E30005A1CBA601B781846AFF300807B690133C7
:103E40007B617A697B689A42F1DB7B681846183798
:103E5000BD4680BD80B483B000AF78604FF0FF33C3
:103E600018460C37BD465DF8047B704780B483B0BC
:103E700000AF786039603B684FF400525A6000230D
:103E800018460C37BD465DF8047B704780B483B09C
:103E900000AF7860012318460C37BD465DF8047BFF
:103EA000704780B485B000AFF860B9607A600023D5
:103EB00018461437BD465DF8047B704780B586B060
:103EC00000AF7860144A154BD31A7B617B693B6164
:103ED000134B1B68002B02D1114B124A1A60104B76
:103EE0001A687B6813443A699A4207D209F098F835
:103EF00003460C221A604FF0FF3309E0084B1B68A1
:103F0000FB60074B1A687B681344054A1360FB6823
:103F100018461837BD4680BD00000220000400008E
:103F200048050020F053002080B400AF064BD3F8C2
:103F30008830054A43F47003C2F8883000BFBD469C
:103F40005DF8047B704700BF00ED00E0DFF834D07F
:103F5000FFF7EAFF0C480D490D4A002302E0D45850
:103F6000C4500433C4188C42F9D30A4A0A4C0023C3
:103F700001E013600432A242FBD309F057F8FCF7CA
:103F8000D1FF70470000022000000020DC0100206B
:103F9000A8010108E0010020EC530020FEE700002A
:103FA00080B500AF0E4B1B680D4A43F400731360DD
:103FB0000B4B1B680A4A43F480631360084B1B6871
:103FC000074A43F480731360032000F04FFD0F2075
:103FD00000F008F8FFF7DCFB0023184680BD00BFA7
:103FE000003C024080B582B000AF7860124B1A6886
:103FF000124B1B7819464FF47A73B3FBF1F3B2FB03
:10400000F3F3184600F067FD0346002B01D00123AF
:104010000EE07B680F2B0AD8002279684FF0FF3042
:1040200000F02FFD064A7B681360002300E00123A7
:1040300018460837BD4680BD040000200C00002053
:104040000800002080B400AF064B1B781A46064BD0
:104050001B681344044A136000BFBD465DF8047B2F
:10406000704700BF0C0000204C05002080B400AF5A
:10407000034B1B681846BD465DF8047B704700BFC4
:104080004C05002080B584B000AF7860FFF7EEFFEC
:10409000B8607B68FB60FB68B3F1FF3F05D00A4B5B
:1040A0001B781A46FB681344FB6000BFFFF7DEFF76
:1040B0000246BB68D31AFA689A42F7D800BF00BF1D
:1040C0001037BD4680BD00BF0C00002080B584B015
:1040D00000AF78600023FB737B68002B01D10123C4
:1040E00033E07B681B6C002B09D17868FFF784FBF9
:1040F0007B6800225A647B68002283F83C207B683E
:104100001B6C03F01003002B18D17B681B6C23F48D
:10411000885323F0020343F002027B681A64786834
:1041200000F0D8FA7B6800225A647B681B6C23F08D
:10413000030343F001027B681A6401E00123FB736F
:104140007B68002283F83C20FB7B18461037BD4675
:1041500080BD000080B485B000AF78600023BB60F4
:104160007B6893F83C30012B01D10223B2E07B68DD
:10417000012283F83C207B681B689B6803F00103E5
:10418000012B18D07B681B689A687B681B6842F01B
:1041900001029A60524B1B68524AA2FB03239A0CFD
:1041A00013465B001344BB6002E0BB68013BBB608D
:1041B000BB68002BF9D17B681B689B6803F0010387
:1041C000012B7AD17B681B6C23F4E06323F001039D
:1041D00043F480727B681A647B681B685B6803F435
:1041E0008063002B07D07B681B6C23F4405343F49F
:1041F00080527B681A647B681B6C03F48053B3F5B0
:10420000805F06D17B685B6C23F006027B685A6492
:1042100002E07B6800225A647B68002283F83C201D
:10422000314BFB607B681B686FF022021A60FB68F1
:104230005B6803F01F03002B2AD17B681B682B4AA5
:10424000934215D07B681B68294A934205D1264BBF
:104250005B6803F01F03002B0AD07B681B68254AAC
:10426000934236D1204B5B6803F01003002B30D112
:104270007B681B689B6803F04053002B29D17B6847
:104280001B689A687B681B6842F080429A6020E055
:104290007B681B68154A93421BD17B681B689B682F
:1042A00003F04053002B14D17B681B689A687B682D
:1042B0001B6842F080429A600BE07B681B6C43F005
:1042C00010027B681A647B685B6C43F001027B68B8
:1042D0005A64002318461437BD465DF8047B7047C6
:1042E0000400002083DE1B43002301400020014026
:1042F000002101400022014080B483B000AF78600B
:104300007B6893F83C30012B01D1022321E07B68CC
:10431000012283F83C207B681B689A687B681B68D5
:1043200022F001029A607B681B689B6803F001031E
:10433000002B09D17B681B6C23F4885323F0010305
:1043400043F001027B681A647B68002283F83C20FA
:10435000002318460C37BD465DF8047B704780B5D6
:1043600084B000AF786039600023FB607B681B6815
:104370009B6803F48063B3F5806F13D17B681B687F
:104380009B6803F48073B3F5807F0BD17B681B6C53
:1043900043F020027B681A647B68002283F83C208B
:1043A000012363E0FFF762FEF86021E03B68B3F1B0
:1043B000FF3F1DD03B68002B07D0FFF757FE02469A
:1043C000FB68D31A3A689A4212D27B681B681B6852
:1043D00003F00203022B0BD07B681B6C43F004023A
:1043E0007B681A647B68002283F83C2003233DE04D
:1043F0007B681B681B6803F00203022BD6D17B6825
:104400001B686FF012021A607B681B6C43F4007229
:104410007B681A647B681B689B6803F04053002B21
:1044200023D17B681B7E002B1FD17B681B68DB6A56
:1044300003F47003002B06D07B681B689B6803F4B1
:104440008063002B11D17B681B6C23F480727B6826
:104450001A647B681B6C03F48053002B05D17B68C6
:104460001B6C43F001027B681A6400231846103766
:10447000BD4680BD80B483B000AF78607B681B68A8
:10448000DB6C18460C37BD465DF8047B70470000B6
:1044900080B485B000AF786039600023BB607B6872
:1044A00093F83C30012B01D1022305E17B68012206
:1044B00083F83C203B681B68092B25D97B681B6867
:1044C000D9683B681B689BB21A4613465B001344CD
:1044D0001E3B072202FA03F3DA437B681B680A409B
:1044E000DA607B681B68D9683B689A683B681B6820
:1044F0009BB2184603465B0003441E3B9A407B6810
:104500001B680A43DA6022E07B681B6819693B6814
:104510001B689BB21A4613465B001344072202FA3B
:1045200003F3DA437B681B680A401A617B681B68E7
:1045300019693B689A683B681B689BB2184603463A
:104540005B0003449A407B681B680A431A613B681E
:104550005B68062B24D87B681B68596B3B685A68DC
:1045600013469B001344053B1F2202FA03F3DA4370
:104570007B681B680A405A637B681B68596B3B6801
:104580001B689BB218463B685A6813469B0013444D
:10459000053B00FA03F27B681B680A435A634CE050
:1045A0003B685B680C2B24D87B681B68196B3B68E5
:1045B0005A6813469B001344233B1F2202FA03F35D
:1045C000DA437B681B680A401A637B681B68196BB7
:1045D0003B681B689BB218463B685A6813469B00B1
:1045E0001344233B00FA03F27B681B680A431A63F7
:1045F00023E07B681B68D96A3B685A6813469B00B6
:104600001344413B1F2202FA03F3DA437B681B6821
:104610000A40DA627B681B68D96A3B681B689BB2F8
:1046200018463B685A6813469B001344413B00FA06
:1046300003F27B681B680A43DA62224BFB607B68EB
:104640001B68214A934209D13B681B68122B05D194
:10465000FB685B6843F48002FB685A607B681B68F8
:10466000194A934223D13B681B68102B03D03B6847
:104670001B68112B1BD1FB685B6843F40002FB68CD
:104680005A603B681B68102B11D1104B1B68104AF5
:10469000A2FB03239A0C13469B0013445B00BB60F0
:1046A00002E0BB68013BBB60BB68002BF9D17B68B3
:1046B000002283F83C20002318461437BD465DF8DD
:1046C000047B7047002301400020014004000020CB
:1046D00083DE1B4380B485B000AF7860794BFB600C
:1046E000FB685B6823F44032FB685A60FB685A68D9
:1046F0007B685B681A43FB685A607B681B685A6872
:104700007B681B6822F480725A607B681B6859685A
:104710007B681B691A027B681B680A435A607B68C6
:104720001B685A687B681B6822F040725A607B687D
:104730001B6859687B689A687B681B680A435A60E3
:104740007B681B689A687B681B6822F400629A6029
:104750007B681B6899687B68DA687B681B680A431A
:104760009A607B689B6A584A934222D07B681B6898
:104770009A687B681B6822F070629A607B681B688D
:1047800099687B689A6A7B681B680A439A607B68B1
:104790001B689A687B681B6822F040529A607B68AD
:1047A0001B6899687B68DA6A7B681B680A439A60B1
:1047B0000FE07B681B689A687B681B6822F0706258
:1047C0009A607B681B689A687B681B6822F040527D
:1047D0009A607B681B689A687B681B6822F00202FB
:1047E0009A607B681B6899687B681B7E5A007B68AF
:1047F0001B680A439A607B6893F82030002B1BD01B
:104800007B681B685A687B681B6842F400625A60C8
:104810007B681B685A687B681B6822F460425A6098
:104820007B681B6859687B685B6A013B5A037B683D
:104830001B680A435A6007E07B681B685A687B68FC
:104840001B6822F400625A607B681B68DA6A7B6826
:104850001B6822F47002DA627B681B68D96A7B6885
:10486000DB69013B1A057B681B680A43DA627B68D7
:104870001B689A687B681B6822F400729A607B68E8
:104880001B6899687B6893F830305A027B681B6814
:104890000A439A607B681B689A687B681B6822F4ED
:1048A00080629A607B681B6899687B685B699A0282
:1048B0007B681B680A439A6000BF1437BD465DF8E9
:1048C000047B7047002301400100000F80B485B0D5
:1048D00000AF78607B6803F00703FB600C4BDB687C
:1048E000BB60BA684FF6FF031340BB60FB681A0257
:1048F000BB68134343F0BF6343F40033BB60044A17
:10490000BB68D36000BF1437BD465DF8047B7047B9
:1049100000ED00E080B400AF044BDB681B0A03F03D
:1049200007031846BD465DF8047B704700ED00E0C4
:1049300080B483B000AF0346FB7197F90730002BBA
:104940000BDBFB7903F01F02074997F907305B097E
:10495000012000FA02F241F8232000BF0C37BD46C7
:104960005DF8047B704700BF00E100E080B483B0D5
:1049700000AF03463960FB7197F90730002B0ADB63
:104980003B68DAB20C4997F907301201D2B20B44F6
:1049900083F800230AE03B68DAB20849FB7903F0A8
:1049A0000F03043B1201D2B20B441A7600BF0C373E
:1049B000BD465DF8047B704700E100E000ED00E0DB
:1049C00080B489B000AFF860B9607A60FB6803F02A
:1049D0000703FB61FB69C3F10703042B28BF042312
:1049E000BB61FB690433062B02D9FB69033B00E082
:1049F00000237B614FF0FF32BB6902FA03F3DA4315
:104A0000BB681A407B699A404FF0FF317B6901FA1D
:104A100003F3D9437B680B40134318462437BD4644
:104A20005DF8047B7047000080B582B000AF78600D
:104A30007B68013BB3F1807F01D301230FE00A4A79
:104A40007B68013B53600F214FF0FF30FFF78EFF73
:104A5000054B00229A60044B07221A600023184677
:104A60000837BD4680BD00BF10E000E080B582B0D1
:104A700000AF78607868FFF729FF00BF0837BD46B0
:104A800080BD80B586B000AF0346B9607A60FB7325
:104A900000237B61FFF73EFF78617A68B968786927
:104AA000FFF78EFF024697F90F3011461846FFF7C1
:104AB0005DFF00BF1837BD4680BD80B582B000AF36
:104AC0000346FB7197F907301846FFF731FF00BF27
:104AD0000837BD4680BD80B582B000AF7860786889
:104AE000FFF7A2FF034618460837BD4680BD80B5D4
:104AF00084B000AF78607B689B6DFB60FFF7B6FA0F
:104B0000B8607B6893F83530DBB2022B08D07B6845
:104B100080225A657B68002283F83420012352E00A
:104B20007B681B681A687B681B6822F016021A6093
:104B30007B681B685A697B681B6822F080025A6197
:104B40007B681B6C002B03D17B689B6C002B07D010
:104B50007B681B681A687B681B6822F008021A6071
:104B60007B681B681A687B681B6822F001021A6068
:104B700013E0FFF77BFA0246BB68D31A052B0CD96A
:104B80007B6820225A657B68032283F835207B6886
:104B9000002283F83420032315E07B681B681B6820
:104BA00003F00103002BE4D17B68DB6D3F229A40C8
:104BB000FB689A607B68012283F835207B680022BD
:104BC00083F83420002318461037BD4680BD80B4DA
:104BD00083B000AF78607B6893F83530DBB2022B8E
:104BE00004D07B6880225A6501230CE07B68052293
:104BF00083F835207B681B681A687B681B6822F085
:104C000001021A60002318460C37BD465DF8047B8C
:104C10007047000080B489B000AF7860396000232D
:104C20007B6100233B610023BB610023FB616BE1DF
:104C30000122FB6902FA03F37B613B681B687A6916
:104C400013403B613A697B699A4240F05A813B6864
:104C50005B6803F00303012B05D03B685B6803F03E
:104C60000303022B30D17B689B68BB61FB695B004F
:104C7000032202FA03F3DB43BA691340BB613B68CA
:104C8000DA68FB695B0002FA03F3BA691343BB619C
:104C90007B68BA699A607B685B68BB610122FB69CB
:104CA00002FA03F3DB43BA691340BB613B685B68FC
:104CB0001B0903F00102FB6902FA03F3BA6913430B
:104CC000BB617B68BA695A603B685B6803F00303A9
:104CD000032B17D07B68DB68BB61FB695B00032299
:104CE00002FA03F3DB43BA691340BB613B689A687D
:104CF000FB695B0002FA03F3BA691343BB617B688B
:104D0000BA69DA603B685B6803F00303022B23D1C6
:104D1000FB69DA087B68083253F82230BB61FB6913
:104D200003F007039B000F2202FA03F3DB43BA6987
:104D30001340BB613B681A69FB6903F007039B00E2
:104D400002FA03F3BA691343BB61FB69DA087B68B3
:104D50000832B96943F822107B681B68BB61FB69A4
:104D60005B00032202FA03F3DB43BA691340BB6121
:104D70003B685B6803F00302FB695B0002FA03F324
:104D8000BA691343BB617B68BA691A603B685B68A8
:104D900003F44033002B00F0B4800023FB60604B31
:104DA0005B6C5F4A43F4804353645D4B5B6C03F47C
:104DB0008043FB60FB685B4AFB699B08023352F847
:104DC0002330BB61FB6903F003039B000F2202FA4F
:104DD00003F3DB43BA691340BB617B68524A9342D9
:104DE0002BD07B68514A934225D07B68504A93422E
:104DF0001FD07B684F4A934219D07B684E4A93423A
:104E000013D07B684D4A93420DD07B684C4A934245
:104E100007D07B684B4A934201D107230EE0082359
:104E20000CE006230AE0052308E0042306E0032340
:104E300004E0022302E0012300E00023FA6902F00B
:104E4000030292009340BA691343BB613549FB6981
:104E50009B080233BA6941F823203B4B9B68BB6136
:104E60003B69DB43BA691340BB613B685B6803F491
:104E70008013002B03D0BA693B691343BB61324AEC
:104E8000BB699360304BDB68BB613B69DB43BA694C
:104E90001340BB613B685B6803F40013002B03D035
:104EA000BA693B691343BB61274ABB69D360264B90
:104EB0005B68BB613B69DB43BA691340BB613B681C
:104EC0005B6803F40033002B03D0BA693B691343DA
:104ED000BB611D4ABB6953601B4B1B68BB613B69CF
:104EE000DB43BA691340BB613B685B6803F4803302
:104EF000002B03D0BA693B691343BB61124ABB69FB
:104F00001360FB690133FB61FB690F2B7FF690AEE9
:104F100000BF00BF2437BD465DF8047B704700BF6B
:104F20000038024000380140000002400004024006
:104F300000080240000C0240001002400014024031
:104F400000180240001C0240003C014080B483B0C5
:104F500000AF78600B467B8013467B707B78002B1C
:104F600003D07A887B689A6103E07B881A047B68A7
:104F70009A6100BF0C37BD465DF8047B704780B472
:104F800085B000AF78600B467B807B685B69FB6017
:104F90007A88FB6813401A04FB68D9437B880B406E
:104FA0001A437B689A6100BF1437BD465DF8047BE5
:104FB0007047000080B584B000AF78607B68002B3C
:104FC00001D101232BE17B6893F83D30DBB2002B4C
:104FD00006D17B68002283F83C207868FEF780FCCD
:104FE0007B68242283F83D207B681B681A687B68F5
:104FF0001B6822F001021A607B681B681A687B68D4
:105000001B6842F400421A607B681B681A687B6860
:105010001B6822F400421A6001F01EFCF8607B68F5
:105020005B68814A934207D8FB68804A934294BFE9
:1050300001230023DBB206E0FB687D4A934294BF64
:1050400001230023DBB2002B01D00123E7E0FB6842
:10505000784AA2FB03239B0CBB607B681B685B68E0
:1050600023F03F017B681B68BA680A435A607B687B
:105070001B681B6A23F03F017B685B686A4A9342A6
:1050800002D8BB68013309E0BB684FF4967202FB9B
:1050900003F3694AA2FB03239B0901337A68126870
:1050A0000B4313627B681B68DB6923F44F4222F0D9
:1050B000FF027B685B685C498B4219D8FB68591E0C
:1050C0007B685B685B00B1FBF3F3591C40F6FC7333
:1050D0000B40002B0AD0FB68591E7B685B685B00A5
:1050E000B1FBF3F30133C3F30B0351E004234FE0AF
:1050F0007B689B68002B11D1FB68581E7B68596840
:105100000B465B000B44B0FBF3F30133C3F30B031B
:10511000002B0CBF01230023DBB212E0FB68581EFA
:105120007B6859680B469B000B4499000B44B0FB0D
:10513000F3F30133C3F30B03002B0CBF0123002354
:10514000DBB2002B01D0012322E07B689B68002B9F
:105150000ED1FB68581E7B6859680B465B000B44F8
:10516000B0FBF3F30133C3F30B0343F400430FE04D
:10517000FB68581E7B6859680B469B000B449900DE
:105180000B44B0FBF3F30133C3F30B0343F440438D
:10519000796809681343CB617B681B681B6823F03F
:1051A000C0017B68DA697B681B6A1A437B681B68ED
:1051B0000A431A607B681B689B6823F4034323F04F
:1051C000FF037A6811697A68D26811437A681268B5
:1051D0000B4393607B681B68DB6823F0FF017B68EF
:1051E0005A697B689B691A437B681B680A43DA60CB
:1051F0007B681B681A687B681B6842F001021A60B2
:105200007B6800221A647B68202283F83D207B683B
:1052100000221A637B68002283F83E200023184690
:105220001037BD4680BD00BFA08601007F841E00F0
:10523000FF083D0083DE1B43D34D621080B588B06C
:1052400002AFF8607A601A460B467B8113463B81B9
:10525000FEF70CFF7861FB6893F83D30DBB2202B42
:1052600040F0E0807B690093192301227049F868BF
:1052700000F064FC0346002B01D00223D3E0FB685E
:1052800093F83C30012B01D10223CCE0FB680122D2
:1052900083F83C20FB681B681B6803F00103012BAB
:1052A00007D0FB681B681A68FB681B6842F00102A4
:1052B0001A60FB681B681A68FB681B6822F40062AE
:1052C0001A60FB68212283F83D20FB68102283F8D6
:1052D0003E20FB6800221A64FB687A685A62FB6809
:1052E0003A895A85FB685B8D9AB2FB681A85FB6820
:1052F000504ADA6279897B693A6AF86800F0CEFA36
:105300000346002B01D001238DE000233B61FB68A5
:105310001B685B693B61FB681B689B693B613B6980
:1053200066E07A69396AF86800F022FD0346002BCE
:105330000DD0FB681B6C042B07D1FB681B681A6837
:10534000FB681B6842F400721A6001236BE0FB6883
:105350005B6A1A78FB681B681A61FB685B6A5A1CF7
:10536000FB685A62FB685B8D9BB2013B9AB2FB689B
:105370005A85FB681B8D013B9AB2FB681A85FB6856
:105380001B685B6903F00403042B1BD1FB681B8DB6
:10539000002B17D0FB685B6A1A78FB681B681A61E0
:1053A000FB685B6A5A1CFB685A62FB685B8D9BB2A8
:1053B000013B9AB2FB685A85FB681B8D013B9AB290
:1053C000FB681A857A69396AF86800F019FD0346A6
:1053D000002B0DD0FB681B6C042B07D1FB681B68EE
:1053E0001A68FB681B6842F400721A6001231AE015
:1053F000FB681B8D002B94D1FB681B681A68FB6847
:105400001B6842F400721A60FB68202283F83D207A
:10541000FB68002283F83E20FB68002283F83C20D2
:10542000002300E0022318461837BD4680BD00BFA8
:10543000020010000000FFFF80B58CB002AFF860E2
:105440007A601A460B467B8113463B81FEF70EFEBF
:105450007862FB6893F83D30DBB2202B40F0178276
:105460007B6A0093192301227C49F86800F066FBEF
:105470000346002B01D002230AE2FB6893F83C307C
:10548000012B01D1022303E2FB68012283F83C20B7
:10549000FB681B681B6803F00103012B07D0FB6846
:1054A0001B681A68FB681B6842F001021A60FB68FF
:1054B0001B681A68FB681B6822F400621A60FB68AC
:1054C000222283F83D20FB68102283F83E20FB68EF
:1054D00000221A64FB687A685A62FB683A895A8526
:1054E000FB685B8D9AB2FB681A85FB685C4ADA62DE
:1054F00079897B6A3A6BF86800F052FA0346002B10
:1055000001D00123C4E1FB681B8D002B13D10023C4
:105510003B62FB681B685B693B62FB681B689B69BD
:105520003B623B6AFB681B681A68FB681B6842F4B5
:1055300000721A6098E1FB681B8D012B1BD1FB6880
:105540001B681A68FB681B6822F480621A600023DB
:10555000FB61FB681B685B69FB61FB681B689B69FF
:10556000FB61FB69FB681B681A68FB681B6842F4F7
:1055700000721A6078E1FB681B8D022B1BD1FB685F
:105580001B681A68FB681B6822F480621A60FB685B
:105590001B681A68FB681B6842F400621A600023EB
:1055A000BB61FB681B685B69BB61FB681B689B692F
:1055B000BB61BB6958E1FB681B681A68FB681B6824
:1055C00042F480621A6000237B61FB681B685B69A0
:1055D0007B61FB681B689B697B617B6944E1FB68BD
:1055E0001B8D032B00F2F180FB681B8D012B23D157
:1055F0007A6A396BF86800F04BFC0346002B01D047
:10560000012345E1FB681B681A69FB685B6AD2B23B
:105610001A70FB685B6A5A1CFB685A62FB681B8D38
:10562000013B9AB2FB681A85FB685B8D9BB2013B1C
:105630009AB2FB685A8517E1FB681B8D022B4ED18D
:105640007B6A00933B6B00220649F86800F076FA0B
:105650000346002B08D001231AE100BF020010000E
:105660000000FFFF04000100FB681B681A68FB686C
:105670001B6842F400721A60FB681B681A69FB68B9
:105680005B6AD2B21A70FB685B6A5A1CFB685A628A
:10569000FB681B8D013B9AB2FB681A85FB685B8D2A
:1056A0009BB2013B9AB2FB685A85FB681B681A697A
:1056B000FB685B6AD2B21A70FB685B6A5A1CFB68B3
:1056C0005A62FB681B8D013B9AB2FB681A85FB6826
:1056D0005B8D9BB2013B9AB2FB685A85C4E07B6A42
:1056E00000933B6B00226C49F86800F027FA0346F0
:1056F000002B01D00123CBE0FB681B681A68FB6814
:105700001B6822F480621A60FB681B681A69FB68D8
:105710005B6AD2B21A70FB685B6A5A1CFB685A62F9
:10572000FB681B8D013B9AB2FB681A85FB685B8D99
:105730009BB2013B9AB2FB685A857B6A00933B6B34
:1057400000225549F86800F0F9F90346002B01D012
:1057500001239DE0FB681B681A68FB681B6842F424
:1057600000721A60FB681B681A69FB685B6AD2B238
:105770001A70FB685B6A5A1CFB685A62FB681B8DD7
:10578000013B9AB2FB681A85FB685B8D9BB2013BBB
:105790009AB2FB685A85FB681B681A69FB685B6AEA
:1057A000D2B21A70FB685B6A5A1CFB685A62FB68CB
:1057B0001B8D013B9AB2FB681A85FB685B8D9BB21F
:1057C000013B9AB2FB685A854EE07A6A396BF868F9
:1057D00000F05EFB0346002B01D0012358E0FB687C
:1057E0001B681A69FB685B6AD2B21A70FB685B6A55
:1057F0005A1CFB685A62FB681B8D013B9AB2FB681E
:105800001A85FB685B8D9BB2013B9AB2FB685A8597
:10581000FB681B685B6903F00403042B24D1FB685D
:105820001B8D032B07D1FB681B681A68FB681B687C
:1058300022F480621A60FB681B681A69FB685B6A65
:10584000D2B21A70FB685B6A5A1CFB685A62FB682A
:105850001B8D013B9AB2FB681A85FB685B8D9BB27E
:10586000013B9AB2FB685A85FB681B8D002B7FF4C5
:10587000B6AEFB68202283F83D20FB68002283F847
:105880003E20FB68002283F83C20002300E0022336
:1058900018462837BD4680BD0400010080B588B099
:1058A00002AFF8607A603B600B467B81FB68DB6A85
:1058B0007B617B69082B06D07B69012B03D07B6958
:1058C00013F5803F08D1FB681B681A68FB681B68EA
:1058D00042F480721A600BE0FB681B6B122B07D13D
:1058E000FB681B681A68FB681B6842F480721A60C8
:1058F0003B6800937B6800224FF00111F86800F0CC
:105900001DF90346002B0DD0FB681B681B6803F4D0
:105910008073B3F5807F03D1FB684FF400721A6483
:10592000032335E0FB681B69B3F5804F08D17B8901
:10593000DBB21A46FB681B6802F0FE021A611BE02C
:105940007B89DB11DBB203F00603DBB263F00F03EC
:10595000DAB2FB681B681A613B687A680E49F8681E
:1059600000F066F90346002B01D0012310E07B898B
:10597000DAB2FB681B681A613B687A680749F86805
:1059800000F056F90346002B01D0012300E000236C
:1059900018461837BD4680BD08000100020001000E
:1059A00080B588B002AFF8607A603B600B467B81BF
:1059B000FB68DB6A7B61FB681B681A68FB681B6815
:1059C00042F480621A607B69082B06D07B69012B48
:1059D00003D07B6913F5803F08D1FB681B681A6808
:1059E000FB681B6842F480721A600BE0FB681B6B5B
:1059F000112B07D1FB681B681A68FB681B6842F40F
:105A000080721A603B6800937B6800224FF001119E
:105A1000F86800F093F80346002B0DD0FB681B6874
:105A20001B6803F48073B3F5807F03D1FB684FF4E8
:105A300000721A64032379E0FB681B69B3F5804F99
:105A400008D17B89DBB243F00103DAB2FB681B6843
:105A50001A615FE07B89DB11DBB203F00603DBB286
:105A600063F00F03DAB2FB681B681A613B687A685F
:105A70003049F86800F0DCF80346002B01D0012320
:105A800054E07B89DAB2FB681B681A613B687A686C
:105A90002949F86800F0CCF80346002B01D0012317
:105AA00044E000233B61FB681B685B693B61FB686A
:105AB0001B689B693B613B69FB681B681A68FB6854
:105AC0001B6842F480721A603B6800937B68002276
:105AD0004FF00111F86800F031F80346002B0DD0AB
